:020000040800F2
:1000000000500020DD430008D9430008D943000810
:10001000D9430008D9430008D94300080000000074
:10002000000000000000000000000000D9430008AC
:10003000D943000800000000D9430008D943000854
:10004000D9430008D9430008D9430008D943000820
:10005000D9430008D9430008D9430008D943000810
:10006000D9430008D9430008D9430008D943000800
:10007000D9430008D9430008D9430008D9430008F0
:10008000D9430008D943000821010008D9430008DA
:10009000D9430008D9430008D9430008D9430008D0
:1000A000D9430008D9430008D9430008ED000008EF
:1000B000D9430008D9430008D9430008D9430008B0
:1000C000D9430008D9430008D9430008D9430008A0
:1000D000D9430008D9430008D9430008D943000890
:0C00E000D9430008D9430008D9430008A8
:1000EC0080B500AF0221094802F0FCFD0346002B4D
:1000FC0009D00221054802F01EFE054BDB68044ABC
:10010C0083F48043D36000BF80BD00BF002C01404E
:10011C000010014080B500AF4FF40871094801F0A0
:10012C00EDF80346002B0AD04FF40871054801F096
:10013C000FF9054BDB68044A83F40053D36000BF0E
:10014C0080BD00BF002401400010014080B500AF0D
:10015C0000F029F800F0F2F800F0ACF800F00AF822
:10016C0000F05FF80121024800F08AFE00BFFDE7B5
:10017C000024014080B582B000AF12233B710023F4
:10018C007B710023BB710123FB713B1D184602F0F0
:10019C00D1FF1B233B713B1D184602F0CBFF00BF68
:1001AC000837BD4680BD80B582B000AF03F020FD9E
:1001BC004FF4803003F04AFD03F076FD0346FB71EB
:1001CC00FB79012B29D1022003F068F8102003F0F1
:1001DC0099F8002003F016FE4FF4806003F02EFE19
:1001EC00002003F047FE4FF4E0114FF4803003F091
:1001FC00B1FD012003F0CCFD00BF392004F074F8F0
:10020C000346002BF9D0022003F0D2FD00BF03F00F
:10021C00EBFD0346082BFAD100E0FEE70837BD469C
:10022C0080BD80B586B000AF01214FF4007003F0A3
:10023C00B3FF4FF4004003F06DFE00237B600023FE
:10024C003B7200237B720023FB6000233B61012384
:10025C003B753B1D1946164800F0CAFB00230122D2
:10026C000021134800F043FD01224FF4087110489F
:10027C0000F061FC01210E4800F027FC0C4800F056
:10028C007CFC00BF0A4800F087FC0346002BF9D128
:10029C00074800F098FC00BF054800F0A3FC03469B
:1002AC00002BF9D100BF00BF1837BD4680BD00BF81
:1002BC000024014080B588B000AF01214FF40060EC
:1002CC0003F06AFF41F61F433B83C723BB82002325
:1002DC007B830023FB8207F114031946164801F0B7
:1002EC0063F97023BB800123FB804FF461637B8136
:1002FC000223BB813B1D19460F4801F0D1F908219F
:10030C000D4802F00FF801210B4801F08FFF40213E
:10031C00094802F042FB01220221074801F04DFD81
:10032C000121054801F005FD0121034801F020FDE4
:10033C0000BF2037BD4680BD002C014080B582B087
:10034C0000AF0121042003F027FF0123BB80002311
:10035C00FB713B1D1946114800F0A2F80121102039
:10036C0003F01AFF4FF4C043BB801023FB7103232F
:10037C00BB713B1D19460A4800F092F84FF480738C
:10038C00BB801823FB710323BB713B1D194603482B
:10039C0000F086F800BF0837BD4680BD000801405C
:1003AC000010014080B582B000AF78607B682F4AA6
:1003BC00934208D10121042003F02AFF00210420DC
:1003CC0003F026FF4EE07B68294A934208D10121B5
:1003DC00082003F01DFF0021082003F019FF41E065
:1003EC007B68244A934208D10121102003F010FFAE
:1003FC000021102003F00CFF34E07B681E4A93426E
:10040C0008D10121202003F003FF0021202003F05C
:10041C00FFFE27E07B68194A934208D10121402056
:10042C0003F0F6FE0021402003F0F2FE1AE07B6898
:10043C00134A934208D10121802003F0E9FE0021E8
:10044C00802003F0E5FE0DE07B680E4A934209D153
:10045C0001214FF4807003F0DBFE00214FF480701B
:10046C0003F0D6FE00BF0837BD4680BD0008014032
:10047C00000C014000100140001401400018014024
:10048C00001C01400020014080B500AF012101207B
:10049C0003F0BEFE0021012003F0BAFE00BF80BDB8
:1004AC0080B489B000AF786039600023FB61002311
:1004BC003B610023BB610023FB6000237B610023B5
:1004CC00BB603B68DB7803F00F03FB613B68DB78B8
:1004DC0003F01003002B05D03B689B781A46FB6990
:1004EC001343FB613B681B88DBB2002B44D07B6859
:1004FC001B687B610023BB6138E00122BB6902FAF7
:10050C0003F3FB603B681B881A46FB6813403B6196
:10051C003A69FB689A4226D1BB699B00FB600F22AB
:10052C00FB6802FA03F3BB60BB68DB437A691340D8
:10053C007B61FA69FB6802FA03F37A6913437B6106
:10054C003B68DB78282B05D10122BB699A407B687C
:10055C005A6108E03B68DB78482B04D10122BB6967
:10056C009A407B681A61BB690133BB61BB69072B7D
:10057C00C3D97B687A691A603B681B88FF2B46D904
:10058C007B685B687B610023BB613AE0BB69083325
:10059C00012202FA03F3FB603B681B881A46FB68D6
:1005AC0013403B613A69FB689A4227D1BB699B00B7
:1005BC00FB600F22FB6802FA03F3BB60BB68DB43F2
:1005CC007A6913407B61FA69FB6802FA03F37A6972
:1005DC0013437B613B68DB78282B05D1BB6908335F
:1005EC0001229A407B685A613B68DB78482B05D125
:1005FC00BB69083301229A407B681A61BB690133DD
:10060C00BB61BB69072BC1D97B687A695A6000BF93
:10061C002437BD4680BC704780B483B000AF78608F
:10062C007B684FF6FF721A807B6802229A707B6897
:10063C000422DA7000BF0C37BD4680BC704780B412
:10064C0085B000AF78600B467B800023FB737B6822
:10065C009A687B881340002B02D00123FB7301E0C6
:10066C000023FB73FB7B18461437BD4680BC7047D8
:10067C0080B483B000AF78607B689B689BB21846EF
:10068C000C37BD4680BC704780B485B000AF786035
:10069C000B467B800023FB737B68DA687B881340F6
:1006AC00002B02D00123FB7301E00023FB73FB7BC7
:1006BC0018461437BD4680BC704780B483B000AF79
:1006CC0078607B68DB689BB218460C37BD4680BCF3
:1006DC00704780B483B000AF78600B467B807A881B
:1006EC007B681A6100BF0C37BD4680BC704780B474
:1006FC0083B000AF78600B467B807A887B685A6148
:10070C0000BF0C37BD4680BC704780B483B000AFCF
:10071C0078600B467B8013467B707B78002B03D074
:10072C007A887B681A6102E07A887B685A6100BF1C
:10073C000C37BD4680BC704780B483B000AF786086
:10074C000B467B807A887B68DA6000BF0C37BD462D
:10075C0080BC704780B485B000AF78600B467B805E
:10076C004FF48033FB607B88FA681343FB607B6833
:10077C00FA689A617A887B689A617B68FA689A61F0
:10078C007B689B69FB607B689B69FB6000BF1437CF
:10079C00BD4680BC704780B485B000AF03460A46A6
:1007AC00FB711346BB710023FB600C4B1B68FB6099
:1007BC00FA684FF680731340FB60FB791B01FA68F3
:1007CC001343FB60BB79FA681343FB60034AFB6875
:1007DC00136000BF1437BD4680BC70470000014059
:1007EC0080B483B000AF0346FB71044AFB791360FD
:1007FC0000BF0C37BD4680BC704700BF1C002042B8
:10080C0080B487B000AF78600B46FB7000233B616F
:10081C000023FB6000237B610023BB607B68002B03
:10082C0003DA2E4BDB697B6102E02C4B5B687B614E
:10083C007B681B0C03F00F03BB607B689BB23B61B6
:10084C007B6803F44013B3F5401F0AD17B6923F096
:10085C0070637B61214B5B68204A23F070635360AB
:10086C0021E07B6803F48013002B0ED00322BB68BD
:10087C0002FA03F3FB60FB68DB437A6913407B618C
:10088C007B6943F070637B610DE07B685B0D1B0142
:10089C003A6902FA03F3DB437A6913407B617B69A3
:1008AC0043F070637B61FB78002B08D07B685B0D99
:1008BC001B013A6902FA03F37A6913437B617B6883
:1008CC00002B03DA054A7B69D36102E0034A7B699A
:1008DC00536000BF1C37BD4680BC70470000014010
:1008EC0080B485B000AF03460A46FB711346BB715A
:1008FC000023FB60BB7903F003039B000F2202FA79
:10090C0003F3FB60154ABB799B08DBB2023352F848
:10091C002320FB68DB431148B9798908C9B21A4016
:10092C008B1C40F823200D4ABB799B08DBB20233A9
:10093C0052F82320F979BB7903F003039B0001FAE9
:10094C0003F30648B9798908C9B21A438B1C40F8DD
:10095C00232000BF1437BD4680BC70470000014007
:10096C0080B483B000AF7860034A7B68136000BF2B
:10097C000C37BD4680BC7047DC00204280B582B08D
:10098C0000AF78607B68174A93420AD101214FF47B
:10099C00007003F03DFC00214FF4007003F038FCB4
:1009AC001CE07B68104A93420AD101214FF480600D
:1009BC0003F02EFC00214FF4806003F029FC0DE0C5
:1009CC007B680A4A934209D101214FF4004003F09D
:1009DC001FFC00214FF4004003F01AFC00BF083745
:1009EC00BD4680BD0024014000280140003C014070
:1009FC0080B485B000AF786039600023FB600023C1
:100A0C00FB727B685B68FB60FB6823F4702323F448
:100A1C008073FB603B681A683B681B791B021343AD
:100A2C00FA681343FB607B68FA685A607B689B68C2
:100A3C00FB60FA68164B1340FB603B68DA683B6856
:100A4C009B681A433B685B795B001343FA6813435A
:100A5C00FB607B68FA689A607B68DB6AFB60FB680A
:100A6C0023F47003FB603B681B7C013BDAB2FB7A1E
:100A7C001343FB72FB7A1B05FA681343FB607B681C
:100A8C00FA68DA6200BF1437BD4680BC704700BFFD
:100A9C00FDF7F1FF80B483B000AF78607B68002273
:100AAC001A607B6800221A717B6800225A717B687D
:100ABC0000229A607B680022DA607B6801221A743B
:100ACC0000BF0C37BD4680BC704780B483B000AF0C
:100ADC0078600B46FB70FB78002B06D07B689B681C
:100AEC0043F001027B689A6005E07B689B6823F009
:100AFC0001027B689A6000BF0C37BD4680BC704712
:100B0C0080B483B000AF78600B46FB70FB78002B91
:100B1C0006D07B689B6843F480727B689A6005E022
:100B2C007B689B6823F480727B689A6000BF0C37EB
:100B3C00BD4680BC704780B485B000AF78600B4672
:100B4C007B8013467B700023FB737B88FB737B7865
:100B5C00002B06D07B685A68FB7B1A437B685A6073
:100B6C0006E07B685A68FB7BDB431A407B685A6063
:100B7C0000BF1437BD4680BC704780B483B000AF53
:100B8C0078607B689B6843F008027B689A6000BFC2
:100B9C000C37BD4680BC704780B485B000AF786020
:100BAC000023FB737B689B6803F00803002B02D0C7
:100BBC000123FB7301E00023FB73FB7B1846143706
:100BCC00BD4680BC704780B483B000AF78607B6852
:100BDC009B6843F004027B689A6000BF0C37BD46EB
:100BEC0080BC704780B485B000AF78600023FB7385
:100BFC007B689B6803F00403002B02D00123FB737A
:100C0C0001E00023FB73FB7B18461437BD4680BC08
:100C1C00704780B483B000AF78600B46FB70FB78F4
:100C2C00002B06D07B689B6843F4A0027B689A601B
:100C3C0005E07B689B6823F4A0027B689A6000BF88
:100C4C000C37BD4680BC704780B485B000AF78606F
:100C5C000023FB737B689B6803F48003002B02D09A
:100C6C000123FB7301E00023FB73FB7B1846143755
:100C7C00BD4680BC704780B485B000AF78600B4631
:100C8C00FB700023FB600023BB607B685B68FB6030
:100C9C00FB6823F46043FB60FB78013BBB60BB68E3
:100CAC005B03FA681343FB607B68FA685A6000BF09
:100CBC001437BD4680BC704780B483B000AF7860F9
:100CCC000B46FB70FB78002B06D07B685B6843F40B
:100CDC0000627B685A6005E07B685B6823F4006205
:100CEC007B685A6000BF0C37BD4680BC704780B42F
:100CFC0085B000AF7860084611461A460346FB7073
:100D0C000B46BB7013467B700023FB600023BB605B
:100D1C00FB78092B23D97B68DB68FB60FB78A3F19C
:100D2C000A0213465B001344072202FA03F3BB606A
:100D3C00BB68DB43FA681340FB607978FB78A3F15E
:100D4C000A0213465B00134401FA03F3BB60FA6812
:100D5C00BB681343FB607B68FA68DA601EE07B6853
:100D6C001B69FB60FA7813465B001344072202FAF6
:100D7C0003F3BB60BB68DB43FA681340FB60797814
:100D8C00FA7813465B00134401FA03F3BB60FA686C
:100D9C00BB681343FB607B68FA681A61BB78062B4F
:100DAC0021D87B685B6BFB60BB785A1E13469B009B
:100DBC0013441F2202FA03F3BB60BB68DB43FA68DF
:100DCC001340FB60F978BB785A1E13469B00134402
:100DDC0001FA03F3BB60FA68BB681343FB607B68E2
:100DEC00FA685A6347E0BB780C2B21D87B681B6BE5
:100DFC00FB60BB78DA1F13469B0013441F2202FAD8
:100E0C0003F3BB60BB68DB43FA681340FB60F97803
:100E1C00BB78DA1F13469B00134401FA03F3BB6043
:100E2C00FA68BB681343FB607B68FA681A6322E0BC
:100E3C007B68DB6AFB60BB78A3F10D0213469B0059
:100E4C0013441F2202FA03F3BB60BB68DB43FA684E
:100E5C001340FB60F978BB78A3F10D0213469B009D
:100E6C00134401FA03F3BB60FA68BB681343FB60DD
:100E7C007B68FA68DA6200BF1437BD4680BC7047E5
:100E8C0080B483B000AF78600B46FB70FB78002B0E
:100E9C0006D07B689B6843F480127B689A6005E0FF
:100EAC007B689B6823F480127B689A6000BF0C37C8
:100EBC00BD4680BC704780B483B000AF78607B685F
:100ECC00DB6C9BB218460C37BD4680BC704780B4B7
:100EDC0000AF034B1B681846BD4680BC704700BF73
:100EEC004C24014080B483B000AF78600B46FB709B
:100EFC00FB78002B06D07B685B6843F480627B68D0
:100F0C005A6005E07B685B6823F480627B685A60FA
:100F1C0000BF0C37BD4680BC704780B483B000AFB7
:100F2C0078600B46FB70FB78002B06D07B685B6807
:100F3C0043F480527B685A6005E07B685B6823F45D
:100F4C0080527B685A6000BF0C37BD4680BC70472E
:100F5C0080B485B000AF786039600023FB607B689B
:100F6C009B68FB60FB6823F4E043FB60FA683B681A
:100F7C001343FB607B68FA689A6000BF1437BD4668
:100F8C0080BC704780B483B000AF78600B46FB70B8
:100F9C00FB78002B06D07B689B6843F400427B688F
:100FAC009A6005E07B689B6823F400427B689A603A
:100FBC0000BF0C37BD4680BC704780B483B000AF17
:100FCC0078600B46FB70FB78002B06D07B689B6827
:100FDC0043F402127B689A6005E07B689B6823F4FB
:100FEC0002127B689A6000BF0C37BD4680BC70470C
:100FFC0080B485B000AF78600023FB737B689B687E
:10100C0003F40013002B02D00123FB7301E0002337
:10101C00FB73FB7B18461437BD4680BC704780B40D
:10102C0087B000AF7860084611461A460346FB703D
:10103C000B46BB7013467B7000237B6100233B6126
:10104C000023FB60FB78092B23D97B68DB687B6171
:10105C00FB78A3F10A0213465B001344072202FA41
:10106C0003F33B613B69DB437A6913407B6179781D
:10107C00FB78A3F10A0213465B00134401FA03F355
:10108C003B617A693B6913437B617B687A69DA60FF
:10109C001EE07B681B697B61FA7813465B00134486
:1010AC00072202FA03F33B613B69DB437A69134085
:1010BC007B617978FA7813465B00134401FA03F3E9
:1010CC003B617A693B6913437B617B687A691A617E
:1010DC007B689B6B7B617B691B0D03F00303FB60DF
:1010EC00FB68DBB2BA78D31ADBB20233DBB21A4636
:1010FC0013469B0013441F2202FA03F33B613B6926
:10110C00DB437A6913407B61FA78FB68DBB2B97810
:10111C00CB1ADBB20233DBB219460B469B000B44F5
:10112C0002FA03F33B617A693B6913437B617B6889
:10113C007A699A6300BF1C37BD4680BC704780B487
:10114C0085B000AF78600B46FB700023FB6000237A
:10115C00BB607B689B6BFB60FB6823F44013FB60FC
:10116C00FB78013BBB60BB681B05FA681343FB6053
:10117C007B68FA689A6300BF1437BD4680BC704721
:10118C0080B485B000AF78600B46FB7013463B8093
:10119C000023FB607B68FB60FA78FB681344FB6000
:1011AC00FB681A463B88136000BF1437BD4680BCF1
:1011BC00704780B485B000AF78600B46FB7000239D
:1011CC00FB607B68FB60FA78FB6813442833FB6098
:1011DC00FB681B689BB218461437BD4680BC704731
:1011EC0080B485B000AF786039600023FB607B6809
:1011FC005B68FB60FB6823F4400323F40073FB6023
:10120C00FA683B681343FB607B68FA685A6000BF5E
:10121C001437BD4680BC704780B483B000AF786093
:10122C000B467B8013463B807A887B685A623A88EF
:10123C007B689A6200BF0C37BD4680BC704780B497
:10124C0085B000AF78600B46FB700023FB607B68B9
:10125C005B68FB60FB6823F01F03FB60FB78FA689C
:10126C001343FB607B68FA685A6000BF1437BD46B5
:10127C0080BC704780B483B000AF0346FB71FB7930
:10128C00002B06D0084B9B68074A43F4000393607D
:10129C0005E0054B9B68044A23F40003936000BFF0
:1012AC000C37BD4680BC70470024014080B485B02B
:1012BC0000AF78600B46FB700023FB737B681A68E9
:1012CC00FB781340002B02D00123FB7301E00023B9
:1012DC00FB73FB7B18461437BD4680BC704780B44B
:1012EC0083B000AF78600B46FB70FB78DA437B6809
:1012FC001A6000BF0C37BD4680BC704780B487B005
:10130C0000AF78600B467B800023FB7500233B61AC
:10131C000023FB607B881B0A9BB23B617B685B688C
:10132C007A88D2B21340FB607B681A683B69134021
:10133C00002B05D0FB68002B02D00123FB7501E0CC
:10134C000023FB75FB7D18461C37BD4680BC7047DF
:10135C0080B485B000AF78600B467B800023FB73B4
:10136C007B881B0A9BB2FB73FB7BDA437B681A609E
:10137C0000BF1437BD4680BC704700BF80B582B03B
:10138C0000AF78607B68784A93420AD101214FF410
:10139C00006002F03DFF00214FF4006002F038FFC6
:1013AC00DEE07B68B3F1804F08D10121012002F00F
:1013BC004DFF0021012002F049FFD1E07B686B4A10
:1013CC00934208D10121022002F040FF00210220AB
:1013DC0002F03CFFC4E07B68654A934208D10121CE
:1013EC00042002F033FF0021042002F02FFFB7E0AD
:1013FC007B68604A934208D10121082002F026FF45
:10140C000021082002F022FFAAE07B685A4A93428E
:10141C0008D10121102002F019FF0021102002F048
:10142C0015FF9DE07B68554A934208D1012120208D
:10143C0002F00CFF0021202002F008FF90E07B68F6
:10144C004F4A93420AD101214FF4005002F0E0FEC2
:10145C0000214FF4005002F0DBFE81E07B68494A2A
:10146C0093420AD101214FF4002002F0D1FE002159
:10147C004FF4002002F0CCFE72E07B68424A9342AB
:10148C000AD101214FF4801002F0C2FE00214FF46A
:10149C00801002F0BDFE63E07B683C4A93420AD1A7
:1014AC0001214FF4001002F0B3FE00214FF40010A4
:1014BC0002F0AEFE54E07B68354A934208D101211C
:1014CC00402002F0C3FE0021402002F0BFFE47E0A6
:1014DC007B68304A934208D10121802002F0B6FE8D
:1014EC000021802002F0B2FE3AE07B682A4A934247
:1014FC000AD101214FF4807002F0A8FE00214FF4B4
:10150C00807002F0A3FE2BE07B68244A93420AD140
:10151C0001214FF4803002F07BFE00214FF480302B
:10152C0002F076FE1CE07B681D4A93420AD1012131
:10153C004FF4003002F06CFE00214FF4003002F04A
:10154C0067FE0DE07B68174A934209D101214FF4E5
:10155C00802002F05DFE00214FF4802002F058FE46
:10156C0000BF0837BD4680BD002C01400004004080
:10157C0000080040000C0040001000400014004027
:10158C0000340140004C0140005001400054014027
:10159C0000180040001C00400020004000400140AA
:1015AC00004401400048014080B485B000AF786031
:1015BC0039600023FB817B681B88FB817B682E4A8A
:1015CC00934213D07B682D4A93420FD07B68B3F1C2
:1015DC00804F0BD07B682A4A934207D07B68294AFC
:1015EC00934203D07B68284A934208D1FB8923F0AD
:1015FC007003FB813B685A88FB891343FB817B6832
:10160C00224A93420CD07B68214A934208D0FB8932
:10161C0023F44073FB813B68DA88FB891343FB811D
:10162C007B68FA891A803B689A887B689A853B6844
:10163C001A887B681A857B680F4A93420FD07B68A7
:10164C000E4A93420BD07B68124A934207D07B68B8
:10165C00114A934203D07B68104A934204D13B68F1
:10166C001B7A1A467B681A867B6801229A8200BF15
:10167C001437BD4680BC7047002C0140003401403B
:10168C000004004000080040000C00400010004026
:10169C00001400400040014000440140004801405B
:1016AC0080B485B000AF7860396000237B81002363
:1016BC00FB810023BB817B681B8C9BB223F0010355
:1016CC009AB27B681A847B681B8CFB817B689B8835
:1016DC00BB817B681B8B7B817B8923F070037B81B7
:1016EC007B8923F003037B813B681A887B89134336
:1016FC007B81FB8923F00203FB813B681A89FB8900
:10170C001343FB813B685A88FB891343FB817B683D
:10171C00244A93420FD07B68234A93420BD07B68B8
:10172C00224A934207D07B68214A934203D07B68BC
:10173C00204A934223D1FB8923F00803FB813B68A9
:10174C005A89FB891343FB81FB8923F00403FB813A
:10175C003B689A88FB891343FB81BB8923F4807314
:10176C00BB81BB8923F40073BB813B689A89BB891D
:10177C001343BB813B68DA89BB891343BB817B680C
:10178C00BA899A807B687A891A833B68DA887B6885
:10179C009A867B68FA891A8400BF1437BD4680BCD0
:1017AC00704700BF002C0140003401400040014054
:1017BC00004401400048014080B485B000AF78601F
:1017CC00396000237B810023FB810023BB817B6874
:1017DC001B8C9BB223F010039AB27B681A847B6833
:1017EC001B8CFB817B689B88BB817B681B8B7B8103
:1017FC007B8923F4E0437B817B8923F440737B81D9
:10180C003B681B881B029AB27B8913437B81FB8943
:10181C0023F02003FB813B681B891B019AB2FB89D7
:10182C001343FB813B685B881B019AB2FB89134312
:10183C00FB817B68224A934203D07B68214A934206
:10184C002BD1FB8923F08003FB813B685B891B0157
:10185C009AB2FB891343FB81FB8923F04003FB8184
:10186C003B689B881B019AB2FB891343FB81BB89A4
:10187C0023F48063BB81BB8923F40063BB813B6889
:10188C009B899B009AB2BB891343BB813B68DB8964
:10189C009B009AB2BB891343BB817B68BA899A803F
:1018AC007B687A891A833B68DA887B681A877B683D
:1018BC00FA891A8400BF1437BD4680BC704700BF3C
:1018CC00002C01400034014080B485B000AF78603A
:1018DC00396000237B810023FB810023BB817B6863
:1018EC001B8C9BB223F480739AB27B681A847B683E
:1018FC001B8CFB817B689B88BB817B689B8B7B8172
:10190C007B8923F070037B817B8923F003037B812C
:10191C003B681A887B8913437B81FB8923F4007312
:10192C00FB813B681B891B029AB2FB891343FB8129
:10193C003B685B881B029AB2FB891343FB817B6873
:10194C00224A934203D07B68214A93422BD1FB89D4
:10195C0023F40063FB813B685B891B029AB2FB8911
:10196C001343FB81FB8923F48063FB813B689B88D9
:10197C001B029AB2FB891343FB81BB8923F480536E
:10198C00BB81BB8923F40053BB813B689B891B0142
:10199C009AB2BB891343BB813B68DB891B019AB2AA
:1019AC00BB891343BB817B68BA899A807B687A892F
:1019BC009A833B68DA887B689A877B68FA891A84F1
:1019CC0000BF1437BD4680BC704700BF002C0140DF
:1019DC000034014080B485B000AF786039600023DA
:1019EC00BB8100237B810023FB817B681B8C9BB21A
:1019FC0023F480539AB27B681A847B681B8C7B819E
:101A0C007B689B88FB817B689B8BBB81BB8923F4A8
:101A1C00E043BB81BB8923F44073BB813B681B88CB
:101A2C001B029AB2BB891343BB817B8923F40053FD
:101A3C007B813B681B891B039AB27B8913437B8197
:101A4C003B685B881B039AB27B8913437B817B6861
:101A5C00124A934203D07B68114A93420AD1FB8904
:101A6C0023F48043FB813B689B899B019AB2FB89E1
:101A7C001343FB817B68FA899A807B68BA899A83C5
:101A8C003B68DA887B68A3F840207B687A891A84E3
:101A9C0000BF1437BD4680BC704700BF002C01400E
:101AAC000034014080B582B000AF786039603B688B
:101ABC001B88002B0FD13B6859883B689A883B6880
:101ACC001B89786801F047F93B68DB881946786810
:101ADC0001F009F836E03B681B88042B0FD13B68FA
:101AEC0059883B689A883B681B89786801F0A4F98F
:101AFC003B68DB881946786801F010F822E03B68F7
:101B0C001B88082B0FD13B6859883B689A883B6827
:101B1C001B89786801F00AFA3B68DB8819467868FB
:101B2C0001F019F80EE03B6859883B689A883B68CD
:101B3C001B89786801F070FA3B68DB881946786875
:101B4C0001F024F800BF0837BD4680BD80B584B0D5
:101B5C0000AF786039600023FB810123BB813B68B7
:101B6C005B88002B02D10223FB8101E00023FB8167
:101B7C003B689B88012B02D10223BB8101E001232E
:101B8C00BB813B681B88002B1CD13B6859883B6888
:101B9C009A883B681B89786801F0DDF83B68DB8824
:101BAC001946786800F09FFF3B681B89BA89F98950
:101BBC00786801F041F93B68DB881946786800F0D9
:101BCC00ADFF1BE03B6859883B689A883B681B89D2
:101BDC00786801F031F93B68DB881946786800F0C9
:101BEC009DFF3B681B89BA89F989786801F0B3F8C5
:101BFC003B68DB881946786800F075FF00BF10372A
:101C0C00BD4680BD80B483B000AF786039603B685E
:101C1C001A883B685B8813439AB23B689B881343D2
:101C2C009AB23B68DB8813439AB23B681B89134317
:101C3C009AB23B685B8913439AB23B689B89134306
:101C4C009AB27B68A3F8442000BF0C37BD4680BC19
:101C5C00704780B483B000AF78607B684FF6FF723A
:101C6C009A807B6800221A807B680022DA807B686D
:101C7C0000225A807B6800221A7200BF0C37BD46C6
:101C8C0080BC704780B483B000AF78607B68002262
:101C9C001A807B6800225A807B6800229A807B68BD
:101CAC000022DA807B6800221A817B6800225A812C
:101CBC007B6800229A817B680022DA8100BF0C3796
:101CCC00BD4680BC704780B483B000AF78607B6841
:101CDC0000221A807B6800225A807B6801229A803D
:101CEC007B680022DA807B6800221A8100BF0C37E7
:101CFC00BD4680BC704780B483B000AF78607B6811
:101D0C0000221A807B6800225A807B6800229A800D
:101D1C007B680022DA807B6800221A817B680022B3
:101D2C005A817B6800229A8100BF0C37BD4680BC6B
:101D3C00704780B483B000AF78600B46FB70FB78C3
:101D4C00002B08D07B681B889BB243F001039AB22E
:101D5C007B681A8007E07B681B889BB223F0010329
:101D6C009AB27B681A8000BF0C37BD4680BC7047A6
:101D7C0080B483B000AF78600B46FB70FB78002B0F
:101D8C000CD07B68B3F844309BB26FEA43436FEAE4
:101D9C0053439AB27B68A3F8442009E07B68B3F8FC
:101DAC0044309BB2C3F30E039AB27B68A3F8442071
:101DBC0000BF0C37BD4680BC704780B483B000AF09
:101DCC0078600B467B8013467B707B78002B08D0A9
:101DDC007B689B899AB27B8813439AB27B689A8101
:101DEC0009E07B689B899AB27B88DB439BB21340EA
:101DFC009AB27B689A8100BF0C37BD4680BC704795
:101E0C0080B483B000AF78600B467B807B687A88A7
:101E1C009A8200BF0C37BD4680BC704780B483B03B
:101E2C0000AF78600B467B8013463B807A883B88FA
:101E3C0013439AB27B68A3F8482000BF0C37BD4609
:101E4C0080BC704780B483B000AF78600B467B8059
:101E5C0013467B707B78002B08D07B689B899AB2E9
:101E6C007B8813439AB27B689A8109E07B689B89D3
:101E7C009AB27B88DB439BB213409AB27B689A81FF
:101E8C0000BF0C37BD4680BC704780B483B000AF38
:101E9C0078607B681B899BB223F007039AB27B683E
:101EAC001A8100BF0C37BD4680BC704780B582B02C
:101EBC0000AF78600B467B807B881946786800F011
:101ECC00DFF87B681B899BB243F007039AB27B68EF
:101EDC001A8100BF0837BD4680BD80B584B000AF05
:101EEC00F860084611461A4603467B810B463B8137
:101EFC001346FB807B89602B06D1FB883989012234
:101F0C00F86800F099FF05E0FB8839890122F86830
:101F1C0000F021FF7B891946F86800F0B1F8FB68E6
:101F2C001B899BB243F007039AB2FB681A8100BF6E
:101F3C001037BD4680BD80B586B000AFF86008464E
:101F4C0011461A4603467B810B463B811346FB80A8
:101F5C000023FB82FB883A897989F86800F039F80C
:101F6C00FB681B89FB82FB8A23F00703FB82FB8A3D
:101F7C0043F00703FB82FB8A23F07003FB82FB8A8E
:101F8C0043F07003FB82FB68FA8A1A8100BF183792
:101F9C00BD4680BD80B584B000AFF86008461146E0
:101FAC001A4603467B810B463B811346FB80FB881C
:101FBC003A897989F86800F00CF8FB681B899BB2A8
:101FCC0043F480439AB2FB681A8100BF1037BD46B8
:101FDC0080BD80B487B000AFF860084611461A4641
:101FEC0003467B810B463B811346FB800023FB821F
:101FFC00FB681B89FB82FB8ADBB2FB82FB881B0222
:10200C009AB23B8913439AB27B8913439AB2FB8AE7
:10201C001343FB82FB68FA8A1A8100BF1C37BD464A
:10202C0080BC704780B483B000AF78600B467B8077
:10203C0013463B807B687A881A857B683A889A823B
:10204C0000BF0C37BD4680BC704780B485B000AF74
:10205C0078600B467B800023FB817B681B88FB81AF
:10206C00FB8923F07003FB81FA897B881343FB8186
:10207C007B68FA891A8000BF1437BD4680BC704754
:10208C0080B485B000AF78600B467B800023FB8169
:10209C007B681B89FB81FB8923F07003FB81FA8928
:1020AC007B881343FB817B68FA891A8100BF143744
:1020BC00BD4680BC704780B487B000AFF86008465E
:1020CC0011461A4603467B810B463B811346FB8027
:1020DC000023FB820023BB8200237B82FB681B89CD
:1020EC00FB82FB681B8BBB82FB681B8C7B82FB8A95
:1020FC0023F00703FB82FA8A7B891343FB82BB8A9A
:10210C0023F4407323F00303BB82BB8A43F4807334
:10211C0043F00103BB827B8A23F022037B82FB8882
:10212C001B019AB23B8913439AB27B8A13437B827D
:10213C00FB68FA8A1A81FB68BA8A1A83FB687A8A66
:10214C001A8400BF1C37BD4680BC704780B485B074
:10215C0000AF78600B467B800023FB817B681B8B78
:10216C00FB81FB8923F07003FB81FA897B88134385
:10217C00FB817B68FA891A8300BF1437BD4680BC8B
:10218C00704780B485B000AF78600B467B8000232D
:10219C00FB817B681B8BFB81FB8923F4E043FB8178
:1021AC007B881B029AB2FB891343FB817B68FA89FB
:1021BC001A8300BF1437BD4680BC704780B485B00D
:1021CC0000AF78600B467B800023FB817B689B8B88
:1021DC00FB81FB8923F07003FB81FA897B88134315
:1021EC00FB817B68FA899A8300BF1437BD4680BC9B
:1021FC00704780B485B000AF78600B467B800023BD
:10220C00FB817B689B8BFB81FB8923F4E043FB8187
:10221C007B881B029AB2FB891343FB817B68FA898A
:10222C009A8300BF1437BD4680BC704780B483B01E
:10223C0000AF78600B46FB70FB78002B08D07B68F6
:10224C001B889BB243F080039AB27B681A8007E02C
:10225C007B681B889BB223F080039AB27B681A8040
:10226C0000BF0C37BD4680BC704780B483B000AF54
:10227C0078600B46FB70FB78002B08D07B689B8842
:10228C009BB243F004039AB27B689A8007E07B68A8
:10229C009B889BB223F004039AB27B689A8000BFA0
:1022AC000C37BD4680BC704780B483B000AF7860FB
:1022BC000B46FB70FB78002B08D07B689B889BB28D
:1022CC0043F008039AB27B689A8007E07B689B888E
:1022DC009BB223F008039AB27B689A8000BF0C373C
:1022EC00BD4680BC704780B483B000AF78600B46AD
:1022FC00FB70FB78002B08D07B689B889BB243F06B
:10230C0001039AB27B689A8007E07B689B889BB23A
:10231C0023F001039AB27B689A8000BF0C37BD464C
:10232C0080BC704780B485B000AF78600B467B8072
:10233C000023FB817B681B8BFB81FB8923F008034B
:10234C00FB81FA897B881343FB817B68FA891A83AA
:10235C0000BF1437BD4680BC704780B485B000AF59
:10236C0078600B467B800023FB817B681B8BFB8199
:10237C00FB8923F40063FB817B881B029AB2FB89E7
:10238C001343FB817B68FA891A8300BF1437BD465F
:10239C0080BC704780B485B000AF78600B467B8002
:1023AC000023FB817B689B8BFB81FB8923F008035B
:1023BC00FB81FA897B881343FB817B68FA899A83BA
:1023CC0000BF1437BD4680BC704780B485B000AFE9
:1023DC0078600B467B800023FB817B689B8BFB81A9
:1023EC00FB8923F40063FB817B881B029AB2FB8977
:1023FC001343FB817B68FA899A8300BF1437BD466F
:10240C0080BC704780B485B000AF78600B467B8091
:10241C000023FB817B681B8BFB81FB8923F004036E
:10242C00FB81FA897B881343FB817B68FA891A83C9
:10243C0000BF1437BD4680BC704780B485B000AF78
:10244C0078600B467B800023FB817B681B8BFB81B8
:10245C00FB8923F48063FB817B881B029AB2FB8986
:10246C001343FB817B68FA891A8300BF1437BD467E
:10247C0080BC704780B485B000AF78600B467B8021
:10248C000023FB817B689B8BFB81FB8923F004037E
:10249C00FB81FA897B881343FB817B68FA899A83D9
:1024AC0000BF1437BD4680BC704780B485B000AF08
:1024BC0078600B467B800023FB817B689B8BFB81C8
:1024CC00FB8923F48063FB817B881B029AB2FB8916
:1024DC001343FB817B68FA899A8300BF1437BD468E
:1024EC0080BC704780B485B000AF78600B467B80B1
:1024FC000023FB817B681B8BFB81FB8923F0800312
:10250C00FB81FA897B881343FB817B68FA891A83E8
:10251C0000BF1437BD4680BC704780B485B000AF97
:10252C0078600B467B800023FB817B681B8BFB81D7
:10253C00FB89C3F30E03FB817B881B029AB2FB89D8
:10254C001343FB817B68FA891A8300BF1437BD469D
:10255C0080BC704780B485B000AF78600B467B8040
:10256C000023FB817B689B8BFB81FB8923F0800321
:10257C00FB81FA897B881343FB817B68FA899A83F8
:10258C0000BF1437BD4680BC704780B485B000AF27
:10259C0078600B467B800023FB817B689B8BFB81E7
:1025AC00FB89C3F30E03FB817B881B029AB2FB8968
:1025BC001343FB817B68FA899A8300BF1437BD46AD
:1025CC0080BC704780B485B000AF78600B467B80D0
:1025DC000023FB817B681B8CFB81FB8923F00203AE
:1025EC00FB81FA897B881343FB817B68FA891A8407
:1025FC0000BF1437BD4680BC704780B485B000AFB7
:10260C0078600B467B800023FB817B681B8CFB81F5
:10261C00FB8923F00803FB81FA897B881343FB8138
:10262C007B68FA891A8400BF1437BD4680BC70479A
:10263C0080B485B000AF78600B467B800023FB81B3
:10264C007B681B8CFB81FB8923F02003FB817B883F
:10265C001B019AB2FB891343FB817B68FA891A84AC
:10266C0000BF1437BD4680BC704780B485B000AF46
:10267C0078600B467B800023FB817B681B8CFB8185
:10268C00FB8923F08003FB817B881B019AB2FB89B9
:10269C001343FB817B68FA891A8400BF1437BD464B
:1026AC0080BC704780B485B000AF78600B467B80EF
:1026BC000023FB817B681B8CFB81FB8923F400735B
:1026CC00FB817B881B029AB2FB891343FB817B68DD
:1026DC00FA891A8400BF1437BD4680BC704780B499
:1026EC0085B000AF78600B467B800023FB817B6854
:1026FC001B8CFB81FB8923F40063FB817B881B0211
:10270C009AB2FB891343FB817B68FA891A8400BF58
:10271C001437BD4680BC704780B485B000AF78607C
:10272C000B467B800023FB817B681B8CFB81FB8928
:10273C0023F40053FB817B881B039AB2FB89134360
:10274C00FB817B68FA891A8400BF1437BD4680BCB4
:10275C00704780B485B000AF78600B467B80134621
:10276C003B800023FB817B88012202FA03F3FB816F
:10277C007B681B8C9AB2FB89DB439BB213409AB2E9
:10278C007B681A847B681B8C9AB239887B8801FA27
:10279C0003F39BB213439AB27B681A8400BF1437BD
:1027AC00BD4680BC704780B485B000AF78600B46E6
:1027BC007B8013463B800023FB817B88042202FA3A
:1027CC0003F3FB817B681B8C9AB2FB89DB439BB2C6
:1027DC0013409AB27B681A847B681B8C9AB2398836
:1027EC007B8801FA03F39BB213439AB27B681A8479
:1027FC0000BF1437BD4680BC704780B485B000AFB5
:10280C0078600B467B8013463B800023FB600023E3
:10281C007B817B68FB60FB681833FB607B88012243
:10282C0002FA03F37B817B681B8C9AB27B89DB43B6
:10283C009BB213409AB27B681A847B88002B02D01F
:10284C007B88082B13D17B885B089BB21A46FB68EC
:10285C001344FB60FB681A68FB6822F070021A6074
:10286C00FB6819683A88FB680A431A6018E07B8891
:10287C00043B9BB25B089BB21A46FB681344FB609B
:10288C00FB681A68FB6822F4E0421A60FB681A685D
:10289C003B881B029BB21946FB680A431A6000BFB7
:1028AC0000BF1437BD4680BC704780B483B000AF06
:1028BC0078600B46FB70FB78002B08D07B681B887C
:1028CC009BB243F002039AB27B681A8007E07B68E4
:1028DC001B889BB223F002039AB27B681A8000BF5C
:1028EC000C37BD4680BC704780B483B000AF7860B5
:1028FC000B467B807B88002B08D07B681B889BB2A7
:10290C0043F004039AB27B681A8007E07B681B884B
:10291C009BB223F004039AB27B681A8000BF0C3779
:10292C00BD4680BC704780B483B000AF78600B4666
:10293C00FB70FB78002B08D07B689B889BB243F024
:10294C0080039AB27B689A8007E07B689B889BB275
:10295C0023F080039AB27B689A8000BF0C37BD4687
:10296C0080BC704780B483B000AF78600B467B802E
:10297C007B681B889BB223F008039AB27B681A8091
:10298C007B681B889AB27B8813439AB27B681A8047
:10299C0000BF0C37BD4680BC704780B483B000AF1D
:1029AC0078600B467B807B689B889BB223F070031E
:1029BC009AB27B689A807B689B889AB27B88134317
:1029CC009AB27B689A8000BF0C37BD4680BC7047BA
:1029DC0080B483B000AF78600B467B807B681B892A
:1029EC009BB223F007039AB27B681A817B681B8920
:1029FC009AB27B8813439AB27B681A8100BF0C375A
:102A0C00BD4680BC704780B483B000AF78600B4685
:102A1C007B807B681B899BB223F080039AB27B6816
:102A2C001A817B681B899AB27B8813439AB27B68A4
:102A3C001A8100BF0C37BD4680BC704780B483B090
:102A4C0000AF78600B467B807B687A889A8400BFE5
:102A5C000C37BD4680BC704780B483B000AF786043
:102A6C000B467B807B687A889A8500BF0C37BD4605
:102A7C0080BC704780B483B000AF78600B467B801D
:102A8C007B687A889A8600BF0C37BD4680BC70473D
:102A9C0080B483B000AF78600B467B807B687A880B
:102AAC001A8700BF0C37BD4680BC704780B483B01A
:102ABC0000AF78600B467B807B687A889A8700BF72
:102ACC000C37BD4680BC704780B483B000AF7860D3
:102ADC000B467B807B687A88A3F8402000BF0C37BC
:102AEC00BD4680BC704780B483B000AF78600B46A5
:102AFC007B807B681B8B9BB223F00C039AB27B68A8
:102B0C001A837B681B8B9AB27B8813439AB27B68BF
:102B1C001A8300BF0C37BD4680BC704780B483B0AD
:102B2C0000AF78600B467B807B681B8B9BB223F4D9
:102B3C0040639AB27B681A837B681B8B9AB27B8842
:102B4C001B029BB213439AB27B681A8300BF0C37EB
:102B5C00BD4680BC704780B483B000AF78600B4634
:102B6C007B807B689B8B9BB223F00C039AB27B68B7
:102B7C009A837B689B8B9AB27B8813439AB27B684F
:102B8C009A8300BF0C37BD4680BC704780B483B0BD
:102B9C0000AF78600B467B807B689B8B9BB223F4E9
:102BAC0040639AB27B689A837B689B8B9AB27B88D2
:102BBC001B029BB213439AB27B689A8300BF0C37FB
:102BCC00BD4680BC704780B483B000AF78600B46C4
:102BDC007B807B681B889BB223F440739AB27B6822
:102BEC001A807B681B889AB27B8813439AB27B68E5
:102BFC001A8000BF0C37BD4680BC704780B483B0D0
:102C0C0000AF78607B689B8E9BB218460C37BD4634
:102C1C0080BC704780B483B000AF78607B681B8F3A
:102C2C009BB218460C37BD4680BC704780B483B04D
:102C3C0000AF78607B689B8F9BB218460C37BD4603
:102C4C0080BC704780B483B000AF78607B68B3F809
:102C5C0040309BB218460C37BD4680BC704780B4E0
:102C6C0083B000AF78607B689B8C9BB218460C37A6
:102C7C00BD4680BC704780B483B000AF78607B6881
:102C8C001B8D9BB218460C37BD4680BC704780B478
:102C9C0085B000AF78600B467B800023FB737B68AC
:102CAC001B8A9AB27B8813409BB2002B02D0012363
:102CBC00FB7301E00023FB73FB7B18461437BD4606
:102CCC0080BC704780B483B000AF78600B467B80CB
:102CDC007B88DB439AB27B681A8200BF0C37BD46F7
:102CEC0080BC704780B485B000AF78600B467B80A9
:102CFC000023FB730023BB8100237B817B681B8A31
:102D0C009AB27B881340BB817B689B899AB27B8883
:102D1C0013407B81BB89002B05D07B89002B02D013
:102D2C000123FB7301E00023FB73FB7B1846143774
:102D3C00BD4680BC704780B483B000AF78600B4652
:102D4C007B807B88DB439AB27B681A8200BF0C378E
:102D5C00BD4680BC704780B487B000AFF8600846B1
:102D6C0011461A4603467B810B463B811346FB807A
:102D7C000023BB820023FB82FB681B8C9BB223F0DD
:102D8C0001039AB2FB681A84FB681B8BBB82FB683D
:102D9C001B8CFB82BB8A23F0F303BB82FB881B01D9
:102DAC009AB23B8913439AB2BB8A1343BB82FB682A
:102DBC001C4A934213D0FB681B4A93420FD0FB680A
:102DCC00B3F1804F0BD0FB68184A934207D0FB68D5
:102DDC00174A934203D0FB68164A93420BD1FB8AE5
:102DEC0023F00203FB827A89FB8A13439BB243F0E4
:102DFC000103FB820AE0FB8A23F00A03FB827A8937
:102E0C00FB8A13439BB243F00103FB82FB68BA8A33
:102E1C001A83FB68FA8A1A8400BF1C37BD4680BC33
:102E2C00704700BF002C01400034014000040040FA
:102E3C0000080040000C004080B487B000AFF86080
:102E4C00084611461A4603467B810B463B811346C6
:102E5C00FB800023BB820023FB8200237B82FB6868
:102E6C001B8C9BB223F010039AB2FB681A84FB688C
:102E7C001B8BBB82FB681B8CFB827B891B017B82BF
:102E8C00BB8A23F440731B051B0DBB82FB881B0301
:102E9C009AB2BB8A1343BB823B891B029AB2BB8A90
:102EAC001343BB82FB681C4A934213D0FB681B4A3A
:102EBC0093420FD0FB68B3F1804F0BD0FB68184ADC
:102ECC00934207D0FB68174A934203D0FB68164A1B
:102EDC0093420BD1FB8A23F02003FB827A8AFB8A74
:102EEC0013439BB243F01003FB820AE0FB8A23F0EE
:102EFC00A003FB827A89FB8A13439BB243F0100335
:102F0C00FB82FB68BA8A1A83FB68FA8A1A8400BFB0
:102F1C001C37BD4680BC7047002C0140003401407A
:102F2C000004004000080040000C004080B487B052
:102F3C0000AFF860084611461A4603467B810B46E3
:102F4C003B811346FB800023BB820023FB820023C2
:102F5C007B82FB681B8C9BB223F480739AB2FB6858
:102F6C001A84FB689B8BBB82FB681B8CFB827B8966
:102F7C001B027B82BB8A23F0F303BB82FB881B0101
:102F8C009AB23B8913439AB2BB8A1343BB82FB6848
:102F9C001C4A934213D0FB681B4A93420FD0FB6828
:102FAC00B3F1804F0BD0FB68184A934207D0FB68F3
:102FBC00174A934203D0FB68164A93420BD1FB8A03
:102FCC0023F40073FB827A8AFB8A13439BB243F48B
:102FDC008073FB820AE0FB8A23F42063FB827A89EC
:102FEC00FB8A13439BB243F48073FB82FB68BA8A5F
:102FFC009A83FB68FA8A1A8400BF1C37BD4680BCD2
:10300C00704700BF002C0140003401400004004018
:10301C0000080040000C004080B487B000AFF8609E
:10302C00084611461A4603467B810B463B811346E4
:10303C00FB800023BB820023FB8200237B82FB6886
:10304C001B8C9BB223F480539AB2FB681A84FB68E6
:10305C009B8BBB82FB681B8CFB827B891B037B825B
:10306C00BB8A23F440731B051B0DBB823B891B02DF
:10307C009AB2BB8A1343BB82FB881B039AB2BB8AEE
:10308C001343BB82FB681D4A934213D0FB681C4A56
:10309C0093420FD0FB68B3F1804F0BD0FB68194AF9
:1030AC00934207D0FB68184A934203D0FB68174A37
:1030BC0093420BD1FB8A23F40053FB827A8AFB8A5E
:1030CC0013439BB243F48053FB820CE0FB8A23F442
:1030DC0000735B045B0CFB827A89FB8A13439BB203
:1030EC0043F48053FB82FB68BA8A9A83FB68FA8AA2
:1030FC001A8400BF1C37BD4680BC7047002C0140B1
:10310C00003401400004004000080040000C004066
:10311C0080B483B000AF7860054A7B6843F0BF632E
:10312C0043F40033D36000BF0C37BD4680BC7047FE
:10313C0000ED00E080B487B000AF786000237B61C5
:10314C0000233B610F23FB607B68DB78002B3AD0BC
:10315C00274BDB68DB431B0A03F007037B617B69AE
:10316C00C3F104033B61FA687B6922FA03F3FB6049
:10317C007B685B781A463B6902FA03F37B617B68D8
:10318C009B781A46FB6813407A6913437B617B6911
:10319C001B017B61174A7B681B787969C9B21344A0
:1031AC000A4683F800237B681B7803F01F03114940
:1031BC007A6812785209D2B21046012202FA03F34D
:1031CC0041F820300FE07B681B7803F01F0309499E
:1031DC007A6812785209D2B2104601229A4000F154
:1031EC00200341F8232000BF1C37BD4680BC70472C
:1031FC0000ED00E000E100E080B483B000AF786047
:10320C0039603B6823F0604323F07F0304497A68FC
:10321C0013438B6000BF0C37BD4680BC704700BFAA
:10322C0000ED00E080B483B000AF03460A46FB71AA
:10323C001346BB71BB79002B06D0094B1A69FB797D
:10324C00074913430B6106E0054B1A69FB79DB4315
:10325C00034913400B6100BF0C37BD4680BC70475F
:10326C0000ED00E080B483B000AF78607B68042B85
:10327C0006D1094B1B68084A43F00403136005E0B0
:10328C00054B1B68044A23F00403136000BF0C3782
:10329C00BD4680BC704700BF10E000E080B485B034
:1032AC0000AF78600023FB60094B1B68FB60FB6878
:1032BC0003F03803FB60FA687B681343FB60044A35
:1032CC00FB68136000BF1437BD4680BC704700BF5D
:1032DC000020024080B483B000AF7860084B1B68BC
:1032EC00074A23F008031360054B1A6804497B68EE
:1032FC0013430B6000BF0C37BD4680BC704700BF4A
:10330C000020024080B483B000AF7860084B1B688B
:10331C00074A23F010031360054B1A6804497B68B5
:10332C0013430B6000BF0C37BD4680BC704700BF19
:10333C000020024080B400AF044B054A5A60034B96
:10334C00044A5A6000BFBD4680BC70470020024052
:10335C0023016745AB89EFCD80B400AF044B054A20
:10336C005A60034B044A5A6000BFBD4680BC70478C
:10337C000020024023016745AB89EFCD80B400AF3C
:10338C00044B1B69034A43F08003136100BFBD4625
:10339C0080BC70470020024080B400AF044B1B6916
:1033AC00034A43F08003136100BFBD4680BC7047E5
:1033BC000020024080B584B000AF78600423FB731A
:1033CC004FF4302000F0D0FB0346FB73FB7B042B47
:1033DC001BD1104B1B690F4A43F0020313610D4ABA
:1033EC007B6853610B4B1B690A4A43F04003136122
:1033FC004FF4302000F0B8FB0346FB73054B1A6901
:10340C00044941F6FD7313400B61FB7B18461037E2
:10341C00BD4680BD0020024080B582B000AF0423C1
:10342C00FB714FF4302000F09FFB0346FB71FB79DE
:10343C00042B18D10E4B1B690D4A43F00403136186
:10344C000B4B1B690A4A43F0400313614FF43020C5
:10345C0000F08AFB0346FB71054B1A69044941F6DF
:10346C00FB7313400B61FB7918460837BD4680BDD2
:10347C000020024080B582B000AF0423FB714FF4F2
:10348C00302000F093FB0346FB71FB79042B18D121
:10349C000E4B1B690D4A43F0040313610B4B1B6964
:1034AC000A4A43F0400313614FF4302000F07EFBD6
:1034BC000346FB71054B1A69044941F6FB73134033
:1034CC000B61FB7918460837BD4680BD00200240D1
:1034DC0080B582B000AFA523FB8004237B7100F084
:1034EC006BFA0346002B01D00023FB804FF43020F5
:1034FC0000F03AFB03467B717B79042B45D1254BBD
:10350C00254A9A60234B254A9A60224B1B69214A13
:10351C0043F0200313611F4B1B691E4A43F0400309
:10352C0013614FF4302000F01FFB03467B717B7955
:10353C00042B20D1174B1A69164941F6DF7313403F
:10354C000B61144B1B69134A43F010031361144AAB
:10355C00FB8813804FF4005000F006FB03467B7190
:10356C007B79052B11D00B4B1A690A4941F6EF7385
:10357C0013400B6109E07B79052B06D0054B1A69CA
:10358C00044941F6EF7313400B617B7918460837F9
:10359C00BD4680BD0020024023016745AB89EFCDBD
:1035AC0000F8FF1F80B584B000AF78603960042349
:1035BC00FB730023BB604FF4005000F0D5FA0346B8
:1035CC00FB73FB7B042B2FD11A4B1B69194A43F05D
:1035DC00010313617B683A6892B21A804FF4005071
:1035EC0000F0C2FA0346FB73FB7B042B15D17B68FE
:1035FC000233BB603B681A0CBB6892B21A804FF462
:10360C00005000F0B1FA0346FB730A4B1A690949E2
:10361C0041F6FE7313400B6106E0064B1A6905492F
:10362C0041F6FE7313400B61FB7B18461037BD4609
:10363C0080BD00BF0020024080B584B000AF786030
:10364C000B467B800423FB734FF4005000F08CFA84
:10365C000346FB73FB7B042B15D10D4B1B690C4AEA
:10366C0043F0010313617B687A881A804FF4005091
:10367C0000F07AFA0346FB73054B1A69044941F6CC
:10368C00FE7313400B61FB7B18461037BD4680BDA3
:10369C000020024080B584B000AF78600B46FB7010
:1036AC000423FB734FF4005000F05EFA0346FB73E7
:1036BC00FB7B042B1FD1124B124A9A60104B124AFF
:1036CC009A600F4B1B690E4A43F0100313617B6821
:1036DC00FA7892B21A804FF4005000F045FA034683
:1036EC00FB73FB7B052B06D0054B1A69044941F68D
:1036FC00EF7313400B61FB7B18461037BD4680BD42
:10370C000020024023016745AB89EFCD80B586B020
:10371C0000AF78604FF6FF73BB824FF6FF737B826E
:10372C004FF6FF733B824FF6FF73FB810423FB754F
:10373C007B68DB437B607B689BB2DBB2BB827B68C4
:10374C001B0A9BB2DBB27B827B681B0C9BB2DBB28D
:10375C003B827B681B0EFB814FF4005000F004FA97
:10376C000346FB75FB7D042B4ED12A4B2A4A9A60EB
:10377C00284B2A4A9A60274B1B69264A43F01003B0
:10378C001361BB8AFF2B08D0254ABB8A13814FF4E7
:10379C00005000F0E9F90346FB75FB7D042B0BD1BF
:1037AC007B8AFF2B08D01E4A7B8A53814FF4005032
:1037BC0000F0DAF90346FB75FB7D042B0BD13B8A39
:1037CC00FF2B08D0164A3B8A93814FF4005000F02F
:1037DC00CBF90346FB75FB7D042B0BD1FB89FF2B2F
:1037EC0008D00F4AFB89D3814FF4005000F0BCF98C
:1037FC000346FB75FB7D052B06D0064B1A69054964
:10380C0041F6EF7313400B61FB7D18461837BD462C
:10381C0080BD00BF0020024023016745AB89EFCD7E
:10382C0000F8FF1F80B584B000AF0346FB71042382
:10383C00FB734FF4302000F097F90346FB73FB7BCE
:10384C00042B4CD1284B294A9A60274B284A9A6062
:10385C00254B1B69244A43F020031361224B1B693F
:10386C00214A43F0400313614FF4302000F07CF9FF
:10387C000346FB73FB7B042B27D11B4B1A691A499C
:10388C0041F6DF7313400B61174B1B69164A43F06B
:10389C0010031361FB79002B03D0164B00221A8006
:1038AC0002E0144BA5221A804FF4302000F05CF992
:1038BC000346FB73FB7B052B11D00B4B1A690A4992
:1038CC0041F6EF7313400B6109E0FB7B052B06D02F
:1038DC00054B1A69044941F6DF7313400B61FB7BFE
:1038EC0018461037BD4680BD0020024023016745B5
:1038FC00AB89EFCD00F8FF1F80B584B000AF034655
:10390C00FB800B46BB8013467B800423FB731B4B55
:10391C001B4A9A60194B1B4A9A604FF4005000F0F6
:10392C0023F90346FB73FB7B042B21D1134B1B693F
:10393C00124A43F0100313617A88BB8813439AB27E
:10394C00FB8813439BB2104A43F0F8039BB253809D
:10395C004FF4005000F008F90346FB73FB7B052B7A
:10396C0006D0064B1A69054941F6EF7313400B61FB
:10397C00FB7B18461037BD4680BD00BF00200240BF
:10398C0023016745AB89EFCD00F8FF1F80B400AF72
:10399C00034BDB699B081846BD4680BC704700BFD3
:1039AC000020024080B400AF024B1B6A1846BD4693
:1039BC0080BC70470020024080B483B000AF00236D
:1039CC00FB71084BDB6903F00203002B02D00123CF
:1039DC00FB7101E00023FB71FB7918460C37BD46E7
:1039EC0080BC70470020024080B483B000AF00233D
:1039FC00FB71084B1B6803F02003002B02D0012342
:103A0C00FB7101E00023FB71FB7918460C37BD46B6
:103A1C0080BC70470020024080B483B000AF786057
:103A2C000B46FB70FB78002B06D0094B1A69084932
:103A3C007B6813430B6106E0054B1A697B68DB431B
:103A4C00034913400B6100BF0C37BD4680BC704767
:103A5C000020024080B485B000AF78600023FB7377
:103A6C007B68012B0BD10E4BDB6903F00103002BA0
:103A7C0002D00123FB730DE00023FB730AE0084B1B
:103A8C00DA687B681340002B02D00123FB7301E042
:103A9C000023FB73FB7B18461437BD4680BC704774
:103AAC000020024080B483B000AF7860034A7B688A
:103ABC00D36000BF0C37BD4680BC7047002002406D
:103ACC0080B483B000AF0423FB71114BDB6803F0AF
:103ADC000103012B02D10123FB7113E00C4BDB68BA
:103AEC0003F00403002B02D00223FB710AE0084B05
:103AFC00DB6803F01003002B02D00323FB7101E001
:103B0C000423FB71FB7918460C37BD4680BC70470B
:103B1C000020024080B483B000AF0423FB71114B32
:103B2C00DB6803F00103012B02D10123FB7113E0CD
:103B3C000C4BDB6803F00403002B02D00223FB7157
:103B4C000AE0084BDB6803F01003002B02D00323C0
:103B5C00FB7101E00423FB71FB7918460C37BD4661
:103B6C0080BC70470020024080B584B000AF786004
:103B7C000423FB73FFF7CEFF0346FB7306E0FFF74E
:103B8C00C9FF0346FB737B68013B7B60FB7B012B0E
:103B9C0002D17B68002BF2D17B68002B01D105236D
:103BAC00FB73FB7B18461037BD4680BD80B584B0D7
:103BBC0000AF78600423FB73FFF7ACFF0346FB7385
:103BCC0006E0FFF7A7FF0346FB737B68013B7B60B6
:103BDC00FB7B012B02D17B68002BF2D17B68002B85
:103BEC0001D10523FB73FB7B18461037BD4680BD06
:103BFC0080B400AF134B1B68124A43F001031360EF
:103C0C00104B5A680F49104B13404B600D4B1B68FF
:103C1C000C4A23F0847323F480331360094B1B6824
:103C2C00084A23F480231360064B5B68054A23F48F
:103C3C00FE035360034B4FF41F029A6000BFBD4656
:103C4C0080BC7047001002400000FFF880B483B0C5
:103C5C0000AF7860134B1B68124A23F48033136057
:103C6C00104B1B680F4A23F4802313607B68B3F559
:103C7C00803F04D07B68B3F5802F07D00DE0094B53
:103C8C001B68084A43F48033136006E0054B1B683D
:103C9C00044A43F4A023136000BF00BF0C37BD4699
:103CAC0080BC70470010024080B582B000AF00238A
:103CBC003B600023FB710023BB71312000F014FB2F
:103CCC000346BB713B6801333B603B68B3F5A06FA7
:103CDC0002D0BB79002BF0D0312000F005FB03465D
:103CEC00002B02D00123FB7101E00023FB71FB7957
:103CFC0018460837BD4680BD80B485B000AF03467A
:103D0C00FB710023FB600A4B1B68FB60FB6823F014
:103D1C00F803FB60FB79DB00FA681343FB60044A91
:103D2C00FB68136000BF1437BD4680BC704700BFF2
:103D3C000010024080B483B000AF0346FB71044A0C
:103D4C00FB79136000BF0C37BD4680BC704700BFC9
:103D5C000000424280B485B000AF78603960002327
:103D6C00FB600A4B5B68FB60FB6823F47C13FB6015
:103D7C007A683B681343FA681343FB60034AFB6899
:103D8C00536000BF1437BD4680BC70470010024022
:103D9C0080B483B000AF0346FB71044AFB79136017
:103DAC0000BF0C37BD4680BC704700BF600042426C
:103DBC0080B485B000AF78600023FB60094B5B6872
:103DCC00FB60FB6823F00303FB60FA687B6813431A
:103DDC00FB60044AFB68536000BF1437BD4680BCCF
:103DEC00704700BF0010024080B400AF044B5B680A
:103DFC00DBB203F00C03DBB21846BD4680BC704747
:103E0C000010024080B485B000AF78600023FB60E6
:103E1C00094B5B68FB60FB6823F0F003FB60FA68FE
:103E2C007B681343FB60044AFB68536000BF143784
:103E3C00BD4680BC704700BF0010024080B485B006
:103E4C0000AF78600023FB60094B5B68FB60FB688C
:103E5C0023F4E063FB60FA687B681343FB60044A5D
:103E6C00FB68536000BF1437BD4680BC704700BF71
:103E7C000010024080B485B000AF78600023FB6076
:103E8C00094B5B68FB60FB6823F46053FB607B6849
:103E9C00DB00FA681343FB60034AFB68536000BF06
:103EAC001437BD4680BC70470010024080B483B00C
:103EBC0000AF03460A46FB711346BB71BB79002B5E
:103ECC0008D00C4B1B78DAB20A49FB791343DBB2EE
:103EDC000B7009E0074B1B78DAB2FB79DB43DBB2E2
:103EEC0004491340DBB20B7000BF0C37BD4680BCDD
:103EFC00704700BF0910024080B483B000AF7860F7
:103F0C00034A7B68136000BF0C37BD4680BC70470A
:103F1C00D800424280B485B000AF78600023FB60CB
:103F2C00094B5B68FB60FB6823F44043FB60FA6859
:103F3C007B681343FB60044AFB68536000BF143773
:103F4C00BD4680BC704700BF0010024080B483B0F7
:103F5C0000AF0346FB710C4B00221A700A4B002277
:103F6C001A70FB79012B02D0042B04D007E0064B0E
:103F7C0001221A7003E0044B05221A7000BF00BF27
:103F8C000C37BD4680BC70472010024080B483B013
:103F9C0000AF0346FB71044AFB79136000BF0C377A
:103FAC00BD4680BC704700BF8004424280B483B0E1
:103FBC0000AF7860054B1A6A04497B6813430B62A7
:103FCC0000BF0C37BD4680BC704700BF00100240DC
:103FDC0080B483B000AF0346FB71044AFB791360D5
:103FEC0000BF0C37BD4680BC704700BF3C0442424A
:103FFC0080B487B000AF786000237B6100233B6105
:10400C000023FB600023BB604F4B5B6803F00C0389
:10401C007B617B69082B11D07B69082B3AD87B69B3
:10402C00002B03D07B69042B04D033E07B68474A18
:10403C001A6033E07B68454A1A602FE0424B5B689C
:10404C0003F470133B61404B5B6803F48033FB60FB
:10405C003B699B0C02333B61FB68002B06D13B692F
:10406C003B4A03FB02F27B681A6017E0364B5B6835
:10407C0003F40033002B06D03B69354A03FB02F2F4
:10408C007B681A600AE03B69304A03FB02F27B68EA
:10409C001A6003E07B682D4A1A6000BF2A4B5B68EC
:1040AC0003F0F0037B617B691B097B61294A7B6907
:1040BC0013441B78DBB2BB607B681A68BB68DA40C0
:1040CC007B685A60204B5B6803F4E0637B617B691F
:1040DC001B0A7B611F4A7B6913441B78DBB2BB60F4
:1040EC007B685A68BB68DA407B689A60164B5B68E1
:1040FC0003F460537B617B69DB0A7B61154A7B6946
:10410C0013441B78DBB2BB607B685A68BB68DA402F
:10411C007B68DA600C4B5B6803F440437B617B6922
:10412C009B0B7B610C4A7B6913441B78DBB2BB6035
:10413C007B68DA68BB68B2FBF3F27B681A6100BF7C
:10414C001C37BD4680BC70470010024000127A003C
:10415C0000093D00000000201000002080B483B056
:10416C0000AF78600B46FB70FB78002B06D0094B38
:10417C005A6908497B6813434B6106E0054B5A6941
:10418C007B68DB43034913404B6100BF0C37BD46D2
:10419C0080BC70470010024080B483B000AF7860E0
:1041AC000B46FB70FB78002B06D0094B9A6908492B
:1041BC007B6813438B6106E0054B9A697B68DB4394
:1041CC00034913408B6100BF0C37BD4680BC704760
:1041DC000010024080B483B000AF78600B46FB70D7
:1041EC00FB78002B06D0094BDA6908497B6813432E
:1041FC00CB6106E0054BDA697B68DB43034913406E
:10420C00CB6100BF0C37BD4680BC7047001002402C
:10421C0080B483B000AF78600B46FB70FB78002B4A
:10422C0006D0094BDA6808497B681343CB6006E07B
:10423C00054BDA687B68DB4303491340CB6000BF56
:10424C000C37BD4680BC70470010024080B483B070
:10425C0000AF78600B46FB70FB78002B06D0094B47
:10426C001A6908497B6813430B6106E0054B1A6910
:10427C007B68DB43034913400B6100BF0C37BD4621
:10428C0080BC70470010024080B483B000AF03467E
:10429C00FB71044AFB79136000BF0C37BD4680BC30
:1042AC00704700BF4004424280B483B000AF034665
:1042BC00FB71044AFB79136000BF0C37BD4680BC10
:1042CC00704700BF4C00424280B483B000AF03463D
:1042DC00FB71044AFB79137000BF0C37BD4680BCE0
:1042EC00704700BF0710024080B487B000AF034690
:1042FC00FB710023FB6000237B610023FB74FB79C3
:10430C005B09DBB2FB60FB68012B03D1124B1B6812
:10431C007B6109E0FB68022B03D10F4B1B6A7B61AD
:10432C0002E00D4B5B6A7B61FB7903F01F03FB60C2
:10433C007A69FB6822FA03F303F00103002B02D025
:10434C000123FB7401E00023FB74FB7C18461C3733
:10435C00BD4680BC704700BF0010024080B400AF67
:10436C00044B5B6A034A43F08073536200BFBD4643
:10437C0080BC70470010024080B485B000AF03468B
:10438C00FB710023FB73084B9A68FB791340002BDD
:10439C0002D00123FB7301E00023FB73FB7B184667
:1043AC001437BD4680BC70470010024080B483B007
:1043BC0000AF0346FB71044AFB79137000BF0C3746
:1043CC00BD4680BC704700BF0A100240FFF7FEBF1D
:1043DC000A480B490B4A9142BCBF50F8043B41F8C8
:1043EC00043BF8DB084809494FF000028842BCBF87
:1043FC0040F8042BFAE7FBF7A9FEFEE71C44000883
:10440C0000000020140000201400002014000020E4
:10441C00000000000102030401020304060708095E
:04442C000204060878
:04000005080043DDCF
:00000001FF
