:020000040800F2
:10000000005000204D260008492600084926000817
:10001000492600084926000849260008000000007B
:100020000000000000000000000000004926000859
:10003000492600080000000049260008492600085B
:1000400049260008492600084926000849260008D4
:1000500049260008492600084926000849260008C4
:1000600049260008492600084926000849260008B4
:1000700049260008492600084926000849260008A4
:100080004926000849260008ED0000084926000816
:100090004926000849260008492600084926000884
:1000A0004926000849260008492600084926000874
:1000B0004926000849260008492600084926000864
:1000C0004926000849260008492600084926000854
:1000D0004926000849260008492600084926000844
:0C00E000492600084926000849260008AF
:1000EC0098B500AF214B1B680133204A13604FF4C5
:1000FC0008711F4801F004F90346002B33D04FF46C
:10010C0080411C4800F0E7FA1B4B1B78DBB21C4605
:10011C00174800F0D2FE03461A46184B23F8142059
:10012C00154B1B78DBB20133DBB2134A1946117045
:10013C00022B03D0104B1B78DBB200E000230E4ADD
:10014C0013700D4B1B78D9B205230122084800F01F
:10015C00D0FD4FF40871064801F0FCF84FF48041D3
:10016C00044800F0C6FA00BF98BD00BF0000002094
:10017C000024014000100140180000201C00002049
:10018C0080B485B000AF78600023FB6003E000BF53
:10019C00FB680133FB607B6842F6E06202FB03F311
:1001AC00FA689A42F3D300BF00BF1437BD4680BC37
:1001BC00704780B500AF0121084800F02CFD00BF4E
:1001CC000221064801F074F80346002BF8D00348CE
:1001DC0000F073FE0346184680BD00BF00240140AA
:1001EC0080B500AF00F08EF800F01AF800F0C8F8F7
:1001FC0000F03EF80121074800F00DFD4FF40051CE
:10020C00054800F068FA054B1B680133034A13607C
:10021C00F9E700BF0024014000100140200000203D
:10022C0080B582B000AF0121042002F0EDF8032369
:10023C00BB800023FB713B1D19460B4800F032F9C3
:10024C000121102002F0E0F84FF4C043BB801023D2
:10025C00FB710323BB713B1D1946044800F022F9C6
:10026C0000BF0837BD4680BD0008014000100140AA
:10027C0080B586B000AF01214FF4007002F0C4F8D5
:10028C004FF4004001F07EFF00237B6000233B72A3
:10029C0001237B724FF46023FB6000233B6102233C
:1002AC003B753B1D1946164800F0A4FB05230122A3
:1002BC000021134800F01DFD01224FF40871104875
:1002CC0000F03BFC01210E4800F001FC0C4800F052
:1002DC0056FC00BF0A4800F061FC0346002BF9D124
:1002EC00074800F072FC00BF054800F07DFC034697
:1002FC00002BF9D100BF00BF1837BD4680BD00BF31
:10030C000024014080B582B000AF01F0A9FD4FF48C
:10031C00803001F0D3FD01F0FFFD0346FB71FB794A
:10032C00012B29D1022001F0F1F8102001F022F963
:10033C00002001F09FFE4FF4806001F0B7FE00201A
:10034C0001F0D0FE4FF4E0114FF4803001F03AFE92
:10035C00012001F055FE00BF392002F0FDF80346E4
:10036C00002BF9D0022001F05BFE00BF01F074FEFF
:10037C000346082BFAD100E0FEE70837BD4680BDE6
:10038C0080B582B000AF12233B7100237B71002338
:10039C00BB710123FB713B1D184601F003F800BF34
:1003AC000837BD4680BD00BF80B582B000AF786015
:1003BC007B682F4A934208D10121042002F060F897
:1003CC000021042002F05CF84EE07B68294A93423D
:1003DC0008D10121082002F053F80021082002F076
:1003EC004FF841E07B68244A934208D10121102048
:1003FC0002F046F80021102002F042F834E07B684D
:10040C001E4A934208D10121202002F039F8002124
:10041C00202002F035F827E07B68194A934208D176
:10042C000121402002F02CF80021402002F028F895
:10043C001AE07B68134A934208D10121802002F014
:10044C001FF80021802002F01BF80DE07B680E4A9B
:10045C00934209D101214FF4807002F011F8002170
:10046C004FF4807002F00CF800BF0837BD4680BD19
:10047C0000080140000C0140001001400014014034
:10048C0000180140001C01400020014080B500AF65
:10049C000121012001F0F4FF0021012001F0F0FF07
:1004AC0000BF80BD80B489B000AF78603960002394
:1004BC00FB6100233B610023BB610023FB60002335
:1004CC007B610023BB603B68DB7803F00F03FB61AF
:1004DC003B68DB7803F01003002B05D03B689B785E
:1004EC001A46FB691343FB613B681B88DBB2002B8C
:1004FC0044D07B681B687B610023BB6138E0012220
:10050C00BB6902FA03F3FB603B681B881A46FB6865
:10051C0013403B613A69FB689A4226D1BB699B0048
:10052C00FB600F22FB6802FA03F3BB60BB68DB4382
:10053C007A6913407B61FA69FB6802FA03F37A6902
:10054C0013437B613B68DB78282B05D10122BB6907
:10055C009A407B685A6108E03B68DB78482B04D1F1
:10056C000122BB699A407B681A61BB690133BB618C
:10057C00BB69072BC3D97B687A691A603B681B88F7
:10058C00FF2B46D97B685B687B610023BB613AE03B
:10059C00BB690833012202FA03F3FB603B681B883A
:1005AC001A46FB6813403B613A69FB689A4227D1B3
:1005BC00BB699B00FB600F22FB6802FA03F3BB6074
:1005CC00BB68DB437A6913407B61FA69FB6802FA0A
:1005DC0003F37A6913437B613B68DB78282B05D1E5
:1005EC00BB69083301229A407B685A613B68DB780F
:1005FC00482B05D1BB69083301229A407B681A61EC
:10060C00BB690133BB61BB69072BC1D97B687A69B4
:10061C005A6000BF2437BD4680BC704780B483B09D
:10062C0000AF78607B684FF6FF721A807B680222FD
:10063C009A707B680422DA7000BF0C37BD4680BC10
:10064C00704780B485B000AF78600B467B80002388
:10065C00FB737B689A687B881340002B02D00123C4
:10066C00FB7301E00023FB73FB7B18461437BD467C
:10067C0080BC704780B483B000AF78607B689B68A7
:10068C009BB218460C37BD4680BC704780B485B011
:10069C0000AF78600B467B800023FB737B68DA68C5
:1006AC007B881340002B02D00123FB7301E0002355
:1006BC00FB73FB7B18461437BD4680BC704780B477
:1006CC0083B000AF78607B68DB689BB218460C3750
:1006DC00BD4680BC704780B483B000AF78600B46D9
:1006EC007B807A887B681A6100BF0C37BD4680BC62
:1006FC00704780B483B000AF78600B467B807A88FB
:10070C007B685A6100BF0C37BD4680BC704780B413
:10071C0083B000AF78600B467B8013467B707B7890
:10072C00002B03D07A887B681A6102E07A887B6898
:10073C005A6100BF0C37BD4680BC704780B483B093
:10074C0000AF78600B467B807A887B68DA6000BFEC
:10075C000C37BD4680BC704780B485B000AF786064
:10076C000B467B804FF48033FB607B88FA68134325
:10077C00FB607B68FA689A617A887B689A617B680F
:10078C00FA689A617B689B69FB607B689B69FB607C
:10079C0000BF1437BD4680BC704780B485B000AF35
:1007AC0003460A46FB711346BB710023FB600C4BDE
:1007BC001B68FB60FA684FF680731340FB60FB7993
:1007CC001B01FA681343FB60BB79FA681343FB60A7
:1007DC00034AFB68136000BF1437BD4680BC7047EA
:1007EC000000014080B483B000AF0346FB71044AA3
:1007FC00FB79136000BF0C37BD4680BC704700BF4F
:10080C001C00204280B487B000AF78600B46FB70B0
:10081C0000233B610023FB6000237B610023BB6052
:10082C007B68002B03DA2E4BDB697B6102E02C4BDF
:10083C005B687B617B681B0C03F00F03BB607B6800
:10084C009BB23B617B6803F44013B3F5401F0AD1A4
:10085C007B6923F070637B61214B5B68204A23F03A
:10086C007063536021E07B6803F48013002B0ED07F
:10087C000322BB6802FA03F3FB60FB68DB437A6973
:10088C0013407B617B6943F070637B610DE07B6897
:10089C005B0D1B013A6902FA03F3DB437A691340DF
:1008AC007B617B6943F070637B61FB78002B08D024
:1008BC007B685B0D1B013A6902FA03F37A691343F7
:1008CC007B617B68002B03DA054A7B69D36102E00C
:1008DC00034A7B69536000BF1C37BD4680BC704720
:1008EC000000014080B485B000AF03460A46FB719E
:1008FC001346BB710023FB60BB7903F003039B0021
:10090C000F2202FA03F3FB60154ABB799B08DBB29A
:10091C00023352F82320FB68DB431148B97989086C
:10092C00C9B21A408B1C40F823200D4ABB799B0896
:10093C00DBB2023352F82320F979BB7903F00303BD
:10094C009B0001FA03F30648B9798908C9B21A4326
:10095C008B1C40F8232000BF1437BD4680BC704769
:10096C000000014080B483B000AF7860034A7B681C
:10097C00136000BF0C37BD4680BC7047DC002042C2
:10098C0080B582B000AF78607B68174A93420AD179
:10099C0001214FF4007001F073FD00214FF4007041
:1009AC0001F06EFD1CE07B68104A93420AD10121D4
:1009BC004FF4806001F064FD00214FF4806001F081
:1009CC005FFD0DE07B680A4A934209D101214FF487
:1009DC00004001F055FD00214FF4004001F050FDA6
:1009EC0000BF0837BD4680BD0024014000280140EF
:1009FC00003C014080B485B000AF786039600023C2
:100A0C00FB600023FB727B685B68FB60FB6823F474
:100A1C00702323F48073FB603B681A683B681B7976
:100A2C001B021343FA681343FB607B68FA685A6035
:100A3C007B689B68FB60FA68164B1340FB603B6855
:100A4C00DA683B689B681A433B685B795B0013432D
:100A5C00FA681343FB607B68FA689A607B68DB6A10
:100A6C00FB60FB6823F47003FB603B681B7C013B61
:100A7C00DAB2FB7A1343FB72FB7A1B05FA68134359
:100A8C00FB607B68FA68DA6200BF1437BD4680BC35
:100A9C00704700BFFDF7F1FF80B483B000AF786002
:100AAC007B6800221A607B6800221A717B68002226
:100ABC005A717B6800229A607B680022DA607B683E
:100ACC0001221A7400BF0C37BD4680BC704780B43D
:100ADC0083B000AF78600B46FB70FB78002B06D020
:100AEC007B689B6843F001027B689A6005E07B6839
:100AFC009B6823F001027B689A6000BF0C37BD46EF
:100B0C0080BC704780B483B000AF78600B46FB703C
:100B1C00FB78002B06D07B689B6843F480727B6863
:100B2C009A6005E07B689B6823F480727B689A600E
:100B3C0000BF0C37BD4680BC704780B485B000AF99
:100B4C0078600B467B8013467B700023FB737B889D
:100B5C00FB737B78002B06D07B685A68FB7B1A43AF
:100B6C007B685A6006E07B685A68FB7BDB431A4063
:100B7C007B685A6000BF1437BD4680BC704780B498
:100B8C0083B000AF78607B689B6843F008027B6899
:100B9C009A6000BF0C37BD4680BC704780B485B0EE
:100BAC0000AF78600023FB737B689B6803F008033D
:100BBC00002B02D00123FB7301E00023FB73FB7BB2
:100BCC0018461437BD4680BC704780B483B000AF64
:100BDC0078607B689B6843F004027B689A6000BF76
:100BEC000C37BD4680BC704780B485B000AF7860D0
:100BFC000023FB737B689B6803F00403002B02D07B
:100C0C000123FB7301E00023FB73FB7B18461437B5
:100C1C00BD4680BC704780B483B000AF78600B4693
:100C2C00FB70FB78002B06D07B689B6843F4A0021A
:100C3C007B689A6005E07B689B6823F4A0027B6864
:100C4C009A6000BF0C37BD4680BC704780B485B03D
:100C5C0000AF78600023FB737B689B6803F4800310
:100C6C00002B02D00123FB7301E00023FB73FB7B01
:100C7C0018461437BD4680BC704780B485B000AFB1
:100C8C0078600B46FB700023FB600023BB607B6825
:100C9C005B68FB60FB6823F46043FB60FB78013B03
:100CAC00BB60BB685B03FA681343FB607B68FA6844
:100CBC005A6000BF1437BD4680BC704780B483B007
:100CCC0000AF78600B46FB70FB78002B06D07B687E
:100CDC005B6843F400627B685A6005E07B685B6884
:100CEC0023F400627B685A6000BF0C37BD4680BCA1
:100CFC00704780B485B000AF7860084611461A463C
:100D0C000346FB700B46BB7013467B700023FB60E5
:100D1C000023BB60FB78092B23D97B68DB68FB6065
:100D2C00FB78A3F10A0213465B001344072202FA74
:100D3C0003F3BB60BB68DB43FA681340FB60797854
:100D4C00FB78A3F10A0213465B00134401FA03F388
:100D5C00BB60FA68BB681343FB607B68FA68DA60B7
:100D6C001EE07B681B69FB60FA7813465B0013443A
:100D7C00072202FA03F3BB60BB68DB43FA6813403B
:100D8C00FB607978FA7813465B00134401FA03F39D
:100D9C00BB60FA68BB681343FB607B68FA681A6136
:100DAC00BB78062B21D87B685B6BFB60BB785A1E2B
:100DBC0013469B0013441F2202FA03F3BB60BB686B
:100DCC00DB43FA681340FB60F978BB785A1E134674
:100DDC009B00134401FA03F3BB60FA68BB6813432E
:100DEC00FB607B68FA685A6347E0BB780C2B21D810
:100DFC007B681B6BFB60BB78DA1F13469B001344AC
:100E0C001F2202FA03F3BB60BB68DB43FA68134092
:100E1C00FB60F978BB78DA1F13469B00134401FA88
:100E2C0003F3BB60FA68BB681343FB607B68FA682A
:100E3C001A6322E07B68DB6AFB60BB78A3F10D02CE
:100E4C0013469B0013441F2202FA03F3BB60BB68DA
:100E5C00DB43FA681340FB60F978BB78A3F10D0211
:100E6C0013469B00134401FA03F3BB60FA68BB689A
:100E7C001343FB607B68FA68DA6200BF1437BD4627
:100E8C0080BC704780B483B000AF78600B46FB70B9
:100E9C00FB78002B06D07B689B6843F480127B6840
:100EAC009A6005E07B689B6823F480127B689A60EB
:100EBC0000BF0C37BD4680BC704780B483B000AF18
:100ECC0078607B68DB6C9BB218460C37BD4680BCE7
:100EDC00704780B400AF034B1B681846BD4680BCFE
:100EEC00704700BF4C24014080B483B000AF7860E1
:100EFC000B46FB70FB78002B06D07B685B6843F4D9
:100F0C0080627B685A6005E07B685B6823F48062D2
:100F1C007B685A6000BF0C37BD4680BC704780B4FC
:100F2C0083B000AF78600B46FB70FB78002B06D0CB
:100F3C007B685B6843F480527B685A6005E07B6891
:100F4C005B6823F480527B685A6000BF0C37BD4647
:100F5C0080BC704780B485B000AF786039600023E6
:100F6C00FB607B689B68FB60FB6823F4E043FB60E1
:100F7C00FA683B681343FB607B68FA689A6000BFB1
:100F8C001437BD4680BC704780B483B000AF786026
:100F9C000B46FB70FB78002B06D07B689B6843F4F8
:100FAC0000427B689A6005E07B689B6823F40042F2
:100FBC007B689A6000BF0C37BD4680BC704780B41C
:100FCC0083B000AF78600B46FB70FB78002B06D02B
:100FDC007B689B6843F402127B689A6005E07B682F
:100FEC009B6823F402127B689A6000BF0C37BD46E5
:100FFC0080BC704780B485B000AF78600023FB7371
:10100C007B689B6803F40013002B02D00123FB7355
:10101C0001E00023FB73FB7B18461437BD4680BCF4
:10102C00704780B487B000AF7860084611461A4606
:10103C000346FB700B46BB7013467B7000237B6131
:10104C0000233B610023FB60FB78092B23D97B68D1
:10105C00DB687B61FB78A3F10A0213465B00134447
:10106C00072202FA03F33B613B69DB437A691340C5
:10107C007B617978FB78A3F10A0213465B00134479
:10108C0001FA03F33B617A693B6913437B617B682B
:10109C007A69DA601EE07B681B697B61FA7813461B
:1010AC005B001344072202FA03F33B613B69DB4309
:1010BC007A6913407B617978FA7813465B001344A4
:1010CC0001FA03F33B617A693B6913437B617B68EB
:1010DC007A691A617B689B6B7B617B691B0D03F0E2
:1010EC000303FB60FB68DBB2BA78D31ADBB20233C2
:1010FC00DBB21A4613469B0013441F2202FA03F379
:10110C003B613B69DB437A6913407B61FA78FB688E
:10111C00DBB2B978CB1ADBB20233DBB219460B4621
:10112C009B000B4402FA03F33B617A693B6913435E
:10113C007B617B687A699A6300BF1C37BD4680BCB3
:10114C00704780B485B000AF78600B46FB7000230D
:10115C00FB600023BB607B689B6BFB60FB6823F42C
:10116C004013FB60FB78013BBB60BB681B05FA6856
:10117C001343FB607B68FA689A6300BF1437BD4663
:10118C0080BC704780B485B000AF78600B46FB70B4
:10119C0013463B800023FB607B68FB60FA78FB689E
:1011AC001344FB60FB681A463B88136000BF14377E
:1011BC00BD4680BC704780B485B000AF78600B46EC
:1011CC00FB700023FB607B68FB60FA78FB681344C0
:1011DC002833FB60FB681B689BB218461437BD466E
:1011EC0080BC704780B485B000AF78603960002354
:1011FC00FB607B685B68FB60FB6823F4400323F4B3
:10120C000073FB60FA683B681343FB607B68FA6809
:10121C005A6000BF1437BD4680BC704780B483B0A1
:10122C0000AF78600B467B8013463B807A887B68E6
:10123C005A623A887B689A6200BF0C37BD4680BC04
:10124C00704780B485B000AF78600B46FB7000230C
:10125C00FB607B685B68FB60FB6823F01F03FB6033
:10126C00FB78FA681343FB607B68FA685A6000BF2E
:10127C001437BD4680BC704780B483B000AF0346C2
:10128C00FB71FB79002B06D0084B9B68074A43F493
:10129C000003936005E0054B9B68044A23F40003AC
:1012AC00936000BF0C37BD4680BC704700240140E2
:1012BC0080B485B000AF78600B46FB700023FB73E5
:1012CC007B681A68FB781340002B02D00123FB7358
:1012DC0001E00023FB73FB7B18461437BD4680BC32
:1012EC00704780B483B000AF78600B46FB70FB781E
:1012FC00DA437B681A6000BF0C37BD4680BC704770
:10130C0080B487B000AF78600B467B800023FB7500
:10131C0000233B610023FB607B881B0A9BB23B6173
:10132C007B685B687A88D2B21340FB607B681A6872
:10133C003B691340002B05D0FB68002B02D0012326
:10134C00FB7501E00023FB75FB7D18461C37BD4681
:10135C0080BC704780B485B000AF78600B467B8052
:10136C000023FB737B881B0A9BB2FB73FB7BDA436A
:10137C007B681A6000BF1437BD4680BC704700BF45
:10138C0080B483B000AF7860054A7B6843F0BF63DC
:10139C0043F40033D36000BF0C37BD4680BC7047AC
:1013AC0000ED00E080B487B000AF786000237B6173
:1013BC0000233B610F23FB607B68DB78002B3AD06A
:1013CC00274BDB68DB431B0A03F007037B617B695C
:1013DC00C3F104033B61FA687B6922FA03F3FB60F7
:1013EC007B685B781A463B6902FA03F37B617B6886
:1013FC009B781A46FB6813407A6913437B617B69BF
:10140C001B017B61174A7B681B787969C9B213444D
:10141C000A4683F800237B681B7803F01F031149ED
:10142C007A6812785209D2B21046012202FA03F3FA
:10143C0041F820300FE07B681B7803F01F0309494B
:10144C007A6812785209D2B2104601229A4000F101
:10145C00200341F8232000BF1C37BD4680BC7047D9
:10146C0000ED00E000E100E080B483B000AF7860F4
:10147C0039603B6823F0604323F07F0304497A68AA
:10148C0013438B6000BF0C37BD4680BC704700BF58
:10149C0000ED00E080B483B000AF03460A46FB7158
:1014AC001346BB71BB79002B06D0094B1A69FB792B
:1014BC00074913430B6106E0054B1A69FB79DB43C3
:1014CC00034913400B6100BF0C37BD4680BC70470D
:1014DC0000ED00E080B483B000AF78607B68042B33
:1014EC0006D1094B1B68084A43F00403136005E05E
:1014FC00054B1B68044A23F00403136000BF0C3730
:10150C00BD4680BC704700BF10E000E080B485B0E1
:10151C0000AF78600023FB60094B1B68FB60FB6825
:10152C0003F03803FB60FA687B681343FB60044AE2
:10153C00FB68136000BF1437BD4680BC704700BF0A
:10154C000020024080B483B000AF7860084B1B6869
:10155C00074A23F008031360054B1A6804497B689B
:10156C0013430B6000BF0C37BD4680BC704700BFF7
:10157C000020024080B483B000AF7860084B1B6839
:10158C00074A23F010031360054B1A6804497B6863
:10159C0013430B6000BF0C37BD4680BC704700BFC7
:1015AC000020024080B400AF044B054A5A60034B44
:1015BC00044A5A6000BFBD4680BC70470020024000
:1015CC0023016745AB89EFCD80B400AF044B054ACE
:1015DC005A60034B044A5A6000BFBD4680BC70473A
:1015EC000020024023016745AB89EFCD80B400AFEA
:1015FC00044B1B69034A43F08003136100BFBD46D3
:10160C0080BC70470020024080B400AF044B1B69C3
:10161C00034A43F08003136100BFBD4680BC704792
:10162C000020024080B584B000AF78600423FB73C7
:10163C004FF4302000F0D0FB0346FB73FB7B042BF4
:10164C001BD1104B1B690F4A43F0020313610D4A67
:10165C007B6853610B4B1B690A4A43F040031361CF
:10166C004FF4302000F0B8FB0346FB73054B1A69AE
:10167C00044941F6FD7313400B61FB7B1846103790
:10168C00BD4680BD0020024080B582B000AF04236F
:10169C00FB714FF4302000F09FFB0346FB71FB798C
:1016AC00042B18D10E4B1B690D4A43F00403136134
:1016BC000B4B1B690A4A43F0400313614FF4302073
:1016CC0000F08AFB0346FB71054B1A69044941F68D
:1016DC00FB7313400B61FB7918460837BD4680BD80
:1016EC000020024080B582B000AF0423FB714FF4A0
:1016FC00302000F093FB0346FB71FB79042B18D1CF
:10170C000E4B1B690D4A43F0040313610B4B1B6911
:10171C000A4A43F0400313614FF4302000F07EFB83
:10172C000346FB71054B1A69044941F6FB731340E0
:10173C000B61FB7918460837BD4680BD002002407E
:10174C0080B582B000AFA523FB8004237B7100F031
:10175C006BFA0346002B01D00023FB804FF43020A2
:10176C0000F03AFB03467B717B79042B45D1254B6A
:10177C00254A9A60234B254A9A60224B1B69214AC1
:10178C0043F0200313611F4B1B691E4A43F04003B7
:10179C0013614FF4302000F01FFB03467B717B7903
:1017AC00042B20D1174B1A69164941F6DF731340ED
:1017BC000B61144B1B69134A43F010031361144A59
:1017CC00FB8813804FF4005000F006FB03467B713E
:1017DC007B79052B11D00B4B1A690A4941F6EF7333
:1017EC0013400B6109E07B79052B06D0054B1A6978
:1017FC00044941F6EF7313400B617B7918460837A7
:10180C00BD4680BD0020024023016745AB89EFCD6A
:10181C0000F8FF1F80B584B000AF786039600423F6
:10182C00FB730023BB604FF4005000F0D5FA034665
:10183C00FB73FB7B042B2FD11A4B1B69194A43F00A
:10184C00010313617B683A6892B21A804FF400501E
:10185C0000F0C2FA0346FB73FB7B042B15D17B68AB
:10186C000233BB603B681A0CBB6892B21A804FF40F
:10187C00005000F0B1FA0346FB730A4B1A69094990
:10188C0041F6FE7313400B6106E0064B1A690549DD
:10189C0041F6FE7313400B61FB7B18461037BD46B7
:1018AC0080BD00BF0020024080B584B000AF7860DE
:1018BC000B467B800423FB734FF4005000F08CFA32
:1018CC000346FB73FB7B042B15D10D4B1B690C4A98
:1018DC0043F0010313617B687A881A804FF400503F
:1018EC0000F07AFA0346FB73054B1A69044941F67A
:1018FC00FE7313400B61FB7B18461037BD4680BD51
:10190C000020024080B584B000AF78600B46FB70BD
:10191C000423FB734FF4005000F05EFA0346FB7394
:10192C00FB7B042B1FD1124B124A9A60104B124AAC
:10193C009A600F4B1B690E4A43F0100313617B68CE
:10194C00FA7892B21A804FF4005000F045FA034630
:10195C00FB73FB7B052B06D0054B1A69044941F63A
:10196C00EF7313400B61FB7B18461037BD4680BDEF
:10197C000020024023016745AB89EFCD80B586B0CE
:10198C0000AF78604FF6FF73BB824FF6FF737B821C
:10199C004FF6FF733B824FF6FF73FB810423FB75FD
:1019AC007B68DB437B607B689BB2DBB2BB827B6872
:1019BC001B0A9BB2DBB27B827B681B0C9BB2DBB23B
:1019CC003B827B681B0EFB814FF4005000F004FA45
:1019DC000346FB75FB7D042B4ED12A4B2A4A9A6099
:1019EC00284B2A4A9A60274B1B69264A43F010035E
:1019FC001361BB8AFF2B08D0254ABB8A13814FF495
:101A0C00005000F0E9F90346FB75FB7D042B0BD16C
:101A1C007B8AFF2B08D01E4A7B8A53814FF40050DF
:101A2C0000F0DAF90346FB75FB7D042B0BD13B8AE6
:101A3C00FF2B08D0164A3B8A93814FF4005000F0DC
:101A4C00CBF90346FB75FB7D042B0BD1FB89FF2BDC
:101A5C0008D00F4AFB89D3814FF4005000F0BCF939
:101A6C000346FB75FB7D052B06D0064B1A69054911
:101A7C0041F6EF7313400B61FB7D18461837BD46DA
:101A8C0080BD00BF0020024023016745AB89EFCD2C
:101A9C0000F8FF1F80B584B000AF0346FB71042330
:101AAC00FB734FF4302000F097F90346FB73FB7B7C
:101ABC00042B4CD1284B294A9A60274B284A9A6010
:101ACC00254B1B69244A43F020031361224B1B69ED
:101ADC00214A43F0400313614FF4302000F07CF9AD
:101AEC000346FB73FB7B042B27D11B4B1A691A494A
:101AFC0041F6DF7313400B61174B1B69164A43F019
:101B0C0010031361FB79002B03D0164B00221A80B3
:101B1C0002E0144BA5221A804FF4302000F05CF93F
:101B2C000346FB73FB7B052B11D00B4B1A690A493F
:101B3C0041F6EF7313400B6109E0FB7B052B06D0DC
:101B4C00054B1A69044941F6DF7313400B61FB7BAB
:101B5C0018461037BD4680BD002002402301674562
:101B6C00AB89EFCD00F8FF1F80B584B000AF034602
:101B7C00FB800B46BB8013467B800423FB731B4B03
:101B8C001B4A9A60194B1B4A9A604FF4005000F0A4
:101B9C0023F90346FB73FB7B042B21D1134B1B69ED
:101BAC00124A43F0100313617A88BB8813439AB22C
:101BBC00FB8813439BB2104A43F0F8039BB253804B
:101BCC004FF4005000F008F90346FB73FB7B052B28
:101BDC0006D0064B1A69054941F6EF7313400B61A9
:101BEC00FB7B18461037BD4680BD00BF002002406D
:101BFC0023016745AB89EFCD00F8FF1F80B400AF20
:101C0C00034BDB699B081846BD4680BC704700BF80
:101C1C000020024080B400AF024B1B6A1846BD4640
:101C2C0080BC70470020024080B483B000AF00231A
:101C3C00FB71084BDB6903F00203002B02D001237C
:101C4C00FB7101E00023FB71FB7918460C37BD4694
:101C5C0080BC70470020024080B483B000AF0023EA
:101C6C00FB71084B1B6803F02003002B02D00123EF
:101C7C00FB7101E00023FB71FB7918460C37BD4664
:101C8C0080BC70470020024080B483B000AF786005
:101C9C000B46FB70FB78002B06D0094B1A690849E0
:101CAC007B6813430B6106E0054B1A697B68DB43C9
:101CBC00034913400B6100BF0C37BD4680BC704715
:101CCC000020024080B485B000AF78600023FB7325
:101CDC007B68012B0BD10E4BDB6903F00103002B4E
:101CEC0002D00123FB730DE00023FB730AE0084BC9
:101CFC00DA687B681340002B02D00123FB7301E0F0
:101D0C000023FB73FB7B18461437BD4680BC704721
:101D1C000020024080B483B000AF7860034A7B6837
:101D2C00D36000BF0C37BD4680BC7047002002401A
:101D3C0080B483B000AF0423FB71114BDB6803F05C
:101D4C000103012B02D10123FB7113E00C4BDB6867
:101D5C0003F00403002B02D00223FB710AE0084BB2
:101D6C00DB6803F01003002B02D00323FB7101E0AE
:101D7C000423FB71FB7918460C37BD4680BC7047B9
:101D8C000020024080B483B000AF0423FB71114BE0
:101D9C00DB6803F00103012B02D10123FB7113E07B
:101DAC000C4BDB6803F00403002B02D00223FB7105
:101DBC000AE0084BDB6803F01003002B02D003236E
:101DCC00FB7101E00423FB71FB7918460C37BD460F
:101DDC0080BC70470020024080B584B000AF7860B2
:101DEC000423FB73FFF7CEFF0346FB7306E0FFF7FC
:101DFC00C9FF0346FB737B68013B7B60FB7B012BBC
:101E0C0002D17B68002BF2D17B68002B01D105231A
:101E1C00FB73FB7B18461037BD4680BD80B584B084
:101E2C0000AF78600423FB73FFF7ACFF0346FB7332
:101E3C0006E0FFF7A7FF0346FB737B68013B7B6063
:101E4C00FB7B012B02D17B68002BF2D17B68002B32
:101E5C0001D10523FB73FB7B18461037BD4680BDB3
:101E6C0080B400AF134B1B68124A43F0010313609C
:101E7C00104B5A680F49104B13404B600D4B1B68AD
:101E8C000C4A23F0847323F480331360094B1B68D2
:101E9C00084A23F480231360064B5B68054A23F43D
:101EAC00FE035360034B4FF41F029A6000BFBD4604
:101EBC0080BC7047001002400000FFF880B483B073
:101ECC0000AF7860134B1B68124A23F48033136005
:101EDC00104B1B680F4A23F4802313607B68B3F507
:101EEC00803F04D07B68B3F5802F07D00DE0094B01
:101EFC001B68084A43F48033136006E0054B1B68EB
:101F0C00044A43F4A023136000BF00BF0C37BD4646
:101F1C0080BC70470010024080B582B000AF002337
:101F2C003B600023FB710023BB71312000F014FBDC
:101F3C000346BB713B6801333B603B68B3F5A06F54
:101F4C0002D0BB79002BF0D0312000F005FB03460A
:101F5C00002B02D00123FB7101E00023FB71FB7904
:101F6C0018460837BD4680BD80B485B000AF034627
:101F7C00FB710023FB600A4B1B68FB60FB6823F0C2
:101F8C00F803FB60FB79DB00FA681343FB60044A3F
:101F9C00FB68136000BF1437BD4680BC704700BFA0
:101FAC000010024080B483B000AF0346FB71044ABA
:101FBC00FB79136000BF0C37BD4680BC704700BF77
:101FCC000000424280B485B000AF786039600023D5
:101FDC00FB600A4B5B68FB60FB6823F47C13FB60C3
:101FEC007A683B681343FA681343FB60034AFB6847
:101FFC00536000BF1437BD4680BC704700100240D0
:10200C0080B483B000AF0346FB71044AFB791360C4
:10201C0000BF0C37BD4680BC704700BF6000424219
:10202C0080B485B000AF78600023FB60094B5B681F
:10203C00FB60FB6823F00303FB60FA687B681343C7
:10204C00FB60044AFB68536000BF1437BD4680BC7C
:10205C00704700BF0010024080B400AF044B5B68B7
:10206C00DBB203F00C03DBB21846BD4680BC7047F4
:10207C000010024080B485B000AF78600023FB6094
:10208C00094B5B68FB60FB6823F0F003FB60FA68AC
:10209C007B681343FB60044AFB68536000BF143732
:1020AC00BD4680BC704700BF0010024080B485B0B4
:1020BC0000AF78600023FB60094B5B68FB60FB683A
:1020CC0023F4E063FB60FA687B681343FB60044A0B
:1020DC00FB68536000BF1437BD4680BC704700BF1F
:1020EC000010024080B485B000AF78600023FB6024
:1020FC00094B5B68FB60FB6823F46053FB607B68F7
:10210C00DB00FA681343FB60034AFB68536000BFB3
:10211C001437BD4680BC70470010024080B483B0B9
:10212C0000AF03460A46FB711346BB71BB79002B0B
:10213C0008D00C4B1B78DAB20A49FB791343DBB29B
:10214C000B7009E0074B1B78DAB2FB79DB43DBB28F
:10215C0004491340DBB20B7000BF0C37BD4680BC8A
:10216C00704700BF0910024080B483B000AF7860A4
:10217C00034A7B68136000BF0C37BD4680BC7047B8
:10218C00D800424280B485B000AF78600023FB6079
:10219C00094B5B68FB60FB6823F44043FB60FA6807
:1021AC007B681343FB60044AFB68536000BF143721
:1021BC00BD4680BC704700BF0010024080B483B0A5
:1021CC0000AF0346FB710C4B00221A700A4B002225
:1021DC001A70FB79012B02D0042B04D007E0064BBC
:1021EC0001221A7003E0044B05221A7000BF00BFD5
:1021FC000C37BD4680BC70472010024080B483B0C1
:10220C0000AF0346FB71044AFB79136000BF0C3727
:10221C00BD4680BC704700BF8004424280B483B08E
:10222C0000AF7860054B1A6A04497B6813430B6254
:10223C0000BF0C37BD4680BC704700BF0010024089
:10224C0080B483B000AF0346FB71044AFB79136082
:10225C0000BF0C37BD4680BC704700BF3C044242F7
:10226C0080B487B000AF786000237B6100233B61B2
:10227C000023FB600023BB604F4B5B6803F00C0337
:10228C007B617B69082B11D07B69082B3AD87B6961
:10229C00002B03D07B69042B04D033E07B68474AC6
:1022AC001A6033E07B68454A1A602FE0424B5B684A
:1022BC0003F470133B61404B5B6803F48033FB60A9
:1022CC003B699B0C02333B61FB68002B06D13B69DD
:1022DC003B4A03FB02F27B681A6017E0364B5B68E3
:1022EC0003F40033002B06D03B69354A03FB02F2A2
:1022FC007B681A600AE03B69304A03FB02F27B6898
:10230C001A6003E07B682D4A1A6000BF2A4B5B6899
:10231C0003F0F0037B617B691B097B61294A7B69B4
:10232C0013441B78DBB2BB607B681A68BB68DA406D
:10233C007B685A60204B5B6803F4E0637B617B69CC
:10234C001B0A7B611F4A7B6913441B78DBB2BB60A1
:10235C007B685A68BB68DA407B689A60164B5B688E
:10236C0003F460537B617B69DB0A7B61154A7B69F3
:10237C0013441B78DBB2BB607B685A68BB68DA40DD
:10238C007B68DA600C4B5B6803F440437B617B69D0
:10239C009B0B7B610C4A7B6913441B78DBB2BB60E3
:1023AC007B68DA68BB68B2FBF3F27B681A6100BF2A
:1023BC001C37BD4680BC70470010024000127A00EA
:1023CC0000093D00040000201400002080B483B0FC
:1023DC0000AF78600B46FB70FB78002B06D0094BE6
:1023EC005A6908497B6813434B6106E0054B5A69EF
:1023FC007B68DB43034913404B6100BF0C37BD4680
:10240C0080BC70470010024080B483B000AF78608D
:10241C000B46FB70FB78002B06D0094B9A690849D8
:10242C007B6813438B6106E0054B9A697B68DB4341
:10243C00034913408B6100BF0C37BD4680BC70470D
:10244C000010024080B483B000AF78600B46FB7084
:10245C00FB78002B06D0094BDA6908497B681343DB
:10246C00CB6106E0054BDA697B68DB43034913401B
:10247C00CB6100BF0C37BD4680BC704700100240DA
:10248C0080B483B000AF78600B46FB70FB78002BF8
:10249C0006D0094BDA6808497B681343CB6006E029
:1024AC00054BDA687B68DB4303491340CB6000BF04
:1024BC000C37BD4680BC70470010024080B483B01E
:1024CC0000AF78600B46FB70FB78002B06D0094BF5
:1024DC001A6908497B6813430B6106E0054B1A69BE
:1024EC007B68DB43034913400B6100BF0C37BD46CF
:1024FC0080BC70470010024080B483B000AF03462C
:10250C00FB71044AFB79136000BF0C37BD4680BCDD
:10251C00704700BF4004424280B483B000AF034612
:10252C00FB71044AFB79136000BF0C37BD4680BCBD
:10253C00704700BF4C00424280B483B000AF0346EA
:10254C00FB71044AFB79137000BF0C37BD4680BC8D
:10255C00704700BF0710024080B487B000AF03463D
:10256C00FB710023FB6000237B610023FB74FB7970
:10257C005B09DBB2FB60FB68012B03D1124B1B68C0
:10258C007B6109E0FB68022B03D10F4B1B6A7B615B
:10259C0002E00D4B5B6A7B61FB7903F01F03FB6070
:1025AC007A69FB6822FA03F303F00103002B02D0D3
:1025BC000123FB7401E00023FB74FB7C18461C37E1
:1025CC00BD4680BC704700BF0010024080B400AF15
:1025DC00044B5B6A034A43F08073536200BFBD46F1
:1025EC0080BC70470010024080B485B000AF034639
:1025FC00FB710023FB73084B9A68FB791340002B8B
:10260C0002D00123FB7301E00023FB73FB7B184614
:10261C001437BD4680BC70470010024080B483B0B4
:10262C0000AF0346FB71044AFB79137000BF0C37F3
:10263C00BD4680BC704700BF0A100240FFF7FEBFCA
:10264C000A480B490B4A9142BCBF50F8043B41F875
:10265C00043BF8DB084809494FF000028842BCBF34
:10266C0040F8042BFAE7FDF7BBFDFEE78C260008CB
:10267C00000000201800002018000020240000207A
:10268C000100000000000000010203040102030429
:08269C00060708090204060804
:040000050800264D7C
:00000001FF
