:020000040800F2
:1000000000500020AD300008A9300008A9300008D9
:10001000A9300008A9300008A9300008000000003D
:10002000000000000000000000000000A9300008EF
:10003000A930000800000000A9300008A93000081D
:10004000A9300008A9300008A9300008A93000082C
:10005000A9300008A9300008A9300008A93000081C
:10006000A9300008A9300008A9300008FD050008E3
:10007000A9300008A9300008A9300008A9300008FC
:10008000A9300008A9300008A9300008A9300008EC
:10009000A9300008A9300008A9300008A9300008DC
:1000A000A9300008A9300008A9300008A9300008CC
:1000B000A9300008A9300008A9300008A9300008BC
:1000C000A9300008A9300008A9300008A9300008AC
:1000D000A9300008A9300008A9300008A93000089C
:0C00E000A9300008A9300008A930000871
:1000EC0080B483B000AF786039603B68642203FB56
:1000FC0002F27B681A607B6842F210725A607B686D
:10010C0064229A607B6841F28832DA607B68012253
:10011C001A7400BF0C37BD4680BC704780B588B0E0
:10012C0000AF786039603B68642202FB03F3FB612B
:10013C007B681B7C002B05D139687868FFF7D0FFF2
:10014C003B683EE07B681B68BB617B685A687B68D8
:10015C009B6813447B617B68DB687A6913443B6161
:10016C007B69642203FB02F23B6992FBF3F3FB60B5
:10017C00FA69BB69D31ABB60FB68BA6802FB03F36C
:10018C00124A82FB03125211DB17D21ABB691A44B2
:10019C007B681A60FB68C3F51C5310337A6902FB49
:1001AC0003F30B4A82FB03121213DB17D21A7B6880
:1001BC005A607B681B68054A82FB03125211DB17DD
:1001CC00D31A18462037BD4680BD00BF1F85EB51A2
:1001DC00AD8BDB6880B483B000AF78607B680022A5
:1001EC001A747B6800221A607B6842F210725A60A3
:1001FC0000BF0C37BD4680BC704780B485B000AFE3
:10020C000346FB800C4B1B78002B02D140F6E443D9
:10021C0001E041F28833FB60FB88FA6803FB02F2D1
:10022C00064BA3FB0213D21A52081344DB0A1846DE
:10023C001437BD4680BC7047AC0000200101100093
:10024C0080B582B000AF0346FB71054AFB79137091
:10025C000448FFF7BFFF00BF0837BD4680BD00BF95
:10026C00AC0000209800002080B582B000AF0121C6
:10027C00142002F0D1FA0123BB800023FB713B1D3B
:10028C001946144800F052FB4FF40053BB80102366
:10029C00FB710323BB713B1D19460F4800F046FB55
:1002AC000223BB804823FB713B1D1946094800F013
:1002BC003DFB4FF40073BB801823FB710323BB7110
:1002CC003B1D1946034800F031FB00BF0837BD4603
:1002DC0080BD00BF000801400010014080B584B013
:1002EC0000AF01214FF4804002F096FA4FF4E13355
:1002FC003B600023BB800023FB8000233B81002359
:10030C00BB8108237B813B461946054801F09EFBC7
:10031C000121034801F0B0FC00BF1037BD4680BD81
:10032C000038014080B58CB000AF0121012002F0F3
:10033C0055FA1B4B7B601B4BBB600023FB603223CD
:10034C003B6100237B618023BB614FF48073FB61B5
:10035C004FF480633B6220237B624FF40053BB62FB
:10036C000023FB623B1D19460F4802F02BFC0122B7
:10037C0002210D4802F0AAFC0B233B7000237B707A
:10038C000023BB700123FB703B46184601F04EFA6C
:10039C000121054802F07EFC00BF3037BD4680BD10
:1003AC004C2401402C0000200800024080B586B08F
:1003BC0000AF01214FF4007002F02EFA00237B6095
:1003CC0000233B7201237B724FF46023FB600023FC
:1003DC003B6101233B753B1D1946154800F04EFD52
:1003EC00062301220021124800F0C7FE012110480B
:1003FC0000F0CCFD01210E4800F0ADFD0C4800F0E2
:10040C0002FE00BF0A4800F00DFE0346002BF9D196
:10041C00074800F01EFE00BF054800F029FE034609
:10042C00002BF9D100BF00BF1837BD4680BD00BFFF
:10043C000024014080B500AF02F004FD00BF80BD78
:10044C0080B582B000AF78600FE000BF80210B4810
:10045C0001F06CFE0346002BF8D07B685A1C7A60C6
:10046C001B781946054801F020FD7B681B78002B92
:10047C00EBD100BF00BF0837BD4680BD003801403E
:10048C0080B582B000AF0346FB7100BF80210848E5
:10049C0001F04CFE0346002BF8D0FB799BB21946B9
:1004AC00034801F002FD00BF0837BD4680BD00BF08
:1004BC000038014080B588B000AF78600023FB6144
:1004CC000023FB767B68002B04DA0123FB767B6828
:1004DC005B427B607A681D4B83FB02139910D31728
:1004EC00C91A0B469B000B445B00D11ACAB2FB69BC
:1004FC00591CF9613032D2B220333B4403F8142C2E
:10050C007B68124A82FB03129210DB17D31A7B60B2
:10051C007B68002BDEDCFB7E002B0ED02D20FFF742
:10052C00AFFF0AE0FB69013BFB6107F10C02FB69C1
:10053C0013441B781846FFF7A3FFFB69002BF1DC73
:10054C0000BF00BF2037BD4680BD00BF6766666632
:10055C0080B485B000AF78600023FB6002E0FB68DC
:10056C000133FB607B684FF4FA5202FB03F3FA6829
:10057C009A42F4D300BF00BF1437BD4680BC70470D
:10058C0080B582B000AF0221164800F09EFA0346F7
:10059C00FB71FB79002B10D1134B1B78012B0CD169
:1005AC00124B1B68002B08D10F4B00221A700F4BFB
:1005BC004FF47A721A6001230FE0FB79012B02D100
:1005CC00094B01221A70094B1B68002B04D0074BF6
:1005DC001B68013B054A1360002318460837BD46CB
:1005EC0080BD00BF000801400000002080010020F9
:1005FC0080B500AF022002F0E3FB0346002B0AD0CB
:10060C00064B01221A70064B1B680133044A136017
:10061C00022002F0FDFB00BF80BD00BF9000002057
:10062C009400002080B586B000AFFFF703FFFFF702
:10063C001BFEFFF753FEFFF775FEFFF7B7FE40F208
:10064C0072616448FFF74CFD6348FFF7F9FE63489D
:10065C00FFF7F6FE624B1B78002B01D1614B00E0DB
:10066C00614B1846FFF7ECFE6048FFF7E9FE604867
:10067C00FFF7E6FE01215F4800F011FD00237B61CE
:10068C00FFF77EFF0346002B13D0554B1B78002B36
:10069C0006D10120FFF7D4FD5748FFF7D1FE05E046
:1006AC000020FFF7CDFD5548FFF7CAFEC820FFF725
:1006BC004FFF534B1B78DBB2002B47D0504B002223
:1006CC001A7000233B610023FB600BE04D4AFB6872
:1006DC0032F813309BB21A463B6913443B61FB68FA
:1006EC000133FB60FB68312BF0DD3B69464AA2FB12
:1006FC0003231B097B817B891846FFF77EFD03468C
:10070C00424A1360414B1B6819463248FFF706FDFD
:10071C0003463F4A136079693E4BA3FB0123DA0879
:10072C0013469B0013445B00CA1A002A0ED14FF4E7
:10073C000051394800F0EEF90346C3F10103DBB276
:10074C001A464FF40051344800F025FA7B695A1CC4
:10075C007A61042B39D900237B612C4B1A682C4B02
:10076C001B689A4205DD294B1A68294B1B68D31A62
:10077C0004E0274B1A68254B1B68D31A7B6027486B
:10078C00FFF75EFE214B1B681846FFF793FE2448CB
:10079C00FFF756FE1E4B1B681846FFF78BFE2148D1
:1007AC00FFF74EFE7868FFF785FE1F48FFF748FEFF
:1007BC000B4B1B78002B01D10A4B00E00A4B18465F
:1007CC00FFF73EFE1948FFF73BFE1420FFF7C0FE73
:1007DC0056E700BF98000020EC30000828310008D4
:1007EC00AC000020303100083831000840310008DE
:1007FC005C3100080024014088310008AC3100084D
:10080C00900000202C0000201F85EB51B40000202C
:10081C00B0000020CDCCCCCC00100140D031000871
:10082C00D8310008EC310008FC3100080C3200080B
:10083C0080B582B000AF78607B682F4A934208D1B4
:10084C000121042002F024F80021042002F020F8F9
:10085C004EE07B68294A934208D10121082002F01E
:10086C0017F80021082002F013F841E07B68244AB5
:10087C00934208D10121102002F00AF80021102027
:10088C0002F006F834E07B681E4A934208D101213D
:10089C00202001F0FDFF0021202001F0F9FF27E0CE
:1008AC007B68194A934208D10121402001F0F0FFE6
:1008BC000021402001F0ECFF1AE07B68134A9342C0
:1008CC0008D10121802001F0E3FF0021802001F0FC
:1008DC00DFFF0DE07B680E4A934209D101214FF4F2
:1008EC00807001F0D5FF00214FF4807001F0D0FF33
:1008FC0000BF0837BD4680BD00080140000C014018
:10090C00001001400014014000180140001C01407F
:10091C000020014080B500AF0121012001F0B8FF9B
:10092C000021012001F0B4FF00BF80BD80B489B06C
:10093C0000AF786039600023FB6100233B6100232A
:10094C00BB610023FB6000237B610023BB603B6821
:10095C00DB7803F00F03FB613B68DB7803F01003DB
:10096C00002B05D03B689B781A46FB691343FB614F
:10097C003B681B88DBB2002B44D07B681B687B6117
:10098C000023BB6138E00122BB6902FA03F3FB6070
:10099C003B681B881A46FB6813403B613A69FB684D
:1009AC009A4226D1BB699B00FB600F22FB6802FABE
:1009BC0003F3BB60BB68DB437A6913407B61FA6964
:1009CC00FB6802FA03F37A6913437B613B68DB78BB
:1009DC00282B05D10122BB699A407B685A6108E03B
:1009EC003B68DB78482B04D10122BB699A407B68B9
:1009FC001A61BB690133BB61BB69072BC3D97B6827
:100A0C007A691A603B681B88FF2B46D97B685B6848
:100A1C007B610023BB613AE0BB690833012202FA17
:100A2C0003F3FB603B681B881A46FB6813403B6171
:100A3C003A69FB689A4227D1BB699B00FB600F2285
:100A4C00FB6802FA03F3BB60BB68DB437A691340B3
:100A5C007B61FA69FB6802FA03F37A6913437B61E1
:100A6C003B68DB78282B05D1BB69083301229A40FF
:100A7C007B685A613B68DB78482B05D1BB6908332E
:100A8C0001229A407B681A61BB690133BB61BB6967
:100A9C00072BC1D97B687A695A6000BF2437BD46E1
:100AAC0080BC704780B483B000AF78607B684FF631
:100ABC00FF721A807B6802229A707B680422DA70BB
:100ACC0000BF0C37BD4680BC704780B485B000AF0A
:100ADC0078600B467B800023FB737B689A687B886D
:100AEC001340002B02D00123FB7301E00023FB73A6
:100AFC00FB7B18461437BD4680BC704780B483B06E
:100B0C0000AF78607B689B689BB218460C37BD467B
:100B1C0080BC704780B485B000AF78600B467B809A
:100B2C000023FB737B68DA687B881340002B02D0B0
:100B3C000123FB7301E00023FB73FB7B1846143786
:100B4C00BD4680BC704780B483B000AF78607B68D2
:100B5C00DB689BB218460C37BD4680BC704780B42E
:100B6C0083B000AF78600B467B807A887B681A6113
:100B7C0000BF0C37BD4680BC704780B483B000AF5B
:100B8C0078600B467B807A887B685A6100BF0C3793
:100B9C00BD4680BC704780B483B000AF78600B4614
:100BAC007B8013467B707B78002B03D07A887B6824
:100BBC001A6102E07A887B685A6100BF0C37BD4627
:100BCC0080BC704780B483B000AF78600B467B80EC
:100BDC007A887B68DA6000BF0C37BD4680BC7047F2
:100BEC0080B485B000AF78600B467B804FF48033C7
:100BFC00FB607B88FA681343FB607B68FA689A6138
:100C0C007A887B689A617B68FA689A617B689B69D1
:100C1C00FB607B689B69FB6000BF1437BD4680BCE2
:100C2C00704780B485B000AF03460A46FB7113468B
:100C3C00BB710023FB600C4B1B68FB60FA684FF622
:100C4C0080731340FB60FB791B01FA681343FB6054
:100C5C00BB79FA681343FB60034AFB68136000BF5F
:100C6C001437BD4680BC70470000014080B483B08F
:100C7C0000AF0346FB71044AFB79136000BF0C37CD
:100C8C00BD4680BC704700BF1C00204280B487B0BA
:100C9C0000AF78600B46FB7000233B610023FB60C8
:100CAC0000237B610023BB607B68002B03DA2E4B97
:100CBC00DB697B6102E02C4B5B687B617B681B0C06
:100CCC0003F00F03BB607B689BB23B617B6803F452
:100CDC004013B3F5401F0AD17B6923F070637B612D
:100CEC00214B5B68204A23F07063536021E07B68E2
:100CFC0003F48013002B0ED00322BB6802FA03F31B
:100D0C00FB60FB68DB437A6913407B617B6943F0D2
:100D1C0070637B610DE07B685B0D1B013A6902FA25
:100D2C0003F3DB437A6913407B617B6943F07063A7
:100D3C007B61FB78002B08D07B685B0D1B013A694B
:100D4C0002FA03F37A6913437B617B68002B03DAA5
:100D5C00054A7B69D36102E0034A7B69536000BF9B
:100D6C001C37BD4680BC70470000014080B485B084
:100D7C0000AF03460A46FB711346BB710023FB60B0
:100D8C00BB7903F003039B000F2202FA03F3FB6011
:100D9C00154ABB799B08DBB2023352F82320FB685F
:100DAC00DB431148B9798908C9B21A408B1C40F849
:100DBC0023200D4ABB799B08DBB2023352F8232067
:100DCC00F979BB7903F003039B0001FA03F306489E
:100DDC00B9798908C9B21A438B1C40F8232000BF8B
:100DEC001437BD4680BC70470000014080B483B00E
:100DFC0000AF7860034A7B68136000BF0C37BD46B8
:100E0C0080BC7047DC00204280B582B000AF7860B7
:100E1C007B68174A93420AD101214FF4007001F00C
:100E2C0037FD00214FF4007001F032FD1CE07B68AF
:100E3C00104A93420AD101214FF4806001F028FD41
:100E4C0000214FF4806001F023FD0DE07B680A4A1D
:100E5C00934209D101214FF4004001F019FD00210A
:100E6C004FF4004001F014FD00BF0837BD4680BDB3
:100E7C000024014000280140003C014080B485B0B2
:100E8C0000AF786039600023FB600023FB727B6845
:100E9C005B68FB60FB6823F4702323F48073FB60B6
:100EAC003B681A683B681B791B021343FA681343AF
:100EBC00FB607B68FA685A607B689B68FB60FA6829
:100ECC00164B1340FB603B68DA683B689B681A431F
:100EDC003B685B795B001343FA681343FB607B68E8
:100EEC00FA689A607B68DB6AFB60FB6823F470032A
:100EFC00FB603B681B7C013BDAB2FB7A1343FB7251
:100F0C00FB7A1B05FA681343FB607B68FA68DA62AC
:100F1C0000BF1437BD4680BC704700BFFDF7F1FF22
:100F2C0080B483B000AF78607B6800221A607B6865
:100F3C0000221A717B6800225A717B6800229A6029
:100F4C007B680022DA607B6801221A7400BF0C37C0
:100F5C00BD4680BC704780B483B000AF78600B4650
:100F6C00FB70FB78002B06D07B689B6843F001027A
:100F7C007B689A6005E07B689B6823F001027B68C4
:100F8C009A6000BF0C37BD4680BC704780B483B0FC
:100F9C0000AF78600B46FB70FB78002B06D07B68AB
:100FAC009B6843F480727B689A6005E07B689B6861
:100FBC0023F480727B689A6000BF0C37BD4680BCFE
:100FCC00704780B485B000AF78600B467B801346C9
:100FDC007B700023FB737B88FB737B78002B06D024
:100FEC007B685A68FB7B1A437B685A6006E07B6817
:100FFC005A68FB7BDB431A407B685A6000BF14378E
:10100C00BD4680BC704780B483B000AF78607B680D
:10101C009B6843F008027B689A6000BF0C37BD46A2
:10102C0080BC704780B485B000AF78600023FB7340
:10103C007B689B6803F00803002B02D00123FB7331
:10104C0001E00023FB73FB7B18461437BD4680BCC4
:10105C00704780B483B000AF78607B689B6843F0C6
:10106C0004027B689A6000BF0C37BD4680BC704799
:10107C0080B485B000AF78600023FB737B689B68FD
:10108C0003F00403002B02D00123FB7301E00023C7
:10109C00FB73FB7B18461437BD4680BC704780B48D
:1010AC0083B000AF78600B46FB70FB78002B06D04A
:1010BC007B689B6843F4A0027B689A6005E07B68C0
:1010CC009B6823F4A0027B689A6000BF0C37BD4676
:1010DC0080BC704780B485B000AF78600023FB7390
:1010EC007B689B6803F48003002B02D00123FB7305
:1010FC0001E00023FB73FB7B18461437BD4680BC14
:10110C00704780B485B000AF78600B46FB7000234D
:10111C00FB600023BB607B685B68FB60FB6823F4AF
:10112C006043FB60FB78013BBB60BB685B03FA6808
:10113C001343FB607B68FA685A6000BF1437BD46E6
:10114C0080BC704780B483B000AF78600B46FB70F6
:10115C00FB78002B06D07B685B6843F400627B68ED
:10116C005A6005E07B685B6823F400627B685A6018
:10117C0000BF0C37BD4680BC704780B485B000AF53
:10118C007860084611461A460346FB700B46BB7046
:10119C0013467B700023FB600023BB60FB78092B9C
:1011AC0023D97B68DB68FB60FB78A3F10A0213464A
:1011BC005B001344072202FA03F3BB60BB68DB43FA
:1011CC00FA681340FB607978FB78A3F10A021346A6
:1011DC005B00134401FA03F3BB60FA68BB6813436A
:1011EC00FB607B68FA68DA601EE07B681B69FB6059
:1011FC00FA7813465B001344072202FA03F3BB6030
:10120C00BB68DB43FA681340FB607978FA781346C5
:10121C005B00134401FA03F3BB60FA68BB68134329
:10122C00FB607B68FA681A61BB78062B21D87B6857
:10123C005B6BFB60BB785A1E13469B0013441F224A
:10124C0002FA03F3BB60BB68DB43FA681340FB6034
:10125C00F978BB785A1E13469B00134401FA03F32A
:10126C00BB60FA68BB681343FB607B68FA685A631F
:10127C0047E0BB780C2B21D87B681B6BFB60BB78E1
:10128C00DA1F13469B0013441F2202FA03F3BB60C0
:10129C00BB68DB43FA681340FB60F978BB78DA1F54
:1012AC0013469B00134401FA03F3BB60FA68BB6856
:1012BC001343FB607B68FA681A6322E07B68DB6A85
:1012CC00FB60BB78A3F10D0213469B0013441F2255
:1012DC0002FA03F3BB60BB68DB43FA681340FB60A4
:1012EC00F978BB78A3F10D0213469B00134401FA65
:1012FC0003F3BB60FA68BB681343FB607B68FA6856
:10130C00DA6200BF1437BD4680BC704780B483B02E
:10131C0000AF78600B46FB70FB78002B06D07B6827
:10132C009B6843F480127B689A6005E07B689B683D
:10133C0023F480127B689A6000BF0C37BD4680BCDA
:10134C00704780B483B000AF78607B68DB6C9BB275
:10135C0018460C37BD4680BC704780B400AF034BB9
:10136C001B681846BD4680BC704700BF4C2401402A
:10137C0080B483B000AF78600B46FB70FB78002B19
:10138C0006D07B685B6843F480627B685A6005E03A
:10139C007B685B6823F480627B685A6000BF0C3703
:1013AC00BD4680BC704780B483B000AF78600B46FC
:1013BC00FB70FB78002B06D07B685B6843F4805293
:1013CC007B685A6005E07B685B6823F480527B681D
:1013DC005A6000BF0C37BD4680BC704780B485B0E6
:1013EC0000AF786039600023FB607B689B68FB6012
:1013FC00FB6823F4E043FB60FA683B681343FB6033
:10140C007B68FA689A6000BF1437BD4680BC704791
:10141C0080B483B000AF78600B46FB70FB78002B78
:10142C0006D07B689B6843F400427B689A6005E0B9
:10143C007B689B6823F400427B689A6000BF0C3782
:10144C00BD4680BC704780B483B000AF78600B465B
:10145C00FB70FB78002B06D07B689B6843F4021270
:10146C007B689A6005E07B689B6823F402127B68BA
:10147C009A6000BF0C37BD4680BC704780B485B005
:10148C0000AF78600023FB737B689B6803F4001348
:10149C00002B02D00123FB7301E00023FB73FB7BC9
:1014AC0018461437BD4680BC704780B487B000AF77
:1014BC007860084611461A460346FB700B46BB7013
:1014CC0013467B7000237B6100233B610023FB6090
:1014DC00FB78092B23D97B68DB687B61FB78A3F154
:1014EC000A0213465B001344072202FA03F33B6122
:1014FC003B69DB437A6913407B617978FB78A3F114
:10150C000A0213465B00134401FA03F33B617A6948
:10151C003B6913437B617B687A69DA601EE07B6808
:10152C001B697B61FA7813465B001344072202FAAD
:10153C0003F33B613B69DB437A6913407B61797848
:10154C00FA7813465B00134401FA03F33B617A69A2
:10155C003B6913437B617B687A691A617B689B6B7F
:10156C007B617B691B0D03F00303FB60FB68DBB243
:10157C00BA78D31ADBB20233DBB21A4613469B009D
:10158C0013441F2202FA03F33B613B69DB437A6984
:10159C0013407B61FA78FB68DBB2B978CB1ADBB20B
:1015AC000233DBB219460B469B000B4402FA03F3E1
:1015BC003B617A693B6913437B617B687A699A6307
:1015CC0000BF1C37BD4680BC704780B485B000AFEF
:1015DC0078600B46FB700023FB600023BB607B68CC
:1015EC009B6BFB60FB6823F44013FB60FB78013BB7
:1015FC00BB60BB681B05FA681343FB607B68FA6829
:10160C009A6300BF1437BD4680BC704780B485B068
:10161C0000AF78600B46FB7013463B800023FB60E9
:10162C007B68FB60FA78FB681344FB60FB681A4626
:10163C003B88136000BF1437BD4680BC704780B434
:10164C0085B000AF78600B46FB700023FB607B68B5
:10165C00FB60FA78FB6813442833FB60FB681B685B
:10166C009BB218461437BD4680BC704780B485B019
:10167C0000AF786039600023FB607B685B68FB60BF
:10168C00FB6823F4400323F40073FB60FA683B68A7
:10169C001343FB607B68FA685A6000BF1437BD4681
:1016AC0080BC704780B483B000AF78600B467B8001
:1016BC0013463B807A887B685A623A887B689A62C8
:1016CC0000BF0C37BD4680BC704780B485B000AFFE
:1016DC0078600B46FB700023FB607B685B68FB60EB
:1016EC00FB6823F01F03FB60FB78FA681343FB6075
:1016FC007B68FA685A6000BF1437BD4680BC7047DF
:10170C0080B483B000AF0346FB71FB79002B06D08D
:10171C00084B9B68074A43F40003936005E0054BB4
:10172C009B68044A23F40003936000BF0C37BD464A
:10173C0080BC70470024014080B485B000AF786055
:10174C000B46FB700023FB737B681A68FB78134015
:10175C00002B02D00123FB7301E00023FB73FB7B06
:10176C0018461437BD4680BC704780B483B000AFB8
:10177C0078600B46FB70FB78DA437B681A6000BF1D
:10178C000C37BD4680BC704780B487B000AF786022
:10179C000B467B800023FB7500233B610023FB6021
:1017AC007B881B0A9BB23B617B685B687A88D2B2F0
:1017BC001340FB607B681A683B691340002B05D013
:1017CC00FB68002B02D00123FB7501E00023FB75A5
:1017DC00FB7D18461C37BD4680BC704780B485B075
:1017EC0000AF78600B467B800023FB737B881B0A61
:1017FC009BB2FB73FB7BDA437B681A6000BF143728
:10180C00BD4680BC704700BF80B483B000AF786029
:10181C00054A7B6843F0BF6343F40033D36000BFD9
:10182C000C37BD4680BC704700ED00E080B487B03B
:10183C0000AF786000237B6100233B610F23FB60CA
:10184C007B68DB78002B3AD0274BDB68DB431B0A29
:10185C0003F007037B617B69C3F104033B61FA6806
:10186C007B6922FA03F3FB607B685B781A463B6961
:10187C0002FA03F37B617B689B781A46FB68134082
:10188C007A6913437B617B691B017B61174A7B6817
:10189C001B787969C9B213440A4683F800237B6824
:1018AC001B7803F01F0311497A6812785209D2B2DF
:1018BC001046012202FA03F341F820300FE07B6856
:1018CC001B7803F01F0309497A6812785209D2B2C7
:1018DC00104601229A4000F1200341F8232000BF5A
:1018EC001C37BD4680BC704700ED00E000E100E015
:1018FC0080B483B000AF786039603B6823F06043FC
:10190C0023F07F0304497A6813438B6000BF0C37C4
:10191C00BD4680BC704700BF00ED00E080B483B0D2
:10192C0000AF03460A46FB711346BB71BB79002B13
:10193C0006D0094B1A69FB79074913430B6106E082
:10194C00054B1A69FB79DB43034913400B6100BF5C
:10195C000C37BD4680BC704700ED00E080B483B00E
:10196C0000AF78607B68042B06D1094B1B68084AD2
:10197C0043F00403136005E0054B1B68044A23F095
:10198C000403136000BF0C37BD4680BC704700BF1A
:10199C0010E000E080B582B000AF78607B68264A2A
:1019AC0093420AD101214FF4804000F071FF0021D5
:1019BC004FF4804000F06CFF3AE07B681F4A934282
:1019CC000AD101214FF4003000F080FF00214FF4C8
:1019DC00003000F07BFF2BE07B68194A93420AD160
:1019EC0001214FF4802000F071FF00214FF4802082
:1019FC0000F06CFF1CE07B68124A93420AD1012173
:101A0C004FF4002000F062FF00214FF4002000F0A2
:101A1C005DFF0DE07B680C4A934209D101214FF424
:101A2C00801000F053FF00214FF4801000F04EFFA7
:101A3C0000BF0837BD4680BD00380140004400405F
:101A4C0000480040004C00400050004080B58CB075
:101A5C0000AF786039600023FB620023BB62002377
:101A6C007B6200233B620023FB617B68FB617B682C
:101A7C001B8A9BB2FB62FA6A4CF6FF731340FB6243
:101A8C003B68DB881A46FB6A1343FB62FB6A9AB21B
:101A9C007B681A827B689B899BB2FB62FA6A4EF662
:101AAC00F3131340FB623B689A883B681B89134312
:101ABC009AB23B685B8913439BB21A46FB6A134389
:101ACC00FB62FB6A9AB27B689A817B689B8A9BB2A9
:101ADC00FB62FA6A4FF6FF431340FB623B689B893B
:101AEC001A46FB6A1343FB62FB6A9AB27B689A82C2
:101AFC0007F10803184600F0BBFDFB692E4A934220
:101B0C0002D17B69BB6201E03B69BB627B689B894C
:101B1C009BB21BB2002B0CDABA6A13469B0013441F
:101B2C009A001A443B681B685B00B2FBF3F37B62C0
:101B3C000BE0BA6A13469B0013449A001A443B68A4
:101B4C001B689B00B2FBF3F37B627B6A1B4AA2FB14
:101B5C0003235B091B01FB62FB6A1B09642202FB6A
:101B6C0003F37A6AD31A3B627B689B899BB21BB2E4
:101B7C00002B0CDA3B6ADB003233104AA2FB032346
:101B8C005B0903F00703FA6A1343FB620BE03B6A41
:101B9C001B013233094AA2FB03235B0903F00F0339
:101BAC00FA6A1343FB62FB6A9AB27B681A8100BF24
:101BBC003037BD4680BD00BF003801401F85EB515A
:101BCC0080B483B000AF78607B684FF416521A6013
:101BDC007B6800229A807B680022DA807B68002276
:101BEC001A817B680C225A817B6800229A8100BF83
:101BFC000C37BD4680BC704780B485B000AF7860B0
:101C0C0039600023FB607B681B8A9BB2FB60FA681F
:101C1C004FF2FF031340FB603B681A883B685B88FC
:101C2C0013439AB23B689B8813439AB23B68DB8898
:101C3C0013439BB21A46FB681343FB60FB689AB2D2
:101C4C007B681A8200BF1437BD4680BC704780B4D5
:101C5C0083B000AF78607B6800221A807B6800221A
:101C6C005A807B6800229A807B680022DA8000BF51
:101C7C000C37BD4680BC704780B483B000AF786031
:101C8C000B46FB70FB78002B08D07B689B899BB2C2
:101C9C0043F400539AB27B689A8107E07B689B8976
:101CAC009BB223F400539AB27B689A8100BF0C3725
:101CBC00BD4680BC704780B487B000AF78600B46DF
:101CCC007B8013467B7000233B610023FB60002369
:101CDC00BB6000237B617B687B617B88DBB25B092B
:101CEC00DBB23B617B8803F01F03FB600122FB68C6
:101CFC0002FA03F3BB603B69012B03D17B690C3304
:101D0C007B6109E03B69022B03D17B6910337B615A
:101D1C0002E07B6914337B617B78002B06D07B69F6
:101D2C0019687B69BA680A431A6006E07B6919680E
:101D3C00BB68DA437B690A401A6000BF1C37BD469A
:101D4C0080BC704780B483B000AF78600B467B805A
:101D5C0013467B707B78002B08D07B689B8A9AB2E9
:101D6C007B8813439AB27B689A8209E07B689B8AD2
:101D7C009AB27B88DB439BB213409AB27B689A82FF
:101D8C0000BF0C37BD4680BC704780B483B000AF39
:101D9C0078600B46FB707B681B8A9BB223F00F03A9
:101DAC009AB27B681A827B681B8A9AB2FB789BB2C8
:101DBC0013439AB27B681A8200BF0C37BD4680BCB5
:101DCC00704780B483B000AF78600B467B807B6833
:101DDC009B899BB223F400639AB27B689A817B68DF
:101DEC009B899AB27B8813439AB27B689A8100BF15
:101DFC000C37BD4680BC704780B483B000AF7860B0
:101E0C000B46FB70FB78002B08D07B689B899BB240
:101E1C0043F002039AB27B689A8107E07B689B8946
:101E2C009BB223F002039AB27B689A8100BF0C37F5
:101E3C00BD4680BC704780B483B000AF78600B4661
:101E4C007B807B681B8A9BB223F020039AB27B6851
:101E5C001A827B681B8A9AB27B8813439AB27B687E
:101E6C001A8200BF0C37BD4680BC704780B483B06B
:101E7C0000AF78600B46FB70FB78002B08D07B68BA
:101E8C001B8A9BB243F480439AB27B681A8207E0A8
:101E9C007B681B8A9BB223F480439AB27B681A82BC
:101EAC0000BF0C37BD4680BC704780B483B000AF18
:101EBC0078600B467B807B88C3F308039AB27B68FF
:101ECC009A8000BF0C37BD4680BC704780B483B08D
:101EDC0000AF78607B689B889BB2C3F308039BB20E
:101EEC0018460C37BD4680BC704780B483B000AF39
:101EFC0078607B689B899BB243F001039AB27B6844
:101F0C009A8100BF0C37BD4680BC704780B483B04B
:101F1C0000AF78600B46FB707B681B8B9BB2DBB20F
:101F2C009AB27B681A837B681B8B9AB2FB789BB244
:101F3C001B029BB213439AB27B681A8300BF0C3707
:101F4C00BD4680BC704780B483B000AF78600B4650
:101F5C00FB707B681B8B9BB223F0FF039AB27B68F0
:101F6C001A837B681B8B9AB2FB789BB213439AB291
:101F7C007B681A8300BF0C37BD4680BC704780B4A9
:101F8C0083B000AF78600B46FB70FB78002B08D059
:101F9C007B689B8A9BB243F020039AB27B689A823F
:101FAC0007E07B689B8A9BB223F020039AB27B6884
:101FBC009A8200BF0C37BD4680BC704780B483B09A
:101FCC0000AF78600B46FB70FB78002B08D07B6869
:101FDC009B8A9BB243F010039AB27B689A8207E00B
:101FEC007B689B8A9BB223F010039AB27B689A821F
:101FFC0000BF0C37BD4680BC704780B483B000AFC7
:10200C0078600B46FB70FB78002B08D07B689B8AB2
:10201C009BB243F008039AB27B689A8207E07B6814
:10202C009B8A9BB223F008039AB27B689A8200BF0A
:10203C000C37BD4680BC704780B483B000AF78606D
:10204C000B46FB70FB78002B0AD07B689B899BB2FC
:10205C006FEA43436FEA53439AB27B689A8107E075
:10206C007B689B899BB2C3F30E039AB27B689A81FF
:10207C0000BF0C37BD4680BC704780B483B000AF46
:10208C0078600B46FB70FB78002B08D07B689B8A32
:10209C009BB243F400639AB27B689A8207E07B6838
:1020AC009B8A9BB223F400639AB27B689A8200BF2E
:1020BC000C37BD4680BC704780B483B000AF7860ED
:1020CC000B467B807B689B8A9BB223F004039AB2FD
:1020DC007B689A827B689B8A9AB27B8813439AB2FC
:1020EC007B689A8200BF0C37BD4680BC704780B4B9
:1020FC0083B000AF78600B46FB70FB78002B08D0E8
:10210C007B689B8A9BB243F002039AB27B689A82EB
:10211C0007E07B689B8A9BB223F002039AB27B6830
:10212C009A8200BF0C37BD4680BC704780B485B026
:10213C0000AF78600B467B800023FB737B681B88A9
:10214C009AB27B8813409BB2002B02D00123FB7305
:10215C0001E00023FB73FB7B18461437BD4680BCA3
:10216C00704780B483B000AF78600B467B807B886F
:10217C00DB439AB27B681A8000BF0C37BD4680BC2B
:10218C00704780B487B000AF78600B467B8000232B
:10219C00FB6000237B610023BB600023FB747B8806
:1021AC00DBB25B09DBB2BB607B8803F01F037B6196
:1021BC0001227B6902FA03F37B61BB68012B07D117
:1021CC007B689B899BB21A467B6913407B6111E04B
:1021DC00BB68022B07D17B681B8A9BB21A467B69B2
:1021EC0013407B6106E07B689B8A9BB21A467B6935
:1021FC0013407B617B881B0A9BB2FB600122FB684E
:10220C0002FA03F3FB607B681B889BB21A46FB68DF
:10221C001340FB607B69002B05D0FB68002B02D0C0
:10222C000123FB7401E00023FB74FB7C18461C3774
:10223C00BD4680BC704780B485B000AF78600B465B
:10224C007B800023FB810023BB817B881B0AFB81E5
:10225C00FB89012202FA03F3BB81BB89DB439AB2EF
:10226C007B681A8000BF1437BD4680BC704700BF26
:10227C0080B400AF134B1B68124A43F00103136088
:10228C00104B5A680F49104B13404B600D4B1B6899
:10229C000C4A23F0847323F480331360094B1B68BE
:1022AC00084A23F480231360064B5B68054A23F429
:1022BC00FE035360034B4FF41F029A6000BFBD46F0
:1022CC0080BC7047001002400000FFF880B483B05F
:1022DC0000AF7860134B1B68124A23F480331360F1
:1022EC00104B1B680F4A23F4802313607B68B3F5F3
:1022FC00803F04D07B68B3F5802F07D00DE0094BED
:10230C001B68084A43F48033136006E0054B1B68D6
:10231C00044A43F4A023136000BF00BF0C37BD4632
:10232C0080BC70470010024080B582B000AF002323
:10233C003B600023FB710023BB71312000F014FBC8
:10234C000346BB713B6801333B603B68B3F5A06F40
:10235C0002D0BB79002BF0D0312000F005FB0346F6
:10236C00002B02D00123FB7101E00023FB71FB79F0
:10237C0018460837BD4680BD80B485B000AF034613
:10238C00FB710023FB600A4B1B68FB60FB6823F0AE
:10239C00F803FB60FB79DB00FA681343FB60044A2B
:1023AC00FB68136000BF1437BD4680BC704700BF8C
:1023BC000010024080B483B000AF0346FB71044AA6
:1023CC00FB79136000BF0C37BD4680BC704700BF63
:1023DC000000424280B485B000AF786039600023C1
:1023EC00FB600A4B5B68FB60FB6823F47C13FB60AF
:1023FC007A683B681343FA681343FB60034AFB6833
:10240C00536000BF1437BD4680BC704700100240BB
:10241C0080B483B000AF0346FB71044AFB791360B0
:10242C0000BF0C37BD4680BC704700BF6000424205
:10243C0080B485B000AF78600023FB60094B5B680B
:10244C00FB60FB6823F00303FB60FA687B681343B3
:10245C00FB60044AFB68536000BF1437BD4680BC68
:10246C00704700BF0010024080B400AF044B5B68A3
:10247C00DBB203F00C03DBB21846BD4680BC7047E0
:10248C000010024080B485B000AF78600023FB6080
:10249C00094B5B68FB60FB6823F0F003FB60FA6898
:1024AC007B681343FB60044AFB68536000BF14371E
:1024BC00BD4680BC704700BF0010024080B485B0A0
:1024CC0000AF78600023FB60094B5B68FB60FB6826
:1024DC0023F4E063FB60FA687B681343FB60044AF7
:1024EC00FB68536000BF1437BD4680BC704700BF0B
:1024FC000010024080B485B000AF78600023FB6010
:10250C00094B5B68FB60FB6823F46053FB607B68E2
:10251C00DB00FA681343FB60034AFB68536000BF9F
:10252C001437BD4680BC70470010024080B483B0A5
:10253C0000AF03460A46FB711346BB71BB79002BF7
:10254C0008D00C4B1B78DAB20A49FB791343DBB287
:10255C000B7009E0074B1B78DAB2FB79DB43DBB27B
:10256C0004491340DBB20B7000BF0C37BD4680BC76
:10257C00704700BF0910024080B483B000AF786090
:10258C00034A7B68136000BF0C37BD4680BC7047A4
:10259C00D800424280B485B000AF78600023FB6065
:1025AC00094B5B68FB60FB6823F44043FB60FA68F3
:1025BC007B681343FB60044AFB68536000BF14370D
:1025CC00BD4680BC704700BF0010024080B483B091
:1025DC0000AF0346FB710C4B00221A700A4B002211
:1025EC001A70FB79012B02D0042B04D007E0064BA8
:1025FC0001221A7003E0044B05221A7000BF00BFC1
:10260C000C37BD4680BC70472010024080B483B0AC
:10261C0000AF0346FB71044AFB79136000BF0C3713
:10262C00BD4680BC704700BF8004424280B483B07A
:10263C0000AF7860054B1A6A04497B6813430B6240
:10264C0000BF0C37BD4680BC704700BF0010024075
:10265C0080B483B000AF0346FB71044AFB7913606E
:10266C0000BF0C37BD4680BC704700BF3C044242E3
:10267C0080B487B000AF786000237B6100233B619E
:10268C000023FB600023BB604F4B5B6803F00C0323
:10269C007B617B69082B11D07B69082B3AD87B694D
:1026AC00002B03D07B69042B04D033E07B68474AB2
:1026BC001A6033E07B68454A1A602FE0424B5B6836
:1026CC0003F470133B61404B5B6803F48033FB6095
:1026DC003B699B0C02333B61FB68002B06D13B69C9
:1026EC003B4A03FB02F27B681A6017E0364B5B68CF
:1026FC0003F40033002B06D03B69354A03FB02F28E
:10270C007B681A600AE03B69304A03FB02F27B6883
:10271C001A6003E07B682D4A1A6000BF2A4B5B6885
:10272C0003F0F0037B617B691B097B61294A7B69A0
:10273C0013441B78DBB2BB607B681A68BB68DA4059
:10274C007B685A60204B5B6803F4E0637B617B69B8
:10275C001B0A7B611F4A7B6913441B78DBB2BB608D
:10276C007B685A68BB68DA407B689A60164B5B687A
:10277C0003F460537B617B69DB0A7B61154A7B69DF
:10278C0013441B78DBB2BB607B685A68BB68DA40C9
:10279C007B68DA600C4B5B6803F440437B617B69BC
:1027AC009B0B7B610C4A7B6913441B78DBB2BB60CF
:1027BC007B68DA68BB68B2FBF3F27B681A6100BF16
:1027CC001C37BD4680BC70470010024000127A00D6
:1027DC0000093D00040000201400002080B483B0E8
:1027EC0000AF78600B46FB70FB78002B06D0094BD2
:1027FC005A6908497B6813434B6106E0054B5A69DB
:10280C007B68DB43034913404B6100BF0C37BD466B
:10281C0080BC70470010024080B483B000AF786079
:10282C000B46FB70FB78002B06D0094B9A690849C4
:10283C007B6813438B6106E0054B9A697B68DB432D
:10284C00034913408B6100BF0C37BD4680BC7047F9
:10285C000010024080B483B000AF78600B46FB7070
:10286C00FB78002B06D0094BDA6908497B681343C7
:10287C00CB6106E0054BDA697B68DB430349134007
:10288C00CB6100BF0C37BD4680BC704700100240C6
:10289C0080B483B000AF78600B46FB70FB78002BE4
:1028AC0006D0094BDA6808497B681343CB6006E015
:1028BC00054BDA687B68DB4303491340CB6000BFF0
:1028CC000C37BD4680BC70470010024080B483B00A
:1028DC0000AF78600B46FB70FB78002B06D0094BE1
:1028EC001A6908497B6813430B6106E0054B1A69AA
:1028FC007B68DB43034913400B6100BF0C37BD46BB
:10290C0080BC70470010024080B483B000AF034617
:10291C00FB71044AFB79136000BF0C37BD4680BCC9
:10292C00704700BF4004424280B483B000AF0346FE
:10293C00FB71044AFB79136000BF0C37BD4680BCA9
:10294C00704700BF4C00424280B483B000AF0346D6
:10295C00FB71044AFB79137000BF0C37BD4680BC79
:10296C00704700BF0710024080B487B000AF034629
:10297C00FB710023FB6000237B610023FB74FB795C
:10298C005B09DBB2FB60FB68012B03D1124B1B68AC
:10299C007B6109E0FB68022B03D10F4B1B6A7B6147
:1029AC0002E00D4B5B6A7B61FB7903F01F03FB605C
:1029BC007A69FB6822FA03F303F00103002B02D0BF
:1029CC000123FB7401E00023FB74FB7C18461C37CD
:1029DC00BD4680BC704700BF0010024080B400AF01
:1029EC00044B5B6A034A43F08073536200BFBD46DD
:1029FC0080BC70470010024080B485B000AF034625
:102A0C00FB710023FB73084B9A68FB791340002B76
:102A1C0002D00123FB7301E00023FB73FB7B184600
:102A2C001437BD4680BC70470010024080B483B0A0
:102A3C0000AF0346FB71044AFB79137000BF0C37DF
:102A4C00BD4680BC704700BF0A10024080B483B002
:102A5C0000AF78607B681A684FF6FE7313407A6893
:102A6C0013607B6800221A607B6800225A607B68C6
:102A7C0000229A607B680022DA607B68434A9342AA
:102A8C0006D1434B5B68424A43F00F03536077E037
:102A9C007B68404A934206D13D4B5B683C4A43F00D
:102AAC00F00353606CE07B683B4A934206D1384B91
:102ABC005B68374A43F47063536061E07B68374A64
:102ACC00934206D1324B5B68314A43F470435360F6
:102ADC0056E07B68324A934206D12D4B5B682C4AF8
:102AEC0043F4702353604BE07B682E4A934206D12B
:102AFC00274B5B68264A43F47003536040E07B68C5
:102B0C00294A934206D1224B5B68214A43F07063F9
:102B1C00536035E07B68254A934206D1244B5B68B1
:102B2C00234A43F00F0353602AE07B68214A934207
:102B3C0006D11F4B5B681E4A43F0F00353601FE045
:102B4C007B681D4A934206D1194B5B68184A43F4C3
:102B5C007063536014E07B68184A934206D1144B9F
:102B6C005B68134A43F47043536009E07B68144A72
:102B7C00934205D10E4B5B680D4A43F470235360AE
:102B8C0000BF0C37BD4680BC704700BF0800024038
:102B9C00000002401C000240300002404400024091
:102BAC00580002406C0002408000024008040240C1
:102BBC00000402401C040240300402404404024061
:102BCC005804024080B485B000AF786039600023AF
:102BDC00FB607B681B68FB60FB6823F4FF4323F0FE
:102BEC007003FB603B689A683B681B6A1A433B683E
:102BFC001B691A433B685B691A433B689B691A4320
:102C0C003B68DB691A433B685B6A1A433B689B6A07
:102C1C001343FA681343FB607B68FA681A603B68DD
:102C2C00DA687B685A603B681A687B689A603B6814
:102C3C005A687B68DA6000BF1437BD4680BC7047A9
:102C4C0080B483B000AF78607B6800221A607B6828
:102C5C0000225A607B6800229A607B680022DA604E
:102C6C007B6800221A617B6800225A617B68002213
:102C7C009A617B680022DA617B6800221A627B68A9
:102C8C0000225A627B6800229A6200BF0C37BD4654
:102C9C0080BC704780B483B000AF78600B46FB708B
:102CAC00FB78002B06D07B681B6843F001027B6825
:102CBC001A6006E07B681A684FF6FE7313407A6858
:102CCC00136000BF0C37BD4680BC704780B485B024
:102CDC0000AFF860B9601346FB71FB79002B06D08E
:102CEC00FB681A68BB681A43FB681A6006E0FB684D
:102CFC001A68BB68DB431A40FB681A6000BF1437C4
:102D0C00BD4680BC704780B483B000AF78600B4682
:102D1C007B807A887B685A6000BF0C37BD4680BCCC
:102D2C00704780B483B000AF78607B685B689BB2FF
:102D3C0018460C37BD4680BC704780B485B000AFD8
:102D4C0078600023FB730023BB607B6803F0805327
:102D5C00002B03D00B4B1B68BB6002E00A4B1B68BB
:102D6C00BB60BA687B681340002B02D00123FB7355
:102D7C0001E00023FB73FB7B18461437BD4680BC77
:102D8C00704700BF000402400000024080B483B0D2
:102D9C0000AF78607B6803F08053002B03D0064AA9
:102DAC007B68536002E0054A7B68536000BF0C37B8
:102DBC00BD4680BC704700BF0004024000000240CA
:102DCC0080B485B000AF78600023FB730023BB6038
:102DDC007B6803F08053002B03D00B4B1B68BB604C
:102DEC0002E00A4B1B68BB60BA687B681340002B7F
:102DFC0002D00123FB7301E00023FB73FB7B18461D
:102E0C001437BD4680BC70470004024000000240ED
:102E1C0080B483B000AF78607B6803F08053002BE4
:102E2C0003D0064A7B68536002E0054A7B68536016
:102E3C0000BF0C37BD4680BC704700BF0004024089
:102E4C000000024080B500AF154B1B68144A43F0DC
:102E5C0001031360124B5A681149124B13404B601B
:102E6C000F4B1B680E4A23F0847323F480331360DA
:102E7C000B4B1B680A4A23F480231360084B5B68D6
:102E8C00074A23F4FE035360054B4FF41F029A606C
:102E9C0000F07EF8044B4FF000629A6000BF80BDDA
:102EAC00001002400000FFF800ED00E080B485B097
:102EBC0000AF0023FB600023BB6000237B602F4B23
:102ECC005B6803F00C03FB60FB68082B11D0FB68FC
:102EDC00082B3AD8FB68002B03D0FB68042B04D0DA
:102EEC0033E0274B274A1A6033E0254B254A1A60FA
:102EFC002FE0224B5B6803F47013BB601F4B5B68C5
:102F0C0003F480337B60BB689B0C0233BB607B6833
:102F1C00002B06D1BB681C4A02FB03F3184A136052
:102F2C0017E0164B5B6803F40033002B06D0BB682C
:102F3C00154A02FB03F3124A13600AE0BB68114AFC
:102F4C0002FB03F30E4A136003E00D4B0D4A1A60AB
:102F5C0000BF0A4B5B681B0903F00F030B4AD35CE1
:102F6C00DBB2FB60064B1A68FB6822FA03F3044AD7
:102F7C00136000BF1437BD4680BC70470010024080
:102F8C001800002000127A0000093D001C000020EF
:102F9C0080B500AF00F002F800BF80BD80B483B0F4
:102FAC0000AF00237B6000233B603A4B1B68394A1F
:102FBC0043F480331360374B1B6803F400333B60DE
:102FCC007B6801337B603B68002B03D17B68B3F5D6
:102FDC00A06FF0D12F4B1B6803F40033002B02D0F1
:102FEC0001233B6001E000233B603B68012B4BD18C
:102FFC00294B1B68284A43F010031360264B1B68AF
:10300C00254A23F007031360234B1B68224A43F025
:10301C00020313601F4B1F4A5B6853601D4B1D4A14
:10302C005B6853601B4B5B681A4A43F480635360C4
:10303C00184B5B68174A23F47C135360154B5B6881
:10304C00144A43F4E8135360124B1B68114A43F0C3
:10305C008073136000BF0F4B1B6803F00073002BD1
:10306C00F9D00C4B5B680B4A23F003035360094BFC
:10307C005B68084A43F00203536000BF054B5B6872
:10308C0003F00C03082BF9D100BF0C37BD4680BCF4
:10309C00704700BF0010024000200240FFF7FEBF47
:1030AC000A480B490B4A9142BCBF50F8043B41F80B
:1030BC00043BF8DB084809494FF000028842BCBFCA
:1030CC0040F8042BFAE7FDF7ADFAFEE70F320008E3
:1030DC00000000202C0000202C0000208401002087
:1030EC000D0A3D3D3D2053544D33322053696D70D4
:1030FC006C6520566F6C74616765204D65746572E4
:10310C002077697468204B616C6D616E2046696C28
:10311C00746572203D3D3D0D0A00000052616E67E2
:10312C00653A2000332E335600000000352E305601
:10313C0000000000207C20507265737320504131D8
:10314C0020746F207377697463680D0A00000000A7
:10315C00466F726D61743A20526177286D56292042
:10316C007C2046696C7465726564286D5629207CD8
:10317C00204E6F6973650D0A0D0A00003E3E3E201D
:10318C00537769746368656420746F20352E3056EC
:10319C002072616E6765203C3C3C0D0A000000000B
:1031AC003E3E3E20537769746368656420746F20DB
:1031BC00332E33562072616E6765203C3C3C0D0A01
:1031CC00000000005261773A20000000206D56206C
:1031DC007C2046696C74657265643A2000000000BE
:1031EC00206D56207C204E6F6973653A20000000DC
:1031FC00206D56207C2052616E67653A20000000DD
:03320C000D0A00A8
:10320F00010000000000000001020304010203049A
:10321F00060708090204060800A24A04000000007D
:0C322F000000000001020304060708096B
:04000005080030AD12
:00000001FF
