:020000040800F2
:100000000050002075390008713900087139000866
:1000100071390008713900087139000800000000CA
:10002000000000000000000000000000713900081E
:1000300071390008000000007139000871390008AA
:1000400071390008713900087139000871390008E8
:1000500071390008713900087139000871390008D8
:1000600071390008713900087139000871390008C8
:100070007139000871390008AD08000871390008AD
:1000800071390008713900087139000871390008A8
:100090009107000871390008050800087139000847
:1000A0007139000871390008713900087139000888
:1000B0007139000871390008713900087139000878
:1000C0007139000871390008713900087139000868
:1000D0007139000871390008713900087139000858
:0C00E000713900087139000871390008FE
:1000EC0080B58AB000AF01214FF0007001F052FFD3
:1000FC000121042001F030FF4FF400633B814823C1
:10010C00FB7207F108031946364800F0AFFC4FF4B8
:10011C0080533B811823FB720323BB7207F1080346
:10012C001946304800F0A2FC2F4802F02FF807F1D6
:10013C001C03184602F0E0F9002387F82230002354
:10014C0087F82330002387F82430012387F82530E3
:10015C00002387F82630012387F827300023BB774C
:10016C000023FB77022387F82030032387F8213004
:10017C000923BB8307F11C0319461B4802F02AF81C
:10018C000023BB750023FB7501233B760023BB8149
:10019C000023FB8100233B8200237B820023BB8254
:1001AC0001237B7607F10C03184602F0E3F80122D9
:1001BC0002210D4802F0CEFD14233B7100237B710C
:1001CC000023BB710123FB713B1D184600F0CEFED2
:1001DC0016233B713B1D184600F0C8FE00BF2837A4
:1001EC00BD4680BD000801400064004080B582B06F
:1001FC0000AF214B40F223121A601F4B00225A60B1
:10020C001D4B00221A721C4B00225A721A4B0822E8
:10021C009A721A4B1B681B0EDAB2174BDA72174B19
:10022C001B681B0CDAB2144B1A73144B1B681B0A99
:10023C00DAB2114B5A73114B1B68DAB20E4B9A732C
:10024C000D4BAA22DA730C4B55221A740A4BCC2292
:10025C005A74094B33229A740749094802F00CFA74
:10026C000346FB71054B1B680133044A136000BF46
:10027C000837BD4680BD00BF280000208C00002040
:10028C000064004080B586B000AF0121042001F06D
:10029C0063FE01214FF4804001F05EFE4FF40073C9
:1002AC00BB821823FB750323BB7507F11403194696
:1002BC001C4800F0DBFB4FF48063BB820423FB750E
:1002CC0007F114031946174800F0D0FB4FF4E13343
:1002DC007B6000233B8100237B810023BB810023B7
:1002EC003B820C23FB813B1D19460F4800F04EFF4F
:1002FC0001210D4801F060F8012280210A4801F02B
:10030C00C1F80E233B7001237B700023BB700123CB
:10031C00FB703B46184600F029FE00BF1837BD465F
:10032C0080BD00BF000801400038014080B58CB092
:10033C0000AF0121012001F0F1FD144802F0EAFFA9
:10034C00134B7B60134BBB601023FB6000233B61A2
:10035C0000237B618023BB610023FB6100233B6294
:10036C0000237B624FF40053BB620023FB623B1DF6
:10037C001946064803F08AF801220221034803F0CB
:10038C0009F900BF3037BD4680BD00BF44000240B4
:10039C00043801405800002080B582B000AF012124
:1003AC00042001F0D9FD4FF480533B801023FB70E7
:1003BC000323BB703B4619460C4800F057FB142333
:1003CC00FB7108E0094BDB68084A83F48053D36067
:1003DC00074800F0B1F9FB795A1EFA71002BF1D1E4
:1003EC0000BF00BF0837BD4680BD00BF00080140FC
:1003FC008096980080B582B000AF0121142001F0E6
:10040C00ABFD0123BB804823FB710323BB713B1D58
:10041C0019460C4800F02AFB4FF40053BB80102304
:10042C00FB710323BB713B1D1946074800F01EFBF3
:10043C004FF40051044800F032FC00BF0837BD46B1
:10044C0080BD00BF000801400010014080B485B0A1
:10045C0000AF786039600023FB7331237B73FB7B27
:10046C001A1D7B7B9A4201DBFB7B3BE1FB7B5A1C1D
:10047C00FA731A469E4B4D219954FB7B5A1CFA7306
:10048C001A469B4B53219954FB7B5A1CFA731A4600
:10049C00974B47219954FB7B5A1CFA731A46944B81
:1004AC003A219954FB7B1A1D7B7B9A4201DBFB7B27
:1004BC0018E13B681B0B03F00F03092B08D83B68B2
:1004CC001B0BDBB203F00F03DBB23033DBB207E004
:1004DC003B681B0BDBB203F00F03DBB23733DBB231
:1004EC00FA7B511CF9731146814A53543B681B0A21
:1004FC0003F00F03092B08D83B681B0ADBB203F08F
:10050C000F03DBB23033DBB207E03B681B0ADBB214
:10051C0003F00F03DBB23733DBB2FA7B511CF973F8
:10052C001146734A53543B681B0903F00F03092B04
:10053C0008D83B681B09DBB203F00F03DBB2303386
:10054C00DBB207E03B681B09DBB203F00F03DBB245
:10055C003733DBB2FA7B511CF9731146644A53549E
:10056C003B6803F00F03092B07D83B68DBB203F0A1
:10057C000F03DBB23033DBB206E03B68DBB203F0D7
:10058C000F03DBB23733DBB2FA7B511CF973114624
:10059C00574A5354FB7B9A1D7B7B9A4201DBFB7BB6
:1005AC00A0E0FB7B5A1CFA731A46514B202199543C
:1005BC00FB7B5A1CFA731A464D4B44219954FB7B16
:1005CC005A1CFA731A464A4B41219954FB7B5A1C0C
:1005DC00FA731A46464B54219954FB7B5A1CFA73F6
:1005EC001A46434B41219954FB7B5A1CFA731A4609
:1005FC003F4B3A2199540023BB735AE0FB7B9A1C66
:10060C007B7B9A4201DBFB7B6CE0BB7B7A681344FF
:10061C001B781B09DBB2092B08D8BB7B7A68134407
:10062C001B781B09DBB23033DBB207E0BB7B7A688B
:10063C0013441B781B09DBB23733DBB2FA7B511C3A
:10064C00F97311462A4A5354BB7B7A6813441B78BE
:10065C0003F00F03092B09DCBB7B7A6813441B786E
:10066C0003F00F03DBB23033DBB208E0BB7B7A68FC
:10067C0013441B7803F00F03DBB23733DBB2FA7B86
:10068C00511CF97311461A4A5354BB7B062B0DD8D7
:10069C00FB7B5A1C7B7B9A4201DBFB7B22E0FB7BC6
:1006AC005A1CFA731A46124B20219954BB7B013306
:1006BC00BB73BB7B072BA1D9FB7B9A1C7B7B9A4220
:1006CC0001DBFB7B0EE0FB7B5A1CFA731A46084BD2
:1006DC000D219954FB7B5A1CFA731A46044B0A21C0
:1006EC009954FB7B18461437BD4680BC704700BF3D
:1006FC005800002080B582B000AF0346FB8000BFDD
:10070C000B4B1B78DBB2002BFAD1094B01221A7070
:10071C000021084802F022FF064AFB8853600121A1
:10072C00044802F01BFF00BF0837BD4680BD00BF68
:10073C008B0000204400024080B483B000AF78608E
:10074C0000BF7B685A1E7A60002BFAD100BF00BF35
:10075C000C37BD4680BC704780B500AF074B1B788B
:10076C00DBB2012B07D94FF40051054800F0A5FA74
:10077C00024B00221A7000BF80BD00BF8B0000200E
:10078C000010014080B582B000AF0221154802F084
:10079C009DFB0346012B21D1134A0021114802F085
:1007AC00E8F8124BDB68114A83F40053D360002342
:1007BC00FB7109E0FA79FB790B490A44D17A0C4AAE
:1007CC00D154FB790133FB71FB79072BF2D9094B1F
:1007DC0001221A700221034802F0AAFC00BF08375C
:1007EC00BD4680BD006400403C000020001001406C
:1007FC00500000208A00002080B500AF4FF400416B
:10080C00254802F063FB0346012B0AD1234BDB681E
:10081C00224A83F40053D3604FF400411E4802F087
:10082C0087FC4FF480611C4802F050FB0346012BFF
:10083C000AD11A4BDB68194A83F40053D3604FF486
:10084C008061154802F074FC4FF40071124802F0FC
:10085C003DFB0346012B0AD1104BDB680F4A83F496
:10086C000053D3604FF400710B4802F061FC4FF45D
:10087C008071094802F02AFB0346012B0AD1074B71
:10088C00DB68064A83F40053D3604FF4807102484E
:10089C0002F04EFC00BF80BD00640040001001401F
:1008AC0080B500AF4FF4005002F0EEFE0346012B72
:1008BC0006D1044B00221A704FF4005002F00CFFCA
:1008CC0000BF80BD8B00002080B582B000AF02F06D
:1008DC001DFFFFF78FFDFFF729FDFFF7D3FCFFF797
:1008EC00FFFB1C4BDB681B4A83F40053D36062B6DE
:1008FC0000BFFFF731FF0121174800F086F90346CE
:10090C00002B09D1154B1B78002B08D1134B01225E
:10091C001A70FFF76BFC02E0104B00221A70104BA0
:10092C001B78DBB2002B10D00E4B1B68013B194619
:10093C000D48FFF78BFD0346FB71FB799BB2184604
:10094C00FFF7D8FE064B00221A700848FFF7F4FE9A
:10095C00CFE700BF001001400008014090000020CC
:10096C008A0000208C00002050000020A08601008E
:10097C0080B582B000AF78607B682F4A934208D173
:10098C000121042001F024FB0021042001F020FBB4
:10099C004EE07B68294A934208D10121082001F0DE
:1009AC0017FB0021082001F013FB41E07B68244A6F
:1009BC00934208D10121102001F00AFB00211020E4
:1009CC0001F006FB34E07B681E4A934208D10121FA
:1009DC00202001F0FDFA0021202001F0F9FA27E097
:1009EC007B68194A934208D10121402001F0F0FAAA
:1009FC000021402001F0ECFA1AE07B68134A934284
:100A0C0008D10121802001F0E3FA0021802001F0BF
:100A1C00DFFA0DE07B680E4A934209D101214FF4B5
:100A2C00807001F0D5FA00214FF4807001F0D0FAFB
:100A3C0000BF0837BD4680BD00080140000C0140D6
:100A4C00001001400014014000180140001C01403E
:100A5C000020014080B500AF0121012001F0B8FA5F
:100A6C000021012001F0B4FA00BF80BD80B489B030
:100A7C0000AF786039600023FB6100233B610023E9
:100A8C00BB610023FB6000237B610023BB603B68E0
:100A9C00DB7803F00F03FB613B68DB7803F010039A
:100AAC00002B05D03B689B781A46FB691343FB610E
:100ABC003B681B88DBB2002B44D07B681B687B61D6
:100ACC000023BB6138E00122BB6902FA03F3FB602F
:100ADC003B681B881A46FB6813403B613A69FB680C
:100AEC009A4226D1BB699B00FB600F22FB6802FA7D
:100AFC0003F3BB60BB68DB437A6913407B61FA6923
:100B0C00FB6802FA03F37A6913437B613B68DB7879
:100B1C00282B05D10122BB699A407B685A6108E0F9
:100B2C003B68DB78482B04D10122BB699A407B6877
:100B3C001A61BB690133BB61BB69072BC3D97B68E5
:100B4C007A691A603B681B88FF2B46D97B685B6807
:100B5C007B610023BB613AE0BB690833012202FAD6
:100B6C0003F3FB603B681B881A46FB6813403B6130
:100B7C003A69FB689A4227D1BB699B00FB600F2244
:100B8C00FB6802FA03F3BB60BB68DB437A69134072
:100B9C007B61FA69FB6802FA03F37A6913437B61A0
:100BAC003B68DB78282B05D1BB69083301229A40BE
:100BBC007B685A613B68DB78482B05D1BB690833ED
:100BCC0001229A407B681A61BB690133BB61BB6926
:100BDC00072BC1D97B687A695A6000BF2437BD46A0
:100BEC0080BC704780B483B000AF78607B684FF6F0
:100BFC00FF721A807B6802229A707B680422DA707A
:100C0C0000BF0C37BD4680BC704780B485B000AFC8
:100C1C0078600B467B800023FB737B689A687B882B
:100C2C001340002B02D00123FB7301E00023FB7364
:100C3C00FB7B18461437BD4680BC704780B483B02C
:100C4C0000AF78607B689B689BB218460C37BD463A
:100C5C0080BC704780B485B000AF78600B467B8059
:100C6C000023FB737B68DA687B881340002B02D06F
:100C7C000123FB7301E00023FB73FB7B1846143745
:100C8C00BD4680BC704780B483B000AF78607B6891
:100C9C00DB689BB218460C37BD4680BC704780B4ED
:100CAC0083B000AF78600B467B807A887B681A61D2
:100CBC0000BF0C37BD4680BC704780B483B000AF1A
:100CCC0078600B467B807A887B685A6100BF0C3752
:100CDC00BD4680BC704780B483B000AF78600B46D3
:100CEC007B8013467B707B78002B03D07A887B68E3
:100CFC001A6102E07A887B685A6100BF0C37BD46E6
:100D0C0080BC704780B483B000AF78600B467B80AA
:100D1C007A887B68DA6000BF0C37BD4680BC7047B0
:100D2C0080B485B000AF78600B467B804FF4803385
:100D3C00FB607B88FA681343FB607B68FA689A61F6
:100D4C007A887B689A617B68FA689A617B689B6990
:100D5C00FB607B689B69FB6000BF1437BD4680BCA1
:100D6C00704780B485B000AF03460A46FB7113464A
:100D7C00BB710023FB600C4B1B68FB60FA684FF6E1
:100D8C0080731340FB60FB791B01FA681343FB6013
:100D9C00BB79FA681343FB60034AFB68136000BF1E
:100DAC001437BD4680BC70470000014080B483B04E
:100DBC0000AF0346FB71044AFB79136000BF0C378C
:100DCC00BD4680BC704700BF1C00204280B487B079
:100DDC0000AF78600B46FB7000233B610023FB6087
:100DEC0000237B610023BB607B68002B03DA2E4B56
:100DFC00DB697B6102E02C4B5B687B617B681B0CC5
:100E0C0003F00F03BB607B689BB23B617B6803F410
:100E1C004013B3F5401F0AD17B6923F070637B61EB
:100E2C00214B5B68204A23F07063536021E07B68A0
:100E3C0003F48013002B0ED00322BB6802FA03F3D9
:100E4C00FB60FB68DB437A6913407B617B6943F091
:100E5C0070637B610DE07B685B0D1B013A6902FAE4
:100E6C0003F3DB437A6913407B617B6943F0706366
:100E7C007B61FB78002B08D07B685B0D1B013A690A
:100E8C0002FA03F37A6913437B617B68002B03DA64
:100E9C00054A7B69D36102E0034A7B69536000BF5A
:100EAC001C37BD4680BC70470000014080B485B043
:100EBC0000AF03460A46FB711346BB710023FB606F
:100ECC00BB7903F003039B000F2202FA03F3FB60D0
:100EDC00154ABB799B08DBB2023352F82320FB681E
:100EEC00DB431148B9798908C9B21A408B1C40F808
:100EFC0023200D4ABB799B08DBB2023352F8232026
:100F0C00F979BB7903F003039B0001FA03F306485C
:100F1C00B9798908C9B21A438B1C40F8232000BF49
:100F2C001437BD4680BC70470000014080B483B0CC
:100F3C0000AF7860034A7B68136000BF0C37BD4676
:100F4C0080BC7047DC00204280B483B000AF786076
:100F5C00054A7B6843F0BF6343F40033D36000BFA2
:100F6C000C37BD4680BC704700ED00E080B487B004
:100F7C0000AF786000237B6100233B610F23FB6093
:100F8C007B68DB78002B3AD0274BDB68DB431B0AF2
:100F9C0003F007037B617B69C3F104033B61FA68CF
:100FAC007B6922FA03F3FB607B685B781A463B692A
:100FBC0002FA03F37B617B689B781A46FB6813404B
:100FCC007A6913437B617B691B017B61174A7B68E0
:100FDC001B787969C9B213440A4683F800237B68ED
:100FEC001B7803F01F0311497A6812785209D2B2A8
:100FFC001046012202FA03F341F820300FE07B681F
:10100C001B7803F01F0309497A6812785209D2B28F
:10101C00104601229A4000F1200341F8232000BF22
:10102C001C37BD4680BC704700ED00E000E100E0DD
:10103C0080B483B000AF786039603B6823F06043C4
:10104C0023F07F0304497A6813438B6000BF0C378D
:10105C00BD4680BC704700BF00ED00E080B483B09B
:10106C0000AF03460A46FB711346BB71BB79002BDC
:10107C0006D0094B1A69FB79074913430B6106E04B
:10108C00054B1A69FB79DB43034913400B6100BF25
:10109C000C37BD4680BC704700ED00E080B483B0D7
:1010AC0000AF78607B68042B06D1094B1B68084A9B
:1010BC0043F00403136005E0054B1B68044A23F05E
:1010CC000403136000BF0C37BD4680BC704700BFE3
:1010DC0010E000E080B582B000AF78607B68264AF3
:1010EC0093420AD101214FF4804000F071FF00219E
:1010FC004FF4804000F06CFF3AE07B681F4A93424B
:10110C000AD101214FF4003000F080FF00214FF490
:10111C00003000F07BFF2BE07B68194A93420AD128
:10112C0001214FF4802000F071FF00214FF480204A
:10113C0000F06CFF1CE07B68124A93420AD101213B
:10114C004FF4002000F062FF00214FF4002000F06B
:10115C005DFF0DE07B680C4A934209D101214FF4ED
:10116C00801000F053FF00214FF4801000F04EFF70
:10117C0000BF0837BD4680BD003801400044004028
:10118C0000480040004C00400050004080B58CB03E
:10119C0000AF786039600023FB620023BB62002340
:1011AC007B6200233B620023FB617B68FB617B68F5
:1011BC001B8A9BB2FB62FA6A4CF6FF731340FB620C
:1011CC003B68DB881A46FB6A1343FB62FB6A9AB2E4
:1011DC007B681A827B689B899BB2FB62FA6A4EF62B
:1011EC00F3131340FB623B689A883B681B891343DB
:1011FC009AB23B685B8913439BB21A46FB6A134352
:10120C00FB62FB6A9AB27B689A817B689B8A9BB271
:10121C00FB62FA6A4FF6FF431340FB623B689B8903
:10122C001A46FB6A1343FB62FB6A9AB27B689A828A
:10123C0007F10803184600F0BBFDFB692E4A9342E8
:10124C0002D17B69BB6201E03B69BB627B689B8915
:10125C009BB21BB2002B0CDABA6A13469B001344E8
:10126C009A001A443B681B685B00B2FBF3F37B6289
:10127C000BE0BA6A13469B0013449A001A443B686D
:10128C001B689B00B2FBF3F37B627B6A1B4AA2FBDD
:10129C0003235B091B01FB62FB6A1B09642202FB33
:1012AC0003F37A6AD31A3B627B689B899BB21BB2AD
:1012BC00002B0CDA3B6ADB003233104AA2FB03230F
:1012CC005B0903F00703FA6A1343FB620BE03B6A0A
:1012DC001B013233094AA2FB03235B0903F00F0302
:1012EC00FA6A1343FB62FB6A9AB27B681A8100BFED
:1012FC003037BD4680BD00BF003801401F85EB5123
:10130C0080B483B000AF78607B684FF416521A60DB
:10131C007B6800229A807B680022DA807B6800223E
:10132C001A817B680C225A817B6800229A8100BF4B
:10133C000C37BD4680BC704780B485B000AF786078
:10134C0039600023FB607B681B8A9BB2FB60FA68E8
:10135C004FF2FF031340FB603B681A883B685B88C5
:10136C0013439AB23B689B8813439AB23B68DB8861
:10137C0013439BB21A46FB681343FB60FB689AB29B
:10138C007B681A8200BF1437BD4680BC704780B49E
:10139C0083B000AF78607B6800221A807B680022E3
:1013AC005A807B6800229A807B680022DA8000BF1A
:1013BC000C37BD4680BC704780B483B000AF7860FA
:1013CC000B46FB70FB78002B08D07B689B899BB28B
:1013DC0043F400539AB27B689A8107E07B689B893F
:1013EC009BB223F400539AB27B689A8100BF0C37EE
:1013FC00BD4680BC704780B487B000AF78600B46A8
:10140C007B8013467B7000233B610023FB60002331
:10141C00BB6000237B617B687B617B88DBB25B09F3
:10142C00DBB23B617B8803F01F03FB600122FB688E
:10143C0002FA03F3BB603B69012B03D17B690C33CC
:10144C007B6109E03B69022B03D17B6910337B6123
:10145C0002E07B6914337B617B78002B06D07B69BF
:10146C0019687B69BA680A431A6006E07B691968D7
:10147C00BB68DA437B690A401A6000BF1C37BD4663
:10148C0080BC704780B483B000AF78600B467B8023
:10149C0013467B707B78002B08D07B689B8A9AB2B2
:1014AC007B8813439AB27B689A8209E07B689B8A9B
:1014BC009AB27B88DB439BB213409AB27B689A82C8
:1014CC0000BF0C37BD4680BC704780B483B000AF02
:1014DC0078600B46FB707B681B8A9BB223F00F0372
:1014EC009AB27B681A827B681B8A9AB2FB789BB291
:1014FC0013439AB27B681A8200BF0C37BD4680BC7E
:10150C00704780B483B000AF78600B467B807B68FB
:10151C009B899BB223F400639AB27B689A817B68A7
:10152C009B899AB27B8813439AB27B689A8100BFDD
:10153C000C37BD4680BC704780B483B000AF786078
:10154C000B46FB70FB78002B08D07B689B899BB209
:10155C0043F002039AB27B689A8107E07B689B890F
:10156C009BB223F002039AB27B689A8100BF0C37BE
:10157C00BD4680BC704780B483B000AF78600B462A
:10158C007B807B681B8A9BB223F020039AB27B681A
:10159C001A827B681B8A9AB27B8813439AB27B6847
:1015AC001A8200BF0C37BD4680BC704780B483B034
:1015BC0000AF78600B46FB70FB78002B08D07B6883
:1015CC001B8A9BB243F480439AB27B681A8207E071
:1015DC007B681B8A9BB223F480439AB27B681A8285
:1015EC0000BF0C37BD4680BC704780B483B000AFE1
:1015FC0078600B467B807B88C3F308039AB27B68C8
:10160C009A8000BF0C37BD4680BC704780B483B055
:10161C0000AF78607B689B889BB2C3F308039BB2D6
:10162C0018460C37BD4680BC704780B483B000AF01
:10163C0078607B689B899BB243F001039AB27B680C
:10164C009A8100BF0C37BD4680BC704780B483B014
:10165C0000AF78600B46FB707B681B8B9BB2DBB2D8
:10166C009AB27B681A837B681B8B9AB2FB789BB20D
:10167C001B029BB213439AB27B681A8300BF0C37D0
:10168C00BD4680BC704780B483B000AF78600B4619
:10169C00FB707B681B8B9BB223F0FF039AB27B68B9
:1016AC001A837B681B8B9AB2FB789BB213439AB25A
:1016BC007B681A8300BF0C37BD4680BC704780B472
:1016CC0083B000AF78600B46FB70FB78002B08D022
:1016DC007B689B8A9BB243F020039AB27B689A8208
:1016EC0007E07B689B8A9BB223F020039AB27B684D
:1016FC009A8200BF0C37BD4680BC704780B483B063
:10170C0000AF78600B46FB70FB78002B08D07B6831
:10171C009B8A9BB243F010039AB27B689A8207E0D3
:10172C007B689B8A9BB223F010039AB27B689A82E7
:10173C0000BF0C37BD4680BC704780B483B000AF8F
:10174C0078600B46FB70FB78002B08D07B689B8A7B
:10175C009BB243F008039AB27B689A8207E07B68DD
:10176C009B8A9BB223F008039AB27B689A8200BFD3
:10177C000C37BD4680BC704780B483B000AF786036
:10178C000B46FB70FB78002B0AD07B689B899BB2C5
:10179C006FEA43436FEA53439AB27B689A8107E03E
:1017AC007B689B899BB2C3F30E039AB27B689A81C8
:1017BC0000BF0C37BD4680BC704780B483B000AF0F
:1017CC0078600B46FB70FB78002B08D07B689B8AFB
:1017DC009BB243F400639AB27B689A8207E07B6801
:1017EC009B8A9BB223F400639AB27B689A8200BFF7
:1017FC000C37BD4680BC704780B483B000AF7860B6
:10180C000B467B807B689B8A9BB223F004039AB2C5
:10181C007B689A827B689B8A9AB27B8813439AB2C4
:10182C007B689A8200BF0C37BD4680BC704780B481
:10183C0083B000AF78600B46FB70FB78002B08D0B0
:10184C007B689B8A9BB243F002039AB27B689A82B4
:10185C0007E07B689B8A9BB223F002039AB27B68F9
:10186C009A8200BF0C37BD4680BC704780B485B0EF
:10187C0000AF78600B467B800023FB737B681B8872
:10188C009AB27B8813409BB2002B02D00123FB73CE
:10189C0001E00023FB73FB7B18461437BD4680BC6C
:1018AC00704780B483B000AF78600B467B807B8838
:1018BC00DB439AB27B681A8000BF0C37BD4680BCF4
:1018CC00704780B487B000AF78600B467B800023F4
:1018DC00FB6000237B610023BB600023FB747B88CF
:1018EC00DBB25B09DBB2BB607B8803F01F037B615F
:1018FC0001227B6902FA03F37B61BB68012B07D1E0
:10190C007B689B899BB21A467B6913407B6111E013
:10191C00BB68022B07D17B681B8A9BB21A467B697A
:10192C0013407B6106E07B689B8A9BB21A467B69FD
:10193C0013407B617B881B0A9BB2FB600122FB6816
:10194C0002FA03F3FB607B681B889BB21A46FB68A8
:10195C001340FB607B69002B05D0FB68002B02D089
:10196C000123FB7401E00023FB74FB7C18461C373D
:10197C00BD4680BC704780B485B000AF78600B4624
:10198C007B800023FB810023BB817B881B0AFB81AE
:10199C00FB89012202FA03F3BB81BB89DB439AB2B8
:1019AC007B681A8000BF1437BD4680BC704700BFEF
:1019BC0080B400AF134B1B68124A43F00103136051
:1019CC00104B5A680F49104B13404B600D4B1B6862
:1019DC000C4A23F0847323F480331360094B1B6887
:1019EC00084A23F480231360064B5B68054A23F4F2
:1019FC00FE035360034B4FF41F029A6000BFBD46B9
:101A0C0080BC7047001002400000FFF880B483B027
:101A1C0000AF7860134B1B68124A23F480331360B9
:101A2C00104B1B680F4A23F4802313607B68B3F5BB
:101A3C00803F04D07B68B3F5802F07D00DE0094BB5
:101A4C001B68084A43F48033136006E0054B1B689F
:101A5C00044A43F4A023136000BF00BF0C37BD46FB
:101A6C0080BC70470010024080B582B000AF0023EC
:101A7C003B600023FB710023BB71312000F014FB91
:101A8C000346BB713B6801333B603B68B3F5A06F09
:101A9C0002D0BB79002BF0D0312000F005FB0346BF
:101AAC00002B02D00123FB7101E00023FB71FB79B9
:101ABC0018460837BD4680BD80B485B000AF0346DC
:101ACC00FB710023FB600A4B1B68FB60FB6823F077
:101ADC00F803FB60FB79DB00FA681343FB60044AF4
:101AEC00FB68136000BF1437BD4680BC704700BF55
:101AFC000010024080B483B000AF0346FB71044A6F
:101B0C00FB79136000BF0C37BD4680BC704700BF2B
:101B1C000000424280B485B000AF78603960002389
:101B2C00FB600A4B5B68FB60FB6823F47C13FB6077
:101B3C007A683B681343FA681343FB60034AFB68FB
:101B4C00536000BF1437BD4680BC70470010024084
:101B5C0080B483B000AF0346FB71044AFB79136079
:101B6C0000BF0C37BD4680BC704700BF60004242CE
:101B7C0080B485B000AF78600023FB60094B5B68D4
:101B8C00FB60FB6823F00303FB60FA687B6813437C
:101B9C00FB60044AFB68536000BF1437BD4680BC31
:101BAC00704700BF0010024080B400AF044B5B686C
:101BBC00DBB203F00C03DBB21846BD4680BC7047A9
:101BCC000010024080B485B000AF78600023FB6049
:101BDC00094B5B68FB60FB6823F0F003FB60FA6861
:101BEC007B681343FB60044AFB68536000BF1437E7
:101BFC00BD4680BC704700BF0010024080B485B069
:101C0C0000AF78600023FB60094B5B68FB60FB68EE
:101C1C0023F4E063FB60FA687B681343FB60044ABF
:101C2C00FB68536000BF1437BD4680BC704700BFD3
:101C3C000010024080B485B000AF78600023FB60D8
:101C4C00094B5B68FB60FB6823F46053FB607B68AB
:101C5C00DB00FA681343FB60034AFB68536000BF68
:101C6C001437BD4680BC70470010024080B483B06E
:101C7C0000AF03460A46FB711346BB71BB79002BC0
:101C8C0008D00C4B1B78DAB20A49FB791343DBB250
:101C9C000B7009E0074B1B78DAB2FB79DB43DBB244
:101CAC0004491340DBB20B7000BF0C37BD4680BC3F
:101CBC00704700BF0910024080B483B000AF786059
:101CCC00034A7B68136000BF0C37BD4680BC70476D
:101CDC00D800424280B485B000AF78600023FB602E
:101CEC00094B5B68FB60FB6823F44043FB60FA68BC
:101CFC007B681343FB60044AFB68536000BF1437D6
:101D0C00BD4680BC704700BF0010024080B483B059
:101D1C0000AF0346FB710C4B00221A700A4B0022D9
:101D2C001A70FB79012B02D0042B04D007E0064B70
:101D3C0001221A7003E0044B05221A7000BF00BF89
:101D4C000C37BD4680BC70472010024080B483B075
:101D5C0000AF0346FB71044AFB79136000BF0C37DC
:101D6C00BD4680BC704700BF8004424280B483B043
:101D7C0000AF7860054B1A6A04497B6813430B6209
:101D8C0000BF0C37BD4680BC704700BF001002403E
:101D9C0080B483B000AF0346FB71044AFB79136037
:101DAC0000BF0C37BD4680BC704700BF3C044242AC
:101DBC0080B487B000AF786000237B6100233B6167
:101DCC000023FB600023BB604F4B5B6803F00C03EC
:101DDC007B617B69082B11D07B69082B3AD87B6916
:101DEC00002B03D07B69042B04D033E07B68474A7B
:101DFC001A6033E07B68454A1A602FE0424B5B68FF
:101E0C0003F470133B61404B5B6803F48033FB605D
:101E1C003B699B0C02333B61FB68002B06D13B6991
:101E2C003B4A03FB02F27B681A6017E0364B5B6897
:101E3C0003F40033002B06D03B69354A03FB02F256
:101E4C007B681A600AE03B69304A03FB02F27B684C
:101E5C001A6003E07B682D4A1A6000BF2A4B5B684E
:101E6C0003F0F0037B617B691B097B61294A7B6969
:101E7C0013441B78DBB2BB607B681A68BB68DA4022
:101E8C007B685A60204B5B6803F4E0637B617B6981
:101E9C001B0A7B611F4A7B6913441B78DBB2BB6056
:101EAC007B685A68BB68DA407B689A60164B5B6843
:101EBC0003F460537B617B69DB0A7B61154A7B69A8
:101ECC0013441B78DBB2BB607B685A68BB68DA4092
:101EDC007B68DA600C4B5B6803F440437B617B6985
:101EEC009B0B7B610C4A7B6913441B78DBB2BB6098
:101EFC007B68DA68BB68B2FBF3F27B681A6100BFDF
:101F0C001C37BD4680BC70470010024000127A009E
:101F1C0000093D00000000201000002080B483B0B8
:101F2C0000AF78600B46FB70FB78002B06D0094B9A
:101F3C005A6908497B6813434B6106E0054B5A69A3
:101F4C007B68DB43034913404B6100BF0C37BD4634
:101F5C0080BC70470010024080B483B000AF786042
:101F6C000B46FB70FB78002B06D0094B9A6908498D
:101F7C007B6813438B6106E0054B9A697B68DB43F6
:101F8C00034913408B6100BF0C37BD4680BC7047C2
:101F9C000010024080B483B000AF78600B46FB7039
:101FAC00FB78002B06D0094BDA6908497B68134390
:101FBC00CB6106E0054BDA697B68DB4303491340D0
:101FCC00CB6100BF0C37BD4680BC7047001002408F
:101FDC0080B483B000AF78600B46FB70FB78002BAD
:101FEC0006D0094BDA6808497B681343CB6006E0DE
:101FFC00054BDA687B68DB4303491340CB6000BFB9
:10200C000C37BD4680BC70470010024080B483B0D2
:10201C0000AF78600B46FB70FB78002B06D0094BA9
:10202C001A6908497B6813430B6106E0054B1A6972
:10203C007B68DB43034913400B6100BF0C37BD4683
:10204C0080BC70470010024080B483B000AF0346E0
:10205C00FB71044AFB79136000BF0C37BD4680BC92
:10206C00704700BF4004424280B483B000AF0346C7
:10207C00FB71044AFB79136000BF0C37BD4680BC72
:10208C00704700BF4C00424280B483B000AF03469F
:10209C00FB71044AFB79137000BF0C37BD4680BC42
:1020AC00704700BF0710024080B487B000AF0346F2
:1020BC00FB710023FB6000237B610023FB74FB7925
:1020CC005B09DBB2FB60FB68012B03D1124B1B6875
:1020DC007B6109E0FB68022B03D10F4B1B6A7B6110
:1020EC0002E00D4B5B6A7B61FB7903F01F03FB6025
:1020FC007A69FB6822FA03F303F00103002B02D088
:10210C000123FB7401E00023FB74FB7C18461C3795
:10211C00BD4680BC704700BF0010024080B400AFC9
:10212C00044B5B6A034A43F08073536200BFBD46A5
:10213C0080BC70470010024080B485B000AF0346ED
:10214C00FB710023FB73084B9A68FB791340002B3F
:10215C0002D00123FB7301E00023FB73FB7B1846C9
:10216C001437BD4680BC70470010024080B483B069
:10217C0000AF0346FB71044AFB79137000BF0C37A8
:10218C00BD4680BC704700BF0A10024080B582B0CB
:10219C0000AF78607B680E4A93420AD101214FF060
:1021AC000070FFF733FF00214FF00070FFF72EFF98
:1021BC0009E001214FF08060FFF728FF00214FF06C
:1021CC008060FFF723FF00BF0837BD4680BD00BF0E
:1021DC000064004080B485B000AF786039600023A3
:1021EC00FB730023BB607B681B6823F002027B68D7
:1021FC001A607B681B6843F001027B681A6002E07E
:10220C00BB680133BB607B685B6803F00103012B87
:10221C0004D0BB684FF6FF729342F1D17B685B68C8
:10222C0003F00103012B02D00023FB739CE03B68FD
:10223C009B79012B06D17B681B6843F080027B687D
:10224C001A6005E07B681B6823F080027B681A60CB
:10225C003B68DB79012B06D17B681B6843F040029D
:10226C007B681A6005E07B681B6823F040027B6882
:10227C001A603B681B7A012B06D17B681B6843F004
:10228C0020027B681A6005E07B681B6823F0200243
:10229C007B681A603B685B7A012B06D17B681B68F4
:1022AC0043F010027B681A6005E07B681B6823F022
:1022BC0010027B681A603B689B7A012B06D17B6805
:1022CC001B6843F008027B681A6005E07B681B689A
:1022DC0023F008027B681A603B68DB7A012B06D17D
:1022EC007B681B6843F004027B681A6005E07B681E
:1022FC001B6823F004027B681A603B689B789A0782
:10230C003B68DB781B061A433B681B791B041A439A
:10231C003B685B791B051A433B681B88013B1A43DE
:10232C007B68DA617B681B6823F001027B681A60AA
:10233C000023BB6002E0BB680133BB607B685B6859
:10234C0003F00103012B04D1BB684FF6FF729342DB
:10235C00F1D17B685B6803F00103012B02D10023F0
:10236C00FB7301E00123FB73FB7B18461437BD465E
:10237C0080BC704790B484B000AF78600023FB60E1
:10238C007B689B7A1A4601239340FB60594BD3F828
:10239C000032584A43F00103C2F80032554BD3F8CF
:1023AC001C22FB68DB4353491340C1F81C327B6889
:1023BC001B7B002B29D14F4BD3F80C22FB68DB4342
:1023CC004C491340C1F80C327B68DB881B047A68DB
:1023DC005288144647497A68927A104643EA0402B6
:1023EC0000F1480341F833207B689B881B047A6812
:1023FC00128814463F497A68927A104643EA0402DE
:10240C0000F14803DB000B445A607B681B7B012BFB
:10241C0028D1384BD3F80C223649FB681343C1F84A
:10242C000C327B681B881B047A685288144631492D
:10243C007A68927A104643EA040200F1480341F8A4
:10244C0033207B689B881B047A68D2881446294900
:10245C007A68927A104643EA040200F14803DB00E2
:10246C000B445A607B68DB7A002B09D1214BD3F8E3
:10247C000422FB68DB431F491340C1F8043207E018
:10248C001C4BD3F804221B49FB681343C1F80432DC
:10249C007B681B89002B08D1164BD3F81422FB68E0
:1024AC00DB4314491340C1F814327B681B89012BA0
:1024BC0007D1104BD3F814220E49FB681343C1F813
:1024CC0014327B685B7B012B07D10A4BD3F81C229F
:1024DC000849FB681343C1F81C32064BD3F8003291
:1024EC00044A23F00103C2F8003200BF1037BD4686
:1024FC0090BC70470064004080B483B000AF78603B
:10250C007B6800229A717B680022DA717B6800225A
:10251C001A727B6800225A727B6800229A727B685E
:10252C000022DA727B6800229A707B680022DA70D3
:10253C007B6803221A717B6802225A717B68012224
:10254C001A8000BF0C37BD4680BC704780B483B086
:10255C0000AF0346FB71144BD3F80032124A43F020
:10256C000103C2F80032104BD3F800320E4A23F4A8
:10257C007C5323F00E03C2F800320B4BD3F800222D
:10258C00FB791B0208491343C1F80032064BD3F800
:10259C000032054A23F00103C2F8003200BF0C37A9
:1025AC00BD4680BC704700BF0064004080B483B05F
:1025BC0000AF78600B46FB70FB78002B06D07B6875
:1025CC001B6843F480327B681A6005E07B681B68EB
:1025DC0023F480327B681A6000BF0C37BD4680BC88
:1025EC00704780B483B000AF78600B46FB70FB780B
:1025FC00002B1ED07B681B6843F080027B681A603E
:10260C007B68D3F8843143F480727B68C3F88421EF
:10261C007B68D3F8943143F480727B68C3F89421BF
:10262C007B68D3F8A43143F480727B68C3F8A4218F
:10263C001DE07B681B6823F080027B681A607B6856
:10264C00D3F8843123F480727B68C3F884217B68CF
:10265C00D3F8943123F480727B68C3F894217B689F
:10266C00D3F8A43123F480727B68C3F8A42100BF93
:10267C000C37BD4680BC704780B485B000AF786025
:10268C0039600023FB737B689B6803F08063B3F1B4
:10269C00806F02D10023FB7315E07B689B6803F00D
:1026AC000063B3F1006F02D10123FB730BE07B6875
:1026BC009B6803F08053B3F1805F02D10223FB735C
:1026CC0001E00423FB73FB7B042B00F09F80FB7B5E
:1026DC007A6818331B0113441A68FB7B02F0010261
:1026EC00796818331B010B441A603B681B7A002B6A
:1026FC0013D1FB7B7A6818331B01134419683B68B0
:10270C001B685B053A68527A1A43FB7B0A4379686B
:10271C0018331B010B441A6015E0FB7B7A681833E5
:10272C001B01134419683B685B68DB003A68127A3A
:10273C0013433A68527A1A43FB7B0A43796818337D
:10274C001B010B441A603B689B7A03F00F03DAB24F
:10275C003B689A72FB7B7A6818331B011344043371
:10276C001A68FB7B22F00F02796818331B010B44AB
:10277C0004331A60FB7B7A6818331B01134404334F
:10278C001A683B689B7A1946FB7B0A4379681833B5
:10279C001B010B4404331A603B689B7B1A063B6895
:1027AC005B7B1B041A433B681B7B1B021A433B6875
:1027BC00DB7A1946FB7B0A4379681B010B4403F552
:1027CC00C4731A603B689B7C1A063B685B7C1B04D9
:1027DC001A433B681B7C1B021A433B68DB7B194684
:1027EC00FB7B0A4379681B010B4403F5C6731A6023
:1027FC00FB7B7A6818331B0113441A68FB7B42F08D
:10280C000102796818331B010B441A60FB7B1846D4
:10281C001437BD4680BC704780B485B000AF78607B
:10282C000B46FB700023FB60FB78022B12D0022BB3
:10283C0016DC002B02D0012B06D011E07B689A68C5
:10284C00304B1340FB600EE07B689A682E4B1340B4
:10285C00FB6008E07B689A682C4B1340FB6002E03D
:10286C000023FB6000BFFB68284A93423DD0FB6805
:10287C00264A93423CD8FB68254A93422CD0FB68ED
:10288C00234A934234D8FB681F4A93422AD0FB68F0
:10289C001D4A93422CD8FB681E4A934219D0FB6800
:1028AC001C4A934224D8FB68164A934217D0FB6803
:1028BC00144A93421CD8FB68002B04D0FB68164AC0
:1028CC00934203D014E00223FB6014E00023FB606E
:1028DC0011E00023FB600EE00023FB600BE0012302
:1028EC00FB6008E00123FB6005E00123FB6002E0D4
:1028FC000023FB6000BFFB68DBB218461437BD46F3
:10290C0080BC7047030000040003000800000310A3
:10291C0000000110000100080100000480B483B025
:10292C0000AF78600B46FB70FB78022B14D0022BA7
:10293C0019DC002B02D0012B07D014E07B689B68BC
:10294C0043F080027B689A600EE07B689B6843F4DE
:10295C0000427B689A6007E07B689B6843F4000246
:10296C007B689A6000E000BF00BF0C37BD4680BC9E
:10297C00704780B485B000AFF8600B467A60FB728C
:10298C00FB7AFA681B331B0113441B68DBB203F0A0
:10299C000403DAB27B681A727B681B7A002B0BD1AA
:1029AC00FB7AFA681B331B0113441B685B0DC3F3E2
:1029BC000A027B681A600AE0FB7AFA681B331B0177
:1029CC0013441B68DB0823F060427B685A60FB7A77
:1029DC00FA681B331B0113441B68DBB203F00203C0
:1029EC00DAB27B685A72FB7AFA681B331B01134408
:1029FC0004331B68DBB203F00F03DAB27B689A7204
:102A0C00FB7AFA681B331B01134404331B681B0A43
:102A1C00DAB27B68DA74FB7AFA681B01134403F5AB
:102A2C00DC731B68DAB27B68DA72FB7AFA681B011A
:102A3C00134403F5DC731B681B0ADAB27B681A7348
:102A4C00FB7AFA681B01134403F5DC731B681B0C3F
:102A5C00DAB27B685A73FB7AFA681B01134403F5EC
:102A6C00DC731B681B0EDAB27B689A73FB7AFA680C
:102A7C001B01134403F5DE731B68DAB27B68DA734F
:102A8C00FB7AFA681B01134403F5DE731B681B0AFF
:102A9C00DAB27B681A74FB7AFA681B01134403F5EB
:102AAC00DE731B681B0CDAB27B685A74FB7AFA680B
:102ABC001B01134403F5DE731B681B0EDAB27B6833
:102ACC009A74FB7A002B06D1FB68DB6843F020027A
:102ADC00FB68DA6005E0FB681B6943F02002FB68C9
:102AEC001A6100BF1437BD4680BC704780B483B0F8
:102AFC0000AF78600B46FB70FB78002B06D17B682F
:102B0C00DB6843F020027B68DA6005E07B681B69B8
:102B1C0043F020027B681A6100BF0C37BD4680BCB5
:102B2C00704780B485B000AF78600B46FB70002313
:102B3C00FB73FB78002B06D17B68DB68DBB203F000
:102B4C000303FB730BE0FB78012B06D17B681B693D
:102B5C00DBB203F00303FB7301E00023FB73FB7B8D
:102B6C0018461437BD4680BC704780B485B000AFA2
:102B7C0078600B46FB700023FB734FF6FF73BB6052
:102B8C00FB78002B20D17B681B6823F0030343F0F8
:102B9C0001027B681A6002E0BB68013BBB607B688A
:102BAC005B6803F00303012B02D0BB68002BF3D14D
:102BBC007B685B6803F00303012B02D00023FB73DB
:102BCC004AE00123FB7347E0FB78012B1ED17B68A5
:102BDC001B6823F003027B681A6002E0BB68013BB0
:102BEC00BB607B685B6803F00303002B02D0BB68FF
:102BFC00002BF3D17B685B6803F00303002B02D03E
:102C0C000023FB7328E00123FB7325E0FB78022BE8
:102C1C0020D17B681B6823F0030343F002027B681E
:102C2C001A6002E0BB68013BBB607B685B6803F029
:102C3C000303022B02D0BB68002BF3D17B685B68CB
:102C4C0003F00303022B02D00023FB7304E00123E7
:102C5C00FB7301E00023FB73FB7B18461437BD4666
:102C6C0080BC704780B485B000AF78600023FB73E4
:102C7C007B681B6823F0030343F002027B681A6035
:102C8C007B685B6803F00303022B01D10123FB7308
:102C9C00FB7B18461437BD4680BC704780B485B0AA
:102CAC0000AF78604FF6FF73FB600023FB727B680C
:102CBC001B6823F002027B681A6002E0FB68013B90
:102CCC00FB607B685B6803F00203022B02D1FB689C
:102CDC00002BF3D17B685B6803F00203022B01D05D
:102CEC000123FB72FB7A18461437BD4680BC704733
:102CFC0080B485B000AF78600023FB737B689B6960
:102D0C00DBB203F07003FB73FB7B18461437BD4634
:102D1C0080BC704780B485B000AF78600023FB7333
:102D2C007B689B691B0EFB73FB7B18461437BD46F7
:102D3C0080BC704780B485B000AF78600023FB7313
:102D4C007B689B691B0CFB73FB7B18461437BD46D9
:102D5C0080BC704780B485B000AFF860B960134692
:102D6C00FB71FB79002B06D0FB685A69BB681A43D0
:102D7C00FB685A6106E0FB685A69BB68DB431A4082
:102D8C00FB685A6100BF1437BD4680BC704780B4E5
:102D9C0085B000AF786039600023FB733B6803F4A7
:102DAC007003002B0DD07B689A693B681340C3F30A
:102DBC001303002B02D00123FB7348E00023FB73A9
:102DCC0045E03B6803F08073002B0DD07B685A689C
:102DDC003B681340C3F31303002B02D00123FB7396
:102DEC0035E00023FB7332E03B6803F00063002BFB
:102DFC000DD07B689A683B681340C3F31303002B18
:102E0C0002D00123FB7322E00023FB731FE03B681D
:102E1C0003F00073002B0DD07B68DA683B6813401D
:102E2C00C3F31303002B02D00123FB730FE0002329
:102E3C00FB730CE07B681A693B681340C3F3130304
:102E4C00002B02D00123FB7301E00023FB73FB7BFF
:102E5C0018461437BD4680BC704780B485B000AFAF
:102E6C00786039600023FB603B68174A934203D1BA
:102E7C007B6800229A6121E03B68C3F31303FB607B
:102E8C003B6803F00073002B03D07B68FA68DA60B0
:102E9C0014E03B6803F08063002B03D07B68FA6876
:102EAC001A610BE03B6803F00063002B03D07B68D6
:102EBC00FA689A6002E07B68FA685A6000BF1437BF
:102ECC00BD4680BC704700BF7000F03080B584B048
:102EDC0000AF786039600023FB737B685A693B68EC
:102EEC001340002B00F01B813B68B3F5003F00F052
:102EFC00DD803B68B3F5003F00F20E813B68B3F513
:102F0C00803F00F0CA803B68B3F5803F00F204813B
:102F1C003B68B3F5004F00F0F6803B68B3F5004F0B
:102F2C0000F2FA803B68B3F5006F00F0E3803B6879
:102F3C00B3F5006F00F2F0803B68B3F5806F00F0E2
:102F4C00D0803B68B3F5806F00F2E6803B68B3F548
:102F5C00007F00F0BD803B68B3F5007F00F2DC80A1
:102F6C003B68B3F5807F00F0AA803B68B3F5807FA7
:102F7C0000F2D2803B68202B4CD83B68002B00F031
:102F8C00CB803B68013B1F2B00F2C68001A252F89C
:102F9C0023F000BF293000083B3000082531000821
:102FAC004D30000825310008253100082531000876
:102FBC005F30000825310008253100082531000854
:102FCC00253100082531000825310008253100087D
:102FDC007130000825310008253100082531000822
:102FEC00253100082531000825310008253100085D
:102FFC00253100082531000825310008253100084D
:10300C00253100082531000825310008253100083C
:10301C00833000083B68402B36D07DE07B689B6892
:10302C004249184600F05EF90346FB7379E07B6871
:10303C00DB680321184600F055F90346FB7370E07A
:10304C007B68DB680821184600F04CF90346FB73DB
:10305C0067E07B68DB681021184600F043F90346F3
:10306C00FB735EE07B681B690321184600F03AF99C
:10307C000346FB7355E07B681B690821184600F07A
:10308C0031F90346FB734CE07B681B691021184631
:10309C0000F028F90346FB7343E07B685B6808216A
:1030AC00184600F01FF90346FB733AE07B685B6837
:1030BC001021184600F016F90346FB7331E07B68CB
:1030CC009B690121184600F00DF90346FB7328E0BB
:1030DC007B689B690221184600F004F90346FB73D8
:1030EC001FE07B689B690421184600F0FBF803463F
:1030FC00FB7316E07B689B697021184600F0F2F8B0
:10310C000346FB730DE07B685B680421184600F0F6
:10311C00E9F80346FB7304E00023FB7301E0002392
:10312C00FB73FB7B18461037BD4680BD01010100C7
:10313C0080B483B000AF786039603B68B3F5003F72
:10314C0000F0AA803B68B3F5003F00F2C3803B68F7
:10315C00B3F5803F00F09C803B68B3F5803F00F2F4
:10316C00B9803B68B3F5004F00F0AD803B68B3F518
:10317C00004F00F2AF803B68B3F5006F00F09C800D
:10318C003B68B3F5006F00F2A5803B68B3F5806F28
:10319C0000F08E803B68B3F5806F00F29B803B683B
:1031AC00B3F5007F00F080803B68B3F5007F00F240
:1031BC0091803B68B3F5807F72D03B68B3F5807F1C
:1031CC0000F288803B68202B4AD83B68002B00F02B
:1031DC0081803B68013B1F2B7CD801A252F823F065
:1031EC0075320008E1320008E13200087D32000837
:1031FC00E1320008E1320008E132000885320008B3
:10320C00E1320008E1320008E1320008E132000846
:10321C00E1320008E1320008E1320008E132000836
:10322C00E1320008E1320008E1320008E132000826
:10323C00E1320008E1320008E1320008E132000816
:10324C00E1320008E1320008E1320008E132000806
:10325C00E1320008E1320008E13200088D3200084A
:10326C003B68402B10D035E07B681D4A9A6032E0F9
:10327C007B680822DA602EE07B681022DA602AE094
:10328C007B6808221A6126E07B6810221A6122E012
:10329C007B6808225A601EE07B6810225A601AE094
:1032AC007B6804225A6016E07B6804225A6012E0A4
:1032BC007B6804225A600EE07B6800229A617B686E
:1032CC0004225A6007E07B6800229A617B68042222
:1032DC005A6000E000BF00BF0C37BD4680BC704791
:1032EC000101010080B485B000AF78603960002323
:1032FC00FB737A683B681340002B02D00123FB73ED
:10330C0001E00023FB73FB7B18461437BD4680BCE1
:10331C00704700BF80B483B000AF78607B681A68D8
:10332C004FF6FE7313407A6813607B6800221A60B4
:10333C007B6800225A607B6800229A607B680022BE
:10334C00DA607B68434A934206D1434B5B68424A3E
:10335C0043F00F03536077E07B68404A934206D1F9
:10336C003D4B5B683C4A43F0F00353606CE07B6878
:10337C003B4A934206D1384B5B68374A43F470633F
:10338C00536061E07B68374A934206D1324B5B68ED
:10339C00314A43F47043536056E07B68324A93429F
:1033AC0006D12D4B5B682C4A43F4702353604BE0E1
:1033BC007B682E4A934206D1274B5B68264A43F41E
:1033CC007003536040E07B68294A934206D1224B3C
:1033DC005B68214A43F07063536035E07B68254A93
:1033EC00934206D1244B5B68234A43F00F0353608E
:1033FC002AE07B68214A934206D11F4B5B681E4A28
:10340C0043F0F00353601FE07B681D4A934206D1E2
:10341C00194B5B68184A43F47063536014E07B6883
:10342C00184A934206D1144B5B68134A43F4704319
:10343C00536009E07B68144A934205D10E4B5B68DC
:10344C000D4A43F47023536000BF0C37BD4680BC5B
:10345C00704700BF08000240000002401C00024000
:10346C003000024044000240580002406C00024010
:10347C008000024008040240000402401C04024088
:10348C0030040240440402405804024080B485B029
:10349C0000AF786039600023FB607B681B68FB60C1
:1034AC00FB6823F4FF4323F07003FB603B689A68CE
:1034BC003B681B6A1A433B681B691A433B685B6990
:1034CC001A433B689B691A433B68DB691A433B68A8
:1034DC005B6A1A433B689B6A1343FA681343FB60AD
:1034EC007B68FA681A603B68DA687B685A603B68EC
:1034FC001A687B689A603B685A687B68DA6000BF20
:10350C001437BD4680BC704780B483B000AF786080
:10351C007B6800221A607B6800225A607B6800225C
:10352C009A607B680022DA607B6800221A617B68F3
:10353C0000225A617B6800229A617B680022DA6162
:10354C007B6800221A627B6800225A627B68002228
:10355C009A6200BF0C37BD4680BC704780B483B004
:10356C0000AF78600B46FB70FB78002B06D07B68B5
:10357C001B6843F001027B681A6006E07B681A68DE
:10358C004FF6FE7313407A68136000BF0C37BD46CC
:10359C0080BC704780B485B000AFF860B96013464A
:1035AC00FB71FB79002B06D0FB681A68BB681A43C9
:1035BC00FB681A6006E0FB681A68BB68DB431A40BC
:1035CC00FB681A6000BF1437BD4680BC704780B4DE
:1035DC0083B000AF78600B467B807A887B685A603A
:1035EC0000BF0C37BD4680BC704780B483B000AFC1
:1035FC0078607B685B689BB218460C37BD4680BC14
:10360C00704780B485B000AF78600023FB73002353
:10361C00BB607B6803F08053002B03D00B4B1B6803
:10362C00BB6002E00A4B1B68BB60BA687B68134046
:10363C00002B02D00123FB7301E00023FB73FB7B07
:10364C0018461437BD4680BC704700BF00040240CA
:10365C000000024080B483B000AF78607B6803F058
:10366C008053002B03D0064A7B68536002E0054A66
:10367C007B68536000BF0C37BD4680BC704700BFF1
:10368C00000402400000024080B485B000AF7860B6
:10369C000023FB730023BB607B6803F08053002B7B
:1036AC0003D00B4B1B68BB6002E00A4B1B68BB6072
:1036BC00BA687B681340002B02D00123FB7301E036
:1036CC000023FB73FB7B18461437BD4680BC704748
:1036DC00000402400000024080B483B000AF786068
:1036EC007B6803F08053002B03D0064A7B68536041
:1036FC0002E0054A7B68536000BF0C37BD4680BCB6
:10370C00704700BF000402400000024080B500AFCB
:10371C00154B1B68144A43F001031360124B5A6893
:10372C001149124B13404B600F4B1B680E4A23F090
:10373C00847323F4803313600B4B1B680A4A23F405
:10374C0080231360084B5B68074A23F4FE03536025
:10375C00054B4FF41F029A6000F07EF8044B4FF0BB
:10376C0000629A6000BF80BD001002400000FFF8AC
:10377C0000ED00E080B485B000AF0023FB600023B7
:10378C00BB6000237B602F4B5B6803F00C03FB607A
:10379C00FB68082B11D0FB68082B3AD8FB68002B70
:1037AC0003D0FB68042B04D033E0274B274A1A6064
:1037BC0033E0254B254A1A602FE0224B5B6803F45B
:1037CC007013BB601F4B5B6803F480337B60BB687A
:1037DC009B0C0233BB607B68002B06D1BB681C4A78
:1037EC0002FB03F3184A136017E0164B5B6803F4F3
:1037FC000033002B06D0BB68154A02FB03F3124AB8
:10380C0013600AE0BB68114A02FB03F30E4A136013
:10381C0003E00D4B0D4A1A6000BF0A4B5B681B0995
:10382C0003F00F030B4AD35CDBB2FB60064B1A6848
:10383C00FB6822FA03F3044A136000BF1437BD4639
:10384C0080BC7047001002401400002000127A0067
:10385C0000093D001800002080B500AF00F002F810
:10386C0000BF80BD80B483B000AF00237B60002319
:10387C003B603A4B1B68394A43F480331360374B37
:10388C001B6803F400333B607B6801337B603B684F
:10389C00002B03D17B68B3F5A06FF0D12F4B1B68C5
:1038AC0003F40033002B02D001233B6001E0002322
:1038BC003B603B68012B4BD1294B1B68284A43F0DA
:1038CC0010031360264B1B68254A23F00703136073
:1038DC00234B1B68224A43F0020313601F4B1F4A01
:1038EC005B6853601D4B1D4A5B6853601B4B5B68E8
:1038FC001A4A43F480635360184B5B68174A23F4ED
:10390C007C135360154B5B68144A43F4E813536003
:10391C00124B1B68114A43F08073136000BF0F4BAE
:10392C001B6803F00073002BF9D00C4B5B680B4A3F
:10393C0023F003035360094B5B68084A43F002030E
:10394C00536000BF054B5B6803F00C03082BF9D1E7
:10395C0000BF0C37BD4680BC704700BF0010024052
:10396C0000200240FFF7FEBF0A480B490B4A914268
:10397C00BCBF50F8043B41F8043BF8DB084809494C
:10398C004FF000028842BCBF40F8042BFAE7FCF76A
:10399C009BFFFEE7B439000800000020280000203F
:0839AC0028000020910000201A
:1039B40000000000010203040102030406070809D1
:1039C4000204060800A24A040000000000000000EF
:0839D4000102030406070809C3
:040000050800397541
:00000001FF
