:020000040800F2
:10000000005000204D1D0008491D0008491D000832
:10001000491D0008491D0008491D00080000000096
:10002000000000000000000000000000491D000862
:10003000491D000800000000491D0008491D000876
:10004000491D0008491D0008491D0008491D0008F8
:10005000491D0008491D0008491D0008491D0008E8
:10006000491D0008491D0008491D0008491D0008D8
:10007000491D0008491D0008491D0008491D0008C8
:10008000491D0008491D0008491D0008491D0008B8
:10009000491D0008491D0008491D0008491D0008A8
:1000A000491D0008491D0008491D0008491D000898
:1000B000491D0008491D0008491D0008491D000888
:1000C000491D0008491D0008491D0008491D000878
:1000D000491D000803020008491D0008491D0008C9
:0C00E000491D0008491D0008491D0008CA
:1000EC0080B500AF00F002F830BFFDE780B500AF7F
:1000FC00012144F2140001F007FD00F006F800F0B5
:10010C0037F800F065F800BF80BD80B582B000AF55
:10011C004FF40053BB801023FB710323BB713B1DB9
:10012C001946114800F07AFA4FF400510E4800F0CD
:10013C008EFB4FF40073BB801823FB710323BB7140
:10014C003B1D1946094800F069FA4FF48063BB80E7
:10015C000423FB713B1D1946044800F05FFA00BFF5
:10016C000837BD4680BD00BF0010014000080140AB
:10017C0080B584B000AF4FF416533B600023BB80B6
:10018C000023FB8000233B810023BB810C237B815C
:10019C003B4619460D4800F0D1FD01210B4800F0FB
:1001AC00DDFF012240F22551084800F0FCFE01223F
:1001BC0040F64601054800F0F6FE0121034800F028
:1001CC00D3FE00BF1037BD4680BD00BF00380140D4
:1001DC0080B582B000AF25233B7100237B710023D7
:1001EC00BB710123FB713B1D184600F097FC00BF4F
:1001FC000837BD4680BD80B582B000AF40F64601E1
:10020C00424801F036F90346002B19D040F646015E
:10021C003E4801F088F93E4B01221A703D4B0022FA
:10022C001A703D4B00221A703B4B00225A703A4B0D
:10023C0000229A72384B0022DA72374B00221A7362
:10024C0040F22551314801F014F90346002B59D0E6
:10025C002E4800F0B3FF0346FB712D4B1B78DBB22D
:10026C00042B4BDC032B25DA012B02D0022B04D000
:10027C0044E0274B02221A7044E0274AFB79537062
:10028C00FB79184600F0DFF80346002B0ED0FB7903
:10029C00184600F0ABF803461A461F4B9A721C4BDB
:1002AC0003221A701B4B00221A702BE0184B0022F1
:1002BC001A7027E0184B9B7ADAB2164B1B78DBB21C
:1002CC009A4212D9134B1B78DBB21A46124B1344C9
:1002DC00FA799A700F4B1B78DBB20133DAB20D4B03
:1002EC001A700B4B04221A700CE00B4AFB79D37278
:1002FC00074B05221A7000F011F803E0044B0022A2
:10030C001A7000BF00BF0837BD4680BD00380140E1
:10031C0014000020250000201800002080B582B0B9
:10032C0000AF164B5B78DBB203F03F03DBB2134A32
:10033C00927AD2B21249184600F026F803461A46B1
:10034C000E4B1A730D4BDB7ADAB20C4B1B7BDBB208
:10035C009A420CD1094B5B78DBB2184600F065F879
:10036C000346FB71FB79302B01D100F0BCF8054B37
:10037C0000221A7000BF0837BD4680BD180000204F
:10038C001A0000201400002080B485B000AF034692
:10039C003960FB711346BB710023FB81FB799AB268
:1003AC00FB891344FB8100237B7312E07B7B3A684F
:1003BC0013441B781A46FB891344FB81FB89FF2BE2
:1003CC0004D9FB89DBB29BB20133FB817B7B01330C
:1003DC007B737A7BBB799A42E8D3FB89DBB2DB4334
:1003EC00DBB218461437BD4680BC704780B584B06C
:1003FC0000AF0346FB71FB79184600F016F8034674
:10040C00FB73FB7B1F2B01D802230AE0FB7B2F2BFA
:10041C0001D8042305E0FB7B3F2B01D8082300E027
:10042C00082318461037BD4680BD80B483B000AF9A
:10043C000346FB71FB7903F03F03DBB218460C3724
:10044C00BD4680BC704780B584B000AF0346FB71DD
:10045C00FB791846FFF7E9FF0346FB73FB7B5B0850
:10046C00DAB2FB7B5340DAB2FB7B9B08DBB2534026
:10047C00DAB2FB7B1B09DBB25340DBB203F00103A6
:10048C00BB73FB7B5B08DAB2FB7BDB08DBB2534054
:10049C00DAB2FB7B1B09DBB25340DAB2FB7B5B09A4
:1004AC00DBB25340DBB203F00103002B0CBF012382
:1004BC000023DBB27B73BB7B9B015AB297F90F30E5
:1004CC0013435AB27B7BDB015BB213435BB23B73CE
:1004DC00FA793B7B9A420CBF01230023DBB218460E
:1004EC001037BD4680BD80B500AF0B4B1B78002B81
:1004FC0008D04FF40051094800F0A9F9064B00222E
:10050C001A7007E04FF40051044800F0AEF9024BAA
:10051C0001221A7000BF80BD2C0000200010014089
:10052C0080B582B000AF78607B682F4A934208D1C7
:10053C000121042001F024FB0021042001F020FB08
:10054C004EE07B68294A934208D10121082001F032
:10055C0017FB0021082001F013FB41E07B68244AC3
:10056C00934208D10121102001F00AFB0021102038
:10057C0001F006FB34E07B681E4A934208D101214E
:10058C00202001F0FDFA0021202001F0F9FA27E0EB
:10059C007B68194A934208D10121402001F0F0FAFE
:1005AC000021402001F0ECFA1AE07B68134A9342D8
:1005BC0008D10121802001F0E3FA0021802001F014
:1005CC00DFFA0DE07B680E4A934209D101214FF40A
:1005DC00807001F0D5FA00214FF4807001F0D0FA50
:1005EC0000BF0837BD4680BD00080140000C01402B
:1005FC00001001400014014000180140001C014093
:10060C000020014080B500AF0121012001F0B8FAB3
:10061C000021012001F0B4FA00BF80BD80B489B084
:10062C0000AF786039600023FB6100233B6100233D
:10063C00BB610023FB6000237B610023BB603B6834
:10064C00DB7803F00F03FB613B68DB7803F01003EE
:10065C00002B05D03B689B781A46FB691343FB6162
:10066C003B681B88DBB2002B44D07B681B687B612A
:10067C000023BB6138E00122BB6902FA03F3FB6083
:10068C003B681B881A46FB6813403B613A69FB6860
:10069C009A4226D1BB699B00FB600F22FB6802FAD1
:1006AC0003F3BB60BB68DB437A6913407B61FA6977
:1006BC00FB6802FA03F37A6913437B613B68DB78CE
:1006CC00282B05D10122BB699A407B685A6108E04E
:1006DC003B68DB78482B04D10122BB699A407B68CC
:1006EC001A61BB690133BB61BB69072BC3D97B683A
:1006FC007A691A603B681B88FF2B46D97B685B685C
:10070C007B610023BB613AE0BB690833012202FA2A
:10071C0003F3FB603B681B881A46FB6813403B6184
:10072C003A69FB689A4227D1BB699B00FB600F2298
:10073C00FB6802FA03F3BB60BB68DB437A691340C6
:10074C007B61FA69FB6802FA03F37A6913437B61F4
:10075C003B68DB78282B05D1BB69083301229A4012
:10076C007B685A613B68DB78482B05D1BB69083341
:10077C0001229A407B681A61BB690133BB61BB697A
:10078C00072BC1D97B687A695A6000BF2437BD46F4
:10079C0080BC704780B483B000AF78607B684FF644
:1007AC00FF721A807B6802229A707B680422DA70CE
:1007BC0000BF0C37BD4680BC704780B485B000AF1D
:1007CC0078600B467B800023FB737B689A687B8880
:1007DC001340002B02D00123FB7301E00023FB73B9
:1007EC00FB7B18461437BD4680BC704780B483B081
:1007FC0000AF78607B689B689BB218460C37BD468F
:10080C0080BC704780B485B000AF78600B467B80AD
:10081C000023FB737B68DA687B881340002B02D0C3
:10082C000123FB7301E00023FB73FB7B1846143799
:10083C00BD4680BC704780B483B000AF78607B68E5
:10084C00DB689BB218460C37BD4680BC704780B441
:10085C0083B000AF78600B467B807A887B681A6126
:10086C0000BF0C37BD4680BC704780B483B000AF6E
:10087C0078600B467B807A887B685A6100BF0C37A6
:10088C00BD4680BC704780B483B000AF78600B4627
:10089C007B8013467B707B78002B03D07A887B6837
:1008AC001A6102E07A887B685A6100BF0C37BD463A
:1008BC0080BC704780B483B000AF78600B467B80FF
:1008CC007A887B68DA6000BF0C37BD4680BC704705
:1008DC0080B485B000AF78600B467B804FF48033DA
:1008EC00FB607B88FA681343FB607B68FA689A614B
:1008FC007A887B689A617B68FA689A617B689B69E5
:10090C00FB607B689B69FB6000BF1437BD4680BCF5
:10091C00704780B485B000AF03460A46FB7113469E
:10092C00BB710023FB600C4B1B68FB60FA684FF635
:10093C0080731340FB60FB791B01FA681343FB6067
:10094C00BB79FA681343FB60034AFB68136000BF72
:10095C001437BD4680BC70470000014080B483B0A2
:10096C0000AF0346FB71044AFB79136000BF0C37E0
:10097C00BD4680BC704700BF1C00204280B487B0CD
:10098C0000AF78600B46FB7000233B610023FB60DB
:10099C0000237B610023BB607B68002B03DA2E4BAA
:1009AC00DB697B6102E02C4B5B687B617B681B0C19
:1009BC0003F00F03BB607B689BB23B617B6803F465
:1009CC004013B3F5401F0AD17B6923F070637B6140
:1009DC00214B5B68204A23F07063536021E07B68F5
:1009EC0003F48013002B0ED00322BB6802FA03F32E
:1009FC00FB60FB68DB437A6913407B617B6943F0E6
:100A0C0070637B610DE07B685B0D1B013A6902FA38
:100A1C0003F3DB437A6913407B617B6943F07063BA
:100A2C007B61FB78002B08D07B685B0D1B013A695E
:100A3C0002FA03F37A6913437B617B68002B03DAB8
:100A4C00054A7B69D36102E0034A7B69536000BFAE
:100A5C001C37BD4680BC70470000014080B485B097
:100A6C0000AF03460A46FB711346BB710023FB60C3
:100A7C00BB7903F003039B000F2202FA03F3FB6024
:100A8C00154ABB799B08DBB2023352F82320FB6872
:100A9C00DB431148B9798908C9B21A408B1C40F85C
:100AAC0023200D4ABB799B08DBB2023352F823207A
:100ABC00F979BB7903F003039B0001FA03F30648B1
:100ACC00B9798908C9B21A438B1C40F8232000BF9E
:100ADC001437BD4680BC70470000014080B483B021
:100AEC0000AF7860034A7B68136000BF0C37BD46CB
:100AFC0080BC7047DC00204280B483B000AF7860CB
:100B0C00054A7B6843F0BF6343F40033D36000BFF6
:100B1C000C37BD4680BC704700ED00E080B487B058
:100B2C0000AF786000237B6100233B610F23FB60E7
:100B3C007B68DB78002B3AD0274BDB68DB431B0A46
:100B4C0003F007037B617B69C3F104033B61FA6823
:100B5C007B6922FA03F3FB607B685B781A463B697E
:100B6C0002FA03F37B617B689B781A46FB6813409F
:100B7C007A6913437B617B691B017B61174A7B6834
:100B8C001B787969C9B213440A4683F800237B6841
:100B9C001B7803F01F0311497A6812785209D2B2FC
:100BAC001046012202FA03F341F820300FE07B6873
:100BBC001B7803F01F0309497A6812785209D2B2E4
:100BCC00104601229A4000F1200341F8232000BF77
:100BDC001C37BD4680BC704700ED00E000E100E032
:100BEC0080B483B000AF786039603B6823F0604319
:100BFC0023F07F0304497A6813438B6000BF0C37E2
:100C0C00BD4680BC704700BF00ED00E080B483B0EF
:100C1C0000AF03460A46FB711346BB71BB79002B30
:100C2C0006D0094B1A69FB79074913430B6106E09F
:100C3C00054B1A69FB79DB43034913400B6100BF79
:100C4C000C37BD4680BC704700ED00E080B483B02B
:100C5C0000AF78607B68042B06D1094B1B68084AEF
:100C6C0043F00403136005E0054B1B68044A23F0B2
:100C7C000403136000BF0C37BD4680BC704700BF37
:100C8C0010E000E080B582B000AF78607B68264A47
:100C9C0093420AD101214FF4804000F071FF0021F2
:100CAC004FF4804000F06CFF3AE07B681F4A93429F
:100CBC000AD101214FF4003000F080FF00214FF4E5
:100CCC00003000F07BFF2BE07B68194A93420AD17D
:100CDC0001214FF4802000F071FF00214FF480209F
:100CEC0000F06CFF1CE07B68124A93420AD1012190
:100CFC004FF4002000F062FF00214FF4002000F0C0
:100D0C005DFF0DE07B680C4A934209D101214FF441
:100D1C00801000F053FF00214FF4801000F04EFFC4
:100D2C0000BF0837BD4680BD00380140004400407C
:100D3C0000480040004C00400050004080B58CB092
:100D4C0000AF786039600023FB620023BB62002394
:100D5C007B6200233B620023FB617B68FB617B6849
:100D6C001B8A9BB2FB62FA6A4CF6FF731340FB6260
:100D7C003B68DB881A46FB6A1343FB62FB6A9AB238
:100D8C007B681A827B689B899BB2FB62FA6A4EF67F
:100D9C00F3131340FB623B689A883B681B8913432F
:100DAC009AB23B685B8913439BB21A46FB6A1343A6
:100DBC00FB62FB6A9AB27B689A817B689B8A9BB2C6
:100DCC00FB62FA6A4FF6FF431340FB623B689B8958
:100DDC001A46FB6A1343FB62FB6A9AB27B689A82DF
:100DEC0007F10803184600F0BBFDFB692E4A93423D
:100DFC0002D17B69BB6201E03B69BB627B689B896A
:100E0C009BB21BB2002B0CDABA6A13469B0013443C
:100E1C009A001A443B681B685B00B2FBF3F37B62DD
:100E2C000BE0BA6A13469B0013449A001A443B68C1
:100E3C001B689B00B2FBF3F37B627B6A1B4AA2FB31
:100E4C0003235B091B01FB62FB6A1B09642202FB87
:100E5C0003F37A6AD31A3B627B689B899BB21BB201
:100E6C00002B0CDA3B6ADB003233104AA2FB032363
:100E7C005B0903F00703FA6A1343FB620BE03B6A5E
:100E8C001B013233094AA2FB03235B0903F00F0356
:100E9C00FA6A1343FB62FB6A9AB27B681A8100BF41
:100EAC003037BD4680BD00BF003801401F85EB5177
:100EBC0080B483B000AF78607B684FF416521A6030
:100ECC007B6800229A807B680022DA807B68002293
:100EDC001A817B680C225A817B6800229A8100BFA0
:100EEC000C37BD4680BC704780B485B000AF7860CD
:100EFC0039600023FB607B681B8A9BB2FB60FA683D
:100F0C004FF2FF031340FB603B681A883B685B8819
:100F1C0013439AB23B689B8813439AB23B68DB88B5
:100F2C0013439BB21A46FB681343FB60FB689AB2EF
:100F3C007B681A8200BF1437BD4680BC704780B4F2
:100F4C0083B000AF78607B6800221A807B68002237
:100F5C005A807B6800229A807B680022DA8000BF6E
:100F6C000C37BD4680BC704780B483B000AF78604E
:100F7C000B46FB70FB78002B08D07B689B899BB2DF
:100F8C0043F400539AB27B689A8107E07B689B8993
:100F9C009BB223F400539AB27B689A8100BF0C3742
:100FAC00BD4680BC704780B487B000AF78600B46FC
:100FBC007B8013467B7000233B610023FB60002386
:100FCC00BB6000237B617B687B617B88DBB25B0948
:100FDC00DBB23B617B8803F01F03FB600122FB68E3
:100FEC0002FA03F3BB603B69012B03D17B690C3321
:100FFC007B6109E03B69022B03D17B6910337B6178
:10100C0002E07B6914337B617B78002B06D07B6913
:10101C0019687B69BA680A431A6006E07B6919682B
:10102C00BB68DA437B690A401A6000BF1C37BD46B7
:10103C0080BC704780B483B000AF78600B467B8077
:10104C0013467B707B78002B08D07B689B8A9AB206
:10105C007B8813439AB27B689A8209E07B689B8AEF
:10106C009AB27B88DB439BB213409AB27B689A821C
:10107C0000BF0C37BD4680BC704780B483B000AF56
:10108C0078600B46FB707B681B8A9BB223F00F03C6
:10109C009AB27B681A827B681B8A9AB2FB789BB2E5
:1010AC0013439AB27B681A8200BF0C37BD4680BCD2
:1010BC00704780B483B000AF78600B467B807B6850
:1010CC009B899BB223F400639AB27B689A817B68FC
:1010DC009B899AB27B8813439AB27B689A8100BF32
:1010EC000C37BD4680BC704780B483B000AF7860CD
:1010FC000B46FB70FB78002B08D07B689B899BB25E
:10110C0043F002039AB27B689A8107E07B689B8963
:10111C009BB223F002039AB27B689A8100BF0C3712
:10112C00BD4680BC704780B483B000AF78600B467E
:10113C007B807B681B8A9BB223F020039AB27B686E
:10114C001A827B681B8A9AB27B8813439AB27B689B
:10115C001A8200BF0C37BD4680BC704780B483B088
:10116C0000AF78600B46FB70FB78002B08D07B68D7
:10117C001B8A9BB243F480439AB27B681A8207E0C5
:10118C007B681B8A9BB223F480439AB27B681A82D9
:10119C0000BF0C37BD4680BC704780B483B000AF35
:1011AC0078600B467B807B88C3F308039AB27B681C
:1011BC009A8000BF0C37BD4680BC704780B483B0AA
:1011CC0000AF78607B689B889BB2C3F308039BB22B
:1011DC0018460C37BD4680BC704780B483B000AF56
:1011EC0078607B689B899BB243F001039AB27B6861
:1011FC009A8100BF0C37BD4680BC704780B483B069
:10120C0000AF78600B46FB707B681B8B9BB2DBB22C
:10121C009AB27B681A837B681B8B9AB2FB789BB261
:10122C001B029BB213439AB27B681A8300BF0C3724
:10123C00BD4680BC704780B483B000AF78600B466D
:10124C00FB707B681B8B9BB223F0FF039AB27B680D
:10125C001A837B681B8B9AB2FB789BB213439AB2AE
:10126C007B681A8300BF0C37BD4680BC704780B4C6
:10127C0083B000AF78600B46FB70FB78002B08D076
:10128C007B689B8A9BB243F020039AB27B689A825C
:10129C0007E07B689B8A9BB223F020039AB27B68A1
:1012AC009A8200BF0C37BD4680BC704780B483B0B7
:1012BC0000AF78600B46FB70FB78002B08D07B6886
:1012CC009B8A9BB243F010039AB27B689A8207E028
:1012DC007B689B8A9BB223F010039AB27B689A823C
:1012EC0000BF0C37BD4680BC704780B483B000AFE4
:1012FC0078600B46FB70FB78002B08D07B689B8AD0
:10130C009BB243F008039AB27B689A8207E07B6831
:10131C009B8A9BB223F008039AB27B689A8200BF27
:10132C000C37BD4680BC704780B483B000AF78608A
:10133C000B46FB70FB78002B0AD07B689B899BB219
:10134C006FEA43436FEA53439AB27B689A8107E092
:10135C007B689B899BB2C3F30E039AB27B689A811C
:10136C0000BF0C37BD4680BC704780B483B000AF63
:10137C0078600B46FB70FB78002B08D07B689B8A4F
:10138C009BB243F400639AB27B689A8207E07B6855
:10139C009B8A9BB223F400639AB27B689A8200BF4B
:1013AC000C37BD4680BC704780B483B000AF78600A
:1013BC000B467B807B689B8A9BB223F004039AB21A
:1013CC007B689A827B689B8A9AB27B8813439AB219
:1013DC007B689A8200BF0C37BD4680BC704780B4D6
:1013EC0083B000AF78600B46FB70FB78002B08D005
:1013FC007B689B8A9BB243F002039AB27B689A8209
:10140C0007E07B689B8A9BB223F002039AB27B684D
:10141C009A8200BF0C37BD4680BC704780B485B043
:10142C0000AF78600B467B800023FB737B681B88C6
:10143C009AB27B8813409BB2002B02D00123FB7322
:10144C0001E00023FB73FB7B18461437BD4680BCC0
:10145C00704780B483B000AF78600B467B807B888C
:10146C00DB439AB27B681A8000BF0C37BD4680BC48
:10147C00704780B487B000AF78600B467B80002348
:10148C00FB6000237B610023BB600023FB747B8823
:10149C00DBB25B09DBB2BB607B8803F01F037B61B3
:1014AC0001227B6902FA03F37B61BB68012B07D134
:1014BC007B689B899BB21A467B6913407B6111E068
:1014CC00BB68022B07D17B681B8A9BB21A467B69CF
:1014DC0013407B6106E07B689B8A9BB21A467B6952
:1014EC0013407B617B881B0A9BB2FB600122FB686B
:1014FC0002FA03F3FB607B681B889BB21A46FB68FD
:10150C001340FB607B69002B05D0FB68002B02D0DD
:10151C000123FB7401E00023FB74FB7C18461C3791
:10152C00BD4680BC704780B485B000AF78600B4678
:10153C007B800023FB810023BB817B881B0AFB8102
:10154C00FB89012202FA03F3BB81BB89DB439AB20C
:10155C007B681A8000BF1437BD4680BC704700BF43
:10156C0080B400AF134B1B68124A43F001031360A5
:10157C00104B5A680F49104B13404B600D4B1B68B6
:10158C000C4A23F0847323F480331360094B1B68DB
:10159C00084A23F480231360064B5B68054A23F446
:1015AC00FE035360034B4FF41F029A6000BFBD460D
:1015BC0080BC7047001002400000FFF880B483B07C
:1015CC0000AF7860134B1B68124A23F4803313600E
:1015DC00104B1B680F4A23F4802313607B68B3F510
:1015EC00803F04D07B68B3F5802F07D00DE0094B0A
:1015FC001B68084A43F48033136006E0054B1B68F4
:10160C00044A43F4A023136000BF00BF0C37BD464F
:10161C0080BC70470010024080B582B000AF002340
:10162C003B600023FB710023BB71312000F014FBE5
:10163C000346BB713B6801333B603B68B3F5A06F5D
:10164C0002D0BB79002BF0D0312000F005FB034613
:10165C00002B02D00123FB7101E00023FB71FB790D
:10166C0018460837BD4680BD80B485B000AF034630
:10167C00FB710023FB600A4B1B68FB60FB6823F0CB
:10168C00F803FB60FB79DB00FA681343FB60044A48
:10169C00FB68136000BF1437BD4680BC704700BFA9
:1016AC000010024080B483B000AF0346FB71044AC3
:1016BC00FB79136000BF0C37BD4680BC704700BF80
:1016CC000000424280B485B000AF786039600023DE
:1016DC00FB600A4B5B68FB60FB6823F47C13FB60CC
:1016EC007A683B681343FA681343FB60034AFB6850
:1016FC00536000BF1437BD4680BC704700100240D9
:10170C0080B483B000AF0346FB71044AFB791360CD
:10171C0000BF0C37BD4680BC704700BF6000424222
:10172C0080B485B000AF78600023FB60094B5B6828
:10173C00FB60FB6823F00303FB60FA687B681343D0
:10174C00FB60044AFB68536000BF1437BD4680BC85
:10175C00704700BF0010024080B400AF044B5B68C0
:10176C00DBB203F00C03DBB21846BD4680BC7047FD
:10177C000010024080B485B000AF78600023FB609D
:10178C00094B5B68FB60FB6823F0F003FB60FA68B5
:10179C007B681343FB60044AFB68536000BF14373B
:1017AC00BD4680BC704700BF0010024080B485B0BD
:1017BC0000AF78600023FB60094B5B68FB60FB6843
:1017CC0023F4E063FB60FA687B681343FB60044A14
:1017DC00FB68536000BF1437BD4680BC704700BF28
:1017EC000010024080B485B000AF78600023FB602D
:1017FC00094B5B68FB60FB6823F46053FB607B6800
:10180C00DB00FA681343FB60034AFB68536000BFBC
:10181C001437BD4680BC70470010024080B483B0C2
:10182C0000AF03460A46FB711346BB71BB79002B14
:10183C0008D00C4B1B78DAB20A49FB791343DBB2A4
:10184C000B7009E0074B1B78DAB2FB79DB43DBB298
:10185C0004491340DBB20B7000BF0C37BD4680BC93
:10186C00704700BF0910024080B483B000AF7860AD
:10187C00034A7B68136000BF0C37BD4680BC7047C1
:10188C00D800424280B485B000AF78600023FB6082
:10189C00094B5B68FB60FB6823F44043FB60FA6810
:1018AC007B681343FB60044AFB68536000BF14372A
:1018BC00BD4680BC704700BF0010024080B483B0AE
:1018CC0000AF0346FB710C4B00221A700A4B00222E
:1018DC001A70FB79012B02D0042B04D007E0064BC5
:1018EC0001221A7003E0044B05221A7000BF00BFDE
:1018FC000C37BD4680BC70472010024080B483B0CA
:10190C0000AF0346FB71044AFB79136000BF0C3730
:10191C00BD4680BC704700BF8004424280B483B097
:10192C0000AF7860054B1A6A04497B6813430B625D
:10193C0000BF0C37BD4680BC704700BF0010024092
:10194C0080B483B000AF0346FB71044AFB7913608B
:10195C0000BF0C37BD4680BC704700BF3C04424200
:10196C0080B487B000AF786000237B6100233B61BB
:10197C000023FB600023BB604F4B5B6803F00C0340
:10198C007B617B69082B11D07B69082B3AD87B696A
:10199C00002B03D07B69042B04D033E07B68474ACF
:1019AC001A6033E07B68454A1A602FE0424B5B6853
:1019BC0003F470133B61404B5B6803F48033FB60B2
:1019CC003B699B0C02333B61FB68002B06D13B69E6
:1019DC003B4A03FB02F27B681A6017E0364B5B68EC
:1019EC0003F40033002B06D03B69354A03FB02F2AB
:1019FC007B681A600AE03B69304A03FB02F27B68A1
:101A0C001A6003E07B682D4A1A6000BF2A4B5B68A2
:101A1C0003F0F0037B617B691B097B61294A7B69BD
:101A2C0013441B78DBB2BB607B681A68BB68DA4076
:101A3C007B685A60204B5B6803F4E0637B617B69D5
:101A4C001B0A7B611F4A7B6913441B78DBB2BB60AA
:101A5C007B685A68BB68DA407B689A60164B5B6897
:101A6C0003F460537B617B69DB0A7B61154A7B69FC
:101A7C0013441B78DBB2BB607B685A68BB68DA40E6
:101A8C007B68DA600C4B5B6803F440437B617B69D9
:101A9C009B0B7B610C4A7B6913441B78DBB2BB60EC
:101AAC007B68DA68BB68B2FBF3F27B681A6100BF33
:101ABC001C37BD4680BC70470010024000127A00F3
:101ACC0000093D00000000201000002080B483B00D
:101ADC0000AF78600B46FB70FB78002B06D0094BEF
:101AEC005A6908497B6813434B6106E0054B5A69F8
:101AFC007B68DB43034913404B6100BF0C37BD4689
:101B0C0080BC70470010024080B483B000AF786096
:101B1C000B46FB70FB78002B06D0094B9A690849E1
:101B2C007B6813438B6106E0054B9A697B68DB434A
:101B3C00034913408B6100BF0C37BD4680BC704716
:101B4C000010024080B483B000AF78600B46FB708D
:101B5C00FB78002B06D0094BDA6908497B681343E4
:101B6C00CB6106E0054BDA697B68DB430349134024
:101B7C00CB6100BF0C37BD4680BC704700100240E3
:101B8C0080B483B000AF78600B46FB70FB78002B01
:101B9C0006D0094BDA6808497B681343CB6006E032
:101BAC00054BDA687B68DB4303491340CB6000BF0D
:101BBC000C37BD4680BC70470010024080B483B027
:101BCC0000AF78600B46FB70FB78002B06D0094BFE
:101BDC001A6908497B6813430B6106E0054B1A69C7
:101BEC007B68DB43034913400B6100BF0C37BD46D8
:101BFC0080BC70470010024080B483B000AF034635
:101C0C00FB71044AFB79136000BF0C37BD4680BCE6
:101C1C00704700BF4004424280B483B000AF03461B
:101C2C00FB71044AFB79136000BF0C37BD4680BCC6
:101C3C00704700BF4C00424280B483B000AF0346F3
:101C4C00FB71044AFB79137000BF0C37BD4680BC96
:101C5C00704700BF0710024080B487B000AF034646
:101C6C00FB710023FB6000237B610023FB74FB7979
:101C7C005B09DBB2FB60FB68012B03D1124B1B68C9
:101C8C007B6109E0FB68022B03D10F4B1B6A7B6164
:101C9C0002E00D4B5B6A7B61FB7903F01F03FB6079
:101CAC007A69FB6822FA03F303F00103002B02D0DC
:101CBC000123FB7401E00023FB74FB7C18461C37EA
:101CCC00BD4680BC704700BF0010024080B400AF1E
:101CDC00044B5B6A034A43F08073536200BFBD46FA
:101CEC0080BC70470010024080B485B000AF034642
:101CFC00FB710023FB73084B9A68FB791340002B94
:101D0C0002D00123FB7301E00023FB73FB7B18461D
:101D1C001437BD4680BC70470010024080B483B0BD
:101D2C0000AF0346FB71044AFB79137000BF0C37FC
:101D3C00BD4680BC704700BF0A100240FFF7FEBFD3
:101D4C000A480B490B4A9142BCBF50F8043B41F87E
:101D5C00043BF8DB084809494FF000028842BCBF3D
:101D6C0040F8042BFAE7FEF7BBF9FEE78C1D0008E0
:101D7C000000002014000020140000202D00002082
:101D8C000000000001020304010203040607080915
:041D9C00020406082F
:0400000508001D4D85
:00000001FF
